{
  "contractName": "CanvasManager",
  "abi": [
    {
      "inputs": [
        {
          "internalType": "address",
          "name": "nft",
          "type": "address"
        },
        {
          "internalType": "address",
          "name": "moment",
          "type": "address"
        },
        {
          "internalType": "address",
          "name": "zoraMarket",
          "type": "address"
        }
      ],
      "stateMutability": "nonpayable",
      "type": "constructor"
    },
    {
      "anonymous": false,
      "inputs": [
        {
          "indexed": true,
          "internalType": "address",
          "name": "who",
          "type": "address"
        },
        {
          "indexed": true,
          "internalType": "uint256",
          "name": "nftId",
          "type": "uint256"
        },
        {
          "indexed": true,
          "internalType": "uint256",
          "name": "momentId",
          "type": "uint256"
        },
        {
          "indexed": false,
          "internalType": "uint256",
          "name": "index",
          "type": "uint256"
        },
        {
          "indexed": false,
          "internalType": "uint24",
          "name": "color",
          "type": "uint24"
        },
        {
          "indexed": false,
          "internalType": "uint256",
          "name": "bidPrice",
          "type": "uint256"
        }
      ],
      "name": "DrawPixel",
      "type": "event"
    },
    {
      "anonymous": false,
      "inputs": [
        {
          "indexed": true,
          "internalType": "address",
          "name": "who",
          "type": "address"
        },
        {
          "indexed": true,
          "internalType": "uint256",
          "name": "nftId",
          "type": "uint256"
        }
      ],
      "name": "EndArt",
      "type": "event"
    },
    {
      "anonymous": false,
      "inputs": [
        {
          "indexed": true,
          "internalType": "address",
          "name": "who",
          "type": "address"
        },
        {
          "indexed": true,
          "internalType": "uint256",
          "name": "nftId",
          "type": "uint256"
        },
        {
          "indexed": false,
          "internalType": "uint256",
          "name": "startTime",
          "type": "uint256"
        },
        {
          "indexed": false,
          "internalType": "uint256",
          "name": "endTime",
          "type": "uint256"
        }
      ],
      "name": "NewArt",
      "type": "event"
    },
    {
      "anonymous": false,
      "inputs": [
        {
          "indexed": true,
          "internalType": "address",
          "name": "previousOwner",
          "type": "address"
        },
        {
          "indexed": true,
          "internalType": "address",
          "name": "newOwner",
          "type": "address"
        }
      ],
      "name": "OwnershipTransferred",
      "type": "event"
    },
    {
      "anonymous": false,
      "inputs": [
        {
          "indexed": false,
          "internalType": "address",
          "name": "account",
          "type": "address"
        }
      ],
      "name": "Paused",
      "type": "event"
    },
    {
      "anonymous": false,
      "inputs": [
        {
          "indexed": true,
          "internalType": "bytes32",
          "name": "role",
          "type": "bytes32"
        },
        {
          "indexed": true,
          "internalType": "bytes32",
          "name": "previousAdminRole",
          "type": "bytes32"
        },
        {
          "indexed": true,
          "internalType": "bytes32",
          "name": "newAdminRole",
          "type": "bytes32"
        }
      ],
      "name": "RoleAdminChanged",
      "type": "event"
    },
    {
      "anonymous": false,
      "inputs": [
        {
          "indexed": true,
          "internalType": "bytes32",
          "name": "role",
          "type": "bytes32"
        },
        {
          "indexed": true,
          "internalType": "address",
          "name": "account",
          "type": "address"
        },
        {
          "indexed": true,
          "internalType": "address",
          "name": "sender",
          "type": "address"
        }
      ],
      "name": "RoleGranted",
      "type": "event"
    },
    {
      "anonymous": false,
      "inputs": [
        {
          "indexed": true,
          "internalType": "bytes32",
          "name": "role",
          "type": "bytes32"
        },
        {
          "indexed": true,
          "internalType": "address",
          "name": "account",
          "type": "address"
        },
        {
          "indexed": true,
          "internalType": "address",
          "name": "sender",
          "type": "address"
        }
      ],
      "name": "RoleRevoked",
      "type": "event"
    },
    {
      "anonymous": false,
      "inputs": [
        {
          "indexed": true,
          "internalType": "address",
          "name": "who",
          "type": "address"
        },
        {
          "indexed": true,
          "internalType": "uint256",
          "name": "nftId",
          "type": "uint256"
        },
        {
          "indexed": false,
          "internalType": "uint256",
          "name": "endTime",
          "type": "uint256"
        }
      ],
      "name": "SetEndTime",
      "type": "event"
    },
    {
      "anonymous": false,
      "inputs": [
        {
          "indexed": false,
          "internalType": "address",
          "name": "account",
          "type": "address"
        }
      ],
      "name": "Unpaused",
      "type": "event"
    },
    {
      "inputs": [],
      "name": "DEFAULT_ADMIN_ROLE",
      "outputs": [
        {
          "internalType": "bytes32",
          "name": "",
          "type": "bytes32"
        }
      ],
      "stateMutability": "view",
      "type": "function"
    },
    {
      "inputs": [
        {
          "internalType": "uint256",
          "name": "",
          "type": "uint256"
        }
      ],
      "name": "_artAuctions",
      "outputs": [
        {
          "internalType": "contract IArtAuction",
          "name": "",
          "type": "address"
        }
      ],
      "stateMutability": "view",
      "type": "function"
    },
    {
      "inputs": [
        {
          "internalType": "uint256",
          "name": "",
          "type": "uint256"
        }
      ],
      "name": "_endArtIds",
      "outputs": [
        {
          "internalType": "uint256",
          "name": "",
          "type": "uint256"
        }
      ],
      "stateMutability": "view",
      "type": "function"
    },
    {
      "inputs": [
        {
          "internalType": "bytes32",
          "name": "role",
          "type": "bytes32"
        }
      ],
      "name": "getRoleAdmin",
      "outputs": [
        {
          "internalType": "bytes32",
          "name": "",
          "type": "bytes32"
        }
      ],
      "stateMutability": "view",
      "type": "function"
    },
    {
      "inputs": [
        {
          "internalType": "bytes32",
          "name": "role",
          "type": "bytes32"
        },
        {
          "internalType": "address",
          "name": "account",
          "type": "address"
        }
      ],
      "name": "grantRole",
      "outputs": [],
      "stateMutability": "nonpayable",
      "type": "function"
    },
    {
      "inputs": [
        {
          "internalType": "bytes32",
          "name": "role",
          "type": "bytes32"
        },
        {
          "internalType": "address",
          "name": "account",
          "type": "address"
        }
      ],
      "name": "hasRole",
      "outputs": [
        {
          "internalType": "bool",
          "name": "",
          "type": "bool"
        }
      ],
      "stateMutability": "view",
      "type": "function"
    },
    {
      "inputs": [
        {
          "internalType": "uint256",
          "name": "",
          "type": "uint256"
        }
      ],
      "name": "mArts",
      "outputs": [
        {
          "internalType": "uint256",
          "name": "startTime",
          "type": "uint256"
        },
        {
          "internalType": "uint256",
          "name": "endTime",
          "type": "uint256"
        },
        {
          "internalType": "uint256",
          "name": "consumToken",
          "type": "uint256"
        },
        {
          "internalType": "uint32",
          "name": "momentIndex",
          "type": "uint32"
        },
        {
          "internalType": "uint8",
          "name": "state",
          "type": "uint8"
        }
      ],
      "stateMutability": "view",
      "type": "function"
    },
    {
      "inputs": [
        {
          "internalType": "uint256",
          "name": "",
          "type": "uint256"
        }
      ],
      "name": "mMoments",
      "outputs": [
        {
          "internalType": "uint256",
          "name": "artId",
          "type": "uint256"
        },
        {
          "internalType": "uint256",
          "name": "momentIndex",
          "type": "uint256"
        }
      ],
      "stateMutability": "view",
      "type": "function"
    },
    {
      "inputs": [],
      "name": "owner",
      "outputs": [
        {
          "internalType": "address",
          "name": "",
          "type": "address"
        }
      ],
      "stateMutability": "view",
      "type": "function"
    },
    {
      "inputs": [],
      "name": "paused",
      "outputs": [
        {
          "internalType": "bool",
          "name": "",
          "type": "bool"
        }
      ],
      "stateMutability": "view",
      "type": "function"
    },
    {
      "inputs": [],
      "name": "renounceOwnership",
      "outputs": [],
      "stateMutability": "nonpayable",
      "type": "function"
    },
    {
      "inputs": [
        {
          "internalType": "bytes32",
          "name": "role",
          "type": "bytes32"
        },
        {
          "internalType": "address",
          "name": "account",
          "type": "address"
        }
      ],
      "name": "renounceRole",
      "outputs": [],
      "stateMutability": "nonpayable",
      "type": "function"
    },
    {
      "inputs": [
        {
          "internalType": "bytes32",
          "name": "role",
          "type": "bytes32"
        },
        {
          "internalType": "address",
          "name": "account",
          "type": "address"
        }
      ],
      "name": "revokeRole",
      "outputs": [],
      "stateMutability": "nonpayable",
      "type": "function"
    },
    {
      "inputs": [
        {
          "internalType": "bytes4",
          "name": "interfaceId",
          "type": "bytes4"
        }
      ],
      "name": "supportsInterface",
      "outputs": [
        {
          "internalType": "bool",
          "name": "",
          "type": "bool"
        }
      ],
      "stateMutability": "view",
      "type": "function"
    },
    {
      "inputs": [
        {
          "internalType": "address",
          "name": "newOwner",
          "type": "address"
        }
      ],
      "name": "transferOwnership",
      "outputs": [],
      "stateMutability": "nonpayable",
      "type": "function"
    },
    {
      "inputs": [],
      "name": "pause",
      "outputs": [],
      "stateMutability": "nonpayable",
      "type": "function"
    },
    {
      "inputs": [],
      "name": "unpause",
      "outputs": [],
      "stateMutability": "nonpayable",
      "type": "function"
    },
    {
      "inputs": [],
      "name": "getZoraMarketAddress",
      "outputs": [
        {
          "internalType": "address",
          "name": "",
          "type": "address"
        }
      ],
      "stateMutability": "view",
      "type": "function"
    },
    {
      "inputs": [
        {
          "internalType": "address",
          "name": "zoraMarket",
          "type": "address"
        }
      ],
      "name": "setZoraMarketAddress",
      "outputs": [],
      "stateMutability": "nonpayable",
      "type": "function"
    },
    {
      "inputs": [
        {
          "internalType": "uint256",
          "name": "uMomentId",
          "type": "uint256"
        }
      ],
      "name": "getMoment",
      "outputs": [
        {
          "internalType": "uint24[1024]",
          "name": "colors",
          "type": "uint24[1024]"
        },
        {
          "internalType": "uint256",
          "name": "momentIndex",
          "type": "uint256"
        },
        {
          "internalType": "uint256",
          "name": "artId",
          "type": "uint256"
        }
      ],
      "stateMutability": "view",
      "type": "function"
    },
    {
      "inputs": [
        {
          "internalType": "uint256",
          "name": "uMomentId",
          "type": "uint256"
        }
      ],
      "name": "getMomentColors",
      "outputs": [
        {
          "internalType": "uint24[1024]",
          "name": "",
          "type": "uint24[1024]"
        }
      ],
      "stateMutability": "view",
      "type": "function"
    },
    {
      "inputs": [],
      "name": "getDefaultAuctionInfo",
      "outputs": [
        {
          "internalType": "uint256",
          "name": "",
          "type": "uint256"
        },
        {
          "internalType": "address",
          "name": "",
          "type": "address"
        },
        {
          "internalType": "uint256",
          "name": "",
          "type": "uint256"
        }
      ],
      "stateMutability": "view",
      "type": "function"
    },
    {
      "inputs": [
        {
          "internalType": "uint256",
          "name": "duration",
          "type": "uint256"
        },
        {
          "internalType": "address",
          "name": "currency",
          "type": "address"
        },
        {
          "internalType": "uint256",
          "name": "price",
          "type": "uint256"
        }
      ],
      "name": "setDefaultAuctionInfo",
      "outputs": [],
      "stateMutability": "nonpayable",
      "type": "function"
    },
    {
      "inputs": [
        {
          "internalType": "uint256",
          "name": "nftId",
          "type": "uint256"
        }
      ],
      "name": "getArtAuctionAddress",
      "outputs": [
        {
          "internalType": "address",
          "name": "",
          "type": "address"
        }
      ],
      "stateMutability": "view",
      "type": "function"
    },
    {
      "inputs": [
        {
          "internalType": "uint256",
          "name": "tokenIndex",
          "type": "uint256"
        },
        {
          "internalType": "address",
          "name": "to",
          "type": "address"
        },
        {
          "internalType": "uint256",
          "name": "amount",
          "type": "uint256"
        }
      ],
      "name": "withdrawAdminFee",
      "outputs": [],
      "stateMutability": "nonpayable",
      "type": "function"
    },
    {
      "inputs": [
        {
          "internalType": "uint256",
          "name": "nftId",
          "type": "uint256"
        },
        {
          "internalType": "address",
          "name": "to",
          "type": "address"
        },
        {
          "internalType": "uint256",
          "name": "amount",
          "type": "uint256"
        }
      ],
      "name": "withdrawCuratorFee",
      "outputs": [],
      "stateMutability": "nonpayable",
      "type": "function"
    },
    {
      "inputs": [
        {
          "internalType": "uint256",
          "name": "nftId",
          "type": "uint256"
        },
        {
          "internalType": "address",
          "name": "auctionCurrency",
          "type": "address"
        }
      ],
      "name": "setAuctionCurrency",
      "outputs": [],
      "stateMutability": "nonpayable",
      "type": "function"
    },
    {
      "inputs": [
        {
          "internalType": "uint256",
          "name": "nftId",
          "type": "uint256"
        },
        {
          "internalType": "uint256",
          "name": "duration",
          "type": "uint256"
        },
        {
          "internalType": "uint256",
          "name": "reservePrice",
          "type": "uint256"
        }
      ],
      "name": "createArtAuctionAndApproval",
      "outputs": [
        {
          "internalType": "uint256",
          "name": "",
          "type": "uint256"
        }
      ],
      "stateMutability": "nonpayable",
      "type": "function"
    },
    {
      "inputs": [
        {
          "internalType": "uint256",
          "name": "nftId",
          "type": "uint256"
        }
      ],
      "name": "getArtAuctionInfo",
      "outputs": [
        {
          "internalType": "uint256",
          "name": "auctionId",
          "type": "uint256"
        },
        {
          "internalType": "uint256",
          "name": "reservePrice",
          "type": "uint256"
        },
        {
          "internalType": "uint256",
          "name": "beginTime",
          "type": "uint256"
        },
        {
          "internalType": "uint256",
          "name": "duration",
          "type": "uint256"
        },
        {
          "internalType": "address",
          "name": "owner",
          "type": "address"
        },
        {
          "internalType": "address",
          "name": "auctionCurrency",
          "type": "address"
        },
        {
          "internalType": "uint8",
          "name": "state",
          "type": "uint8"
        },
        {
          "internalType": "bool",
          "name": "approved",
          "type": "bool"
        }
      ],
      "stateMutability": "view",
      "type": "function"
    },
    {
      "inputs": [
        {
          "internalType": "uint256",
          "name": "nftId",
          "type": "uint256"
        },
        {
          "internalType": "address",
          "name": "contributor",
          "type": "address"
        }
      ],
      "name": "getNftPorfitInfo",
      "outputs": [
        {
          "internalType": "uint256",
          "name": "contributorShareOfThisNft",
          "type": "uint256"
        },
        {
          "internalType": "uint256",
          "name": "contributorShareOfAllNft",
          "type": "uint256"
        },
        {
          "internalType": "uint256",
          "name": "totalSharesOfThisNft",
          "type": "uint256"
        },
        {
          "internalType": "uint256",
          "name": "totalSharesOfAllNft",
          "type": "uint256"
        },
        {
          "internalType": "uint256",
          "name": "amount",
          "type": "uint256"
        }
      ],
      "stateMutability": "view",
      "type": "function"
    },
    {
      "inputs": [
        {
          "internalType": "uint256",
          "name": "nftId",
          "type": "uint256"
        },
        {
          "internalType": "bool",
          "name": "approved",
          "type": "bool"
        }
      ],
      "name": "setArtAuctionApproval",
      "outputs": [],
      "stateMutability": "nonpayable",
      "type": "function"
    },
    {
      "inputs": [
        {
          "internalType": "uint256",
          "name": "nftId",
          "type": "uint256"
        },
        {
          "internalType": "uint256",
          "name": "reservePrice",
          "type": "uint256"
        }
      ],
      "name": "setArtAuctionReservePrice",
      "outputs": [],
      "stateMutability": "nonpayable",
      "type": "function"
    },
    {
      "inputs": [
        {
          "internalType": "uint256",
          "name": "nftId",
          "type": "uint256"
        }
      ],
      "name": "cancelArtAuction",
      "outputs": [],
      "stateMutability": "nonpayable",
      "type": "function"
    },
    {
      "inputs": [
        {
          "internalType": "uint256",
          "name": "nftId",
          "type": "uint256"
        }
      ],
      "name": "endArtAuction",
      "outputs": [],
      "stateMutability": "nonpayable",
      "type": "function"
    },
    {
      "inputs": [
        {
          "internalType": "uint256",
          "name": "nftId",
          "type": "uint256"
        },
        {
          "internalType": "address",
          "name": "contributor",
          "type": "address"
        }
      ],
      "name": "claimeArtAuctionFee",
      "outputs": [],
      "stateMutability": "nonpayable",
      "type": "function"
    },
    {
      "inputs": [
        {
          "internalType": "uint256",
          "name": "index",
          "type": "uint256"
        }
      ],
      "name": "getConsumeToken",
      "outputs": [
        {
          "internalType": "address",
          "name": "token",
          "type": "address"
        },
        {
          "internalType": "uint256",
          "name": "basePrice",
          "type": "uint256"
        }
      ],
      "stateMutability": "view",
      "type": "function"
    },
    {
      "inputs": [
        {
          "internalType": "uint256",
          "name": "index",
          "type": "uint256"
        },
        {
          "internalType": "contract IERC20",
          "name": "token",
          "type": "address"
        },
        {
          "internalType": "uint256",
          "name": "basePrice",
          "type": "uint256"
        }
      ],
      "name": "setOrAddConsumeToken",
      "outputs": [],
      "stateMutability": "nonpayable",
      "type": "function"
    },
    {
      "inputs": [
        {
          "internalType": "uint256",
          "name": "endTime",
          "type": "uint256"
        }
      ],
      "name": "startNewArt",
      "outputs": [
        {
          "internalType": "uint256",
          "name": "nftId",
          "type": "uint256"
        }
      ],
      "stateMutability": "nonpayable",
      "type": "function"
    },
    {
      "inputs": [
        {
          "internalType": "uint256",
          "name": "nftId",
          "type": "uint256"
        },
        {
          "internalType": "uint256",
          "name": "endTime",
          "type": "uint256"
        }
      ],
      "name": "setEndTime",
      "outputs": [],
      "stateMutability": "nonpayable",
      "type": "function"
    },
    {
      "inputs": [
        {
          "internalType": "uint256",
          "name": "nftId",
          "type": "uint256"
        }
      ],
      "name": "endArt",
      "outputs": [],
      "stateMutability": "nonpayable",
      "type": "function"
    },
    {
      "inputs": [
        {
          "internalType": "uint256",
          "name": "nftId",
          "type": "uint256"
        }
      ],
      "name": "getArt",
      "outputs": [
        {
          "internalType": "uint256",
          "name": "consumToken",
          "type": "uint256"
        },
        {
          "internalType": "uint32",
          "name": "momentIndex",
          "type": "uint32"
        },
        {
          "internalType": "uint24[1024]",
          "name": "colors",
          "type": "uint24[1024]"
        },
        {
          "internalType": "uint256[1024]",
          "name": "price",
          "type": "uint256[1024]"
        },
        {
          "internalType": "uint8",
          "name": "state",
          "type": "uint8"
        },
        {
          "internalType": "uint256[]",
          "name": "moments",
          "type": "uint256[]"
        },
        {
          "internalType": "uint256",
          "name": "startTime",
          "type": "uint256"
        },
        {
          "internalType": "uint256",
          "name": "endTime",
          "type": "uint256"
        }
      ],
      "stateMutability": "view",
      "type": "function"
    },
    {
      "inputs": [],
      "name": "getOpenArts",
      "outputs": [
        {
          "internalType": "uint256[]",
          "name": "nftIds",
          "type": "uint256[]"
        }
      ],
      "stateMutability": "view",
      "type": "function"
    },
    {
      "inputs": [],
      "name": "getEndArts",
      "outputs": [
        {
          "internalType": "uint256[]",
          "name": "",
          "type": "uint256[]"
        }
      ],
      "stateMutability": "view",
      "type": "function"
    },
    {
      "inputs": [],
      "name": "getAllArts",
      "outputs": [
        {
          "internalType": "uint256[]",
          "name": "nftIds",
          "type": "uint256[]"
        }
      ],
      "stateMutability": "view",
      "type": "function"
    },
    {
      "inputs": [
        {
          "internalType": "uint256",
          "name": "nftId",
          "type": "uint256"
        },
        {
          "internalType": "uint256",
          "name": "pixelIndex",
          "type": "uint256"
        },
        {
          "internalType": "uint256",
          "name": "tokenIndex",
          "type": "uint256"
        }
      ],
      "name": "getDrawPrice",
      "outputs": [
        {
          "internalType": "uint256",
          "name": "",
          "type": "uint256"
        }
      ],
      "stateMutability": "view",
      "type": "function"
    },
    {
      "inputs": [
        {
          "internalType": "uint256",
          "name": "tokenIndex",
          "type": "uint256"
        },
        {
          "internalType": "uint256",
          "name": "nftId",
          "type": "uint256"
        },
        {
          "internalType": "uint256",
          "name": "index",
          "type": "uint256"
        },
        {
          "internalType": "uint24",
          "name": "color",
          "type": "uint24"
        },
        {
          "internalType": "uint256",
          "name": "bidPrice",
          "type": "uint256"
        }
      ],
      "name": "drawPixel",
      "outputs": [],
      "stateMutability": "nonpayable",
      "type": "function"
    }
  ],
  "bytecode": "0x60806040526000600d553480156200001657600080fd5b5060405162006086380380620060868339810160408190526200003991620001ef565b6200004433620000d0565b6001805460ff60a01b191681556002556200006160003362000122565b6200008d7fa49807205ce4d355092ef5a8a18f56e8913cf4a201fbe287825b095693c217753362000122565b600b80546001600160a01b039485166001600160a01b031991821617909155600c8054938516938216939093179092556003805491909316911617905562000239565b600180546001600160a01b038381166001600160a01b0319831681179093556040519116919082907f8be0079c531659141344cd1fd0a4f28419497f9722a3daafe3b4186f6b6457e090600090a35050565b6200012e828262000132565b5050565b6000828152602081815260408083206001600160a01b038516845290915290205460ff166200012e576000828152602081815260408083206001600160a01b03851684529091529020805460ff191660011790556200018e3390565b6001600160a01b0316816001600160a01b0316837f2f8788117e7eff1d82e926ec794901d17c78024a50270940304540a733656f0d60405160405180910390a45050565b80516001600160a01b0381168114620001ea57600080fd5b919050565b6000806000606084860312156200020557600080fd5b6200021084620001d2565b92506200022060208501620001d2565b91506200023060408501620001d2565b90509250925092565b615e3d80620002496000396000f3fe60806040523480156200001157600080fd5b5060043610620002495760003560e01c80629e7600146200024e57806301ffc9a7146200026757806306615f1314620002935780630bedb46414620002aa5780631001302214620002c157806317e7da7b14620002d8578063248a9ca314620002fe578063269b3ad414620003245780632af8f25f146200033b5780632bb16c6914620003525780632f2ff15d146200036b578063335d8d6f1462000382578063361a328214620003b557806336568abe14620003cc5780633f4ba83a14620003e357806345c5e1c314620003ed5780634bc5d26714620004695780634e22520c1462000490578063557a2d2014620004cb5780635633fc7014620004f35780635968bf42146200052d5780635c975abb146200053757806366ebce12146200054157806370e55f151462000558578063715018a6146200056f57806374a8883214620005795780638456cb5914620005905780638a6d4ad4146200059a5780638c4796c714620005b15780638da5cb5b14620005de57806391d1485414620005e8578063a217fddf14620005ff578063a27b429d1462000608578063abfbac4b1462000612578063bd1e50111462000629578063d547741f1462000656578063d93ea2a6146200066d578063dd5c55d11462000684578063e987a3ac14620006c4578063ea6402d31462000728578063f028ae04146200073f578063f20c09671462000751578063f2fde38b1462000768578063f79e8bc3146200077f578063f822035b1462000796578063ffcc12c414620007ad575b600080fd5b620002656200025f36600462002e26565b620007c4565b005b6200027e6200027836600462002e61565b62000995565b60405190151581526020015b60405180910390f35b62000265620002a436600462002e8d565b620009cd565b62000265620002bb36600462002ea7565b62000a4b565b62000265620002d236600462002e26565b62000ad2565b620002ef620002e936600462002e8d565b62000b07565b6040516200028a919062002efb565b620003156200030f36600462002e8d565b62000b84565b6040519081526020016200028a565b620003156200033536600462002f0c565b62000b99565b620002656200034c36600462002e8d565b62000c51565b6200035c62000cce565b6040516200028a919062002f76565b620002656200037c36600462002f8b565b62000de9565b620002656200039336600462002fbe565b600380546001600160a01b0319166001600160a01b0392909216919091179055565b62000315620003c636600462002e8d565b62000e11565b62000265620003dd36600462002f8b565b62000e33565b6200026562000eb1565b62000437620003fe36600462002e8d565b60076020526000908152604090208054600182015460028301546003909301549192909163ffffffff811690600160201b900460ff1685565b6040805195865260208601949094529284019190915263ffffffff16606083015260ff16608082015260a0016200028a565b620004806200047a36600462002e8d565b62000ec7565b6040516200028a92919062002fde565b620004bc620004a136600462002e8d565b6009602052600090815260409020546001600160a01b031681565b6040516200028a919062002ff7565b620004e2620004dc36600462002e8d565b62000f5e565b6040516200028a939291906200300b565b6200051d6200050436600462002e8d565b6008602052600090815260409020805460019091015482565b6040516200028a9291906200302f565b6200035c62000fe5565b6200027e6200103f565b620002656200055236600462002e8d565b6200104f565b620003156200056936600462002e8d565b620010af565b62000265620011a7565b620002656200058a36600462002f8b565b620011e7565b62000265620012c8565b62000265620005ab3660046200303d565b620012dc565b620005c8620005c236600462002e8d565b6200174d565b6040516200028a98979695949392919062003090565b620004bc620018a8565b6200027e620005f936600462002f8b565b620018b7565b62000315600081565b6200035c620018e0565b620002656200062336600462002ea7565b620019bc565b600554600454600654604080519384526001600160a01b039092166020840152908201526060016200028a565b620002656200066736600462002f8b565b62001a83565b620004bc6200067e36600462002e8d565b62001aa6565b6200069b6200069536600462002f8b565b62001ab3565b604080519586526020860194909452928401919091526060830152608082015260a0016200028a565b620006db620006d536600462002e8d565b62001b6f565b6040805198895260208901979097529587019490945260608601929092526001600160a01b0390811660808601521660a084015260ff1660c0830152151560e0820152610100016200028a565b620002656200073936600462002e26565b62001c27565b6003546001600160a01b0316620004bc565b620002656200076236600462002e26565b62001cf7565b620002656200077936600462002fbe565b62001e30565b620003156200079036600462002f0c565b62001ed9565b62000265620007a736600462002f8b565b62001f7c565b62000265620007be3660046200312e565b62001fcf565b600280541415620007f25760405162461bcd60e51b8152600401620007e99062003156565b60405180910390fd5b600280556200080062002023565b600e548310620008385760405162461bcd60e51b8152602060048201526002602482015261544960f01b6044820152606401620007e9565b6000600e84815481106200085057620008506200318d565b60009182526020822001546040516370a0823160e01b81526001600160a01b03909116925082906370a08231906200088d90309060040162002ff7565b60206040518083038186803b158015620008a657600080fd5b505afa158015620008bb573d6000803e3d6000fd5b505050506040513d601f19601f82011682018060405250810190620008e19190620031a3565b9050600081116200091a5760405162461bcd60e51b8152602060048201526002602482015261424160f01b6044820152606401620007e9565b6001600160a01b0384166200092d573393505b826200093c5780925062000973565b80831115620009735760405162461bcd60e51b8152602060048201526002602482015261414d60f01b6044820152606401620007e9565b620009896001600160a01b038316858562002082565b50506001600255505050565b60006001600160e01b03198216637965db0b60e01b1480620009c757506301ffc9a760e01b6001600160e01b03198316145b92915050565b620009d881620020dc565b60008181526007602052604090206003810154600160201b900460ff16600114801562000a09575080600101544210155b62000a3c5760405162461bcd60e51b8152602060048201526002602482015261454160f01b6044820152606401620007e9565b62000a478262002122565b5050565b62000a5562002023565b62000a6082620020dc565b600062000a6d8362002385565b604051632bde435960e21b8152600481018490529091506001600160a01b0382169063af790d64906024015b600060405180830381600087803b15801562000ab457600080fd5b505af115801562000ac9573d6000803e3d6000fd5b50505050505050565b62000adc62002023565b600592909255600480546001600160a01b0319166001600160a01b0392909216919091179055600655565b62000b1162002d83565b600082815260086020526040808220815161800081019283905290929091600284019161040091908390855b82829054906101000a900462ffffff1662ffffff168152602001906003019060208260020104928301926001038202915080841162000b3d57509498975050505050505050565b60009081526020819052604090206001015490565b600062000ba562002023565b62000bb084620020dc565b600062000bbd8562002385565b60405163034b9c0d60e11b81529091506001600160a01b03821690630697381a9062000bf090879087906004016200302f565b602060405180830381600087803b15801562000c0b57600080fd5b505af115801562000c20573d6000803e3d6000fd5b505050506040513d601f19601f8201168201806040525081019062000c469190620031a3565b9150505b9392505050565b62000c5b62002023565b62000c6681620020dc565b600062000c738262002385565b9050806001600160a01b031663eb9ce95f6040518163ffffffff1660e01b8152600401600060405180830381600087803b15801562000cb157600080fd5b505af115801562000cc6573d6000803e3d6000fd5b505050505050565b6060600060015b600d54811162000d2457600081815260076020526040902060030154600160201b900460ff161562000d11578162000d0d81620031d3565b9250505b62000d1c81620031d3565b905062000cd5565b50806001600160401b0381111562000d405762000d40620031f1565b60405190808252806020026020018201604052801562000d6a578160200160208202803683370190505b5091506000905060015b600d54811162000de457600081815260076020526040902060030154600160201b900460ff161562000dd1578083838151811062000db65762000db66200318d565b60209081029190910101528162000dcd81620031d3565b9250505b62000ddc81620031d3565b905062000d74565b505090565b62000df48262000b84565b62000e008133620023ec565b62000e0c83836200245b565b505050565b600a818154811062000e2257600080fd5b600091825260209091200154905081565b6001600160a01b038116331462000ea55760405162461bcd60e51b815260206004820152602f60248201527f416363657373436f6e74726f6c3a2063616e206f6e6c792072656e6f756e636560448201526e103937b632b9903337b91039b2b63360891b6064820152608401620007e9565b62000a478282620024e3565b62000ebb62002023565b62000ec56200254b565b565b600e546000908190831062000f055760405162461bcd60e51b815260206004820152600360248201526211d0d560ea1b6044820152606401620007e9565b600e838154811062000f1b5762000f1b6200318d565b600091825260209091200154600f80546001600160a01b039092169350908490811062000f4c5762000f4c6200318d565b90600052602060002001549050915091565b62000f6862002d83565b600082815260086020526040808220815161800081019283905283926002830190610400908286855b82829054906101000a900462ffffff1662ffffff168152602001906003019060208260020104928301926001038202915080841162000f915750505050600184015493549298939750919550919350505050565b6060600a8054806020026020016040519081016040528092919081815260200182805480156200103557602002820191906000526020600020905b81548152602001906001019080831162001020575b5050505050905090565b600154600160a01b900460ff1690565b6200105962002023565b6200106481620020dc565b6000620010718262002385565b9050806001600160a01b0316637aa9af036040518163ffffffff1660e01b8152600401600060405180830381600087803b15801562000cb157600080fd5b6000620010bb62002023565b610400600d54108015620010ce57508142105b620011025760405162461bcd60e51b8152602060048201526003602482015262534e4160e81b6044820152606401620007e9565b600d80549060006200111483620031d3565b9091555050600d54600081815260076020526040902060038101805460ff60201b1916600160201b1790554281556001810184905590915081620011553390565b6001600160a01b03167f60bf53483d504e50792c2eaf88b41222889d7d0a4251a32eabd522615086013183600001548460010154604051620011999291906200302f565b60405180910390a350919050565b33620011b2620018a8565b6001600160a01b031614620011db5760405162461bcd60e51b8152600401620007e99062003207565b62000ec56000620025e3565b6002805414156200120c5760405162461bcd60e51b8152600401620007e99062003156565b600280556200121b82620020dc565b6001600160a01b0381166200122d5750335b6000806200123c848462002635565b9150915060006200124d8562002385565b604051631d29df8d60e11b81526001600160a01b038681166004830152602482018690526044820185905291925090821690633a53bf1a90606401600060405180830381600087803b158015620012a357600080fd5b505af1158015620012b8573d6000803e3d6000fd5b5050600160025550505050505050565b620012d262002023565b62000ec5620028be565b620012e784620020dc565b61040083108015620012fa5750600e5485105b6200132e5760405162461bcd60e51b815260206004820152600360248201526244503160e81b6044820152606401620007e9565b60008481526007602052604090206003810154600160201b900460ff1660011480156200135f575080600101544211155b620013935760405162461bcd60e51b815260206004820152600360248201526222281960e91b6044820152606401620007e9565b6000600e8781548110620013ab57620013ab6200318d565b6000918252602082200154600f80546001600160a01b0390921693506200140b918a908110620013df57620013df6200318d565b9060005260206000200154846004018861040081106200140357620014036200318d565b015462002946565b9050806001600160a01b0383166370a08231336040518263ffffffff1660e01b81526004016200143c919062002ff7565b60206040518083038186803b1580156200145557600080fd5b505afa1580156200146a573d6000803e3d6000fd5b505050506040513d601f19601f82011682018060405250810190620014909190620031a3565b101580156200149f5750808410155b620014d35760405162461bcd60e51b815260206004820152600360248201526244503360e81b6044820152606401620007e9565b6001600160a01b0382166323b872dd336040516001600160e01b031960e084901b1681526001600160a01b03909116600482015230602482015260448101849052606401602060405180830381600087803b1580156200153257600080fd5b505af115801562001547573d6000803e3d6000fd5b505050506040513d601f19601f820116820180604052508101906200156d91906200323c565b50808360020160008282546200158491906200325c565b9091555081905060048401876104008110620015a457620015a46200318d565b0155846104058401876104008110620015c157620015c16200318d565b600a91828204019190066003026101000a81548162ffffff021916908362ffffff1602179055506000600c60009054906101000a90046001600160a01b03166001600160a01b0316631f633639620016163390565b6040518263ffffffff1660e01b815260040162001634919062002ff7565b602060405180830381600087803b1580156200164f57600080fd5b505af115801562001664573d6000803e3d6000fd5b505050506040513d601f19601f820116820180604052508101906200168a9190620031a3565b6104048501805460038701805463ffffffff191663ffffffff8316179055600181018255600091825260208083209091018390558282526008905260409020909150620016e260028201610405870161040062002da3565b50600385015463ffffffff1660018201558881556040805189815262ffffff89166020820152808201889052905183918b9133917fd520bf153b23c8f33d7b3bab58dfcbb699828f75243740dc3ce918a1809c22a8919081900360600190a450505050505050505050565b6000806200175a62002d83565b6200176462002d83565b60008581526007602052604080822060028101546003820154835161800081019485905291985063ffffffff169650606092849283929091610405830190610400908286855b82829054906101000a900462ffffff1662ffffff1681526020019060030190602082600201049283019260010382029150808411620017aa57505060408051618000810191829052959c5060048701945061040093509150839050845b81548152602001906001019080831162001807575050505050955080610404018054806020026020016040519081016040528092919081815260200182805480156200187357602002820191906000526020600020905b8154815260200190600101908083116200185e575b505050505093508060030160049054906101000a900460ff169450806000015492508060010154915050919395975091939597565b6001546001600160a01b031690565b6000918252602082815260408084206001600160a01b0393909316845291905290205460ff1690565b600a54600d54606091600091620018f8919062003277565b9050806001600160401b03811115620019155762001915620031f1565b6040519080825280602002602001820160405280156200193f578160200160208202803683370190505b5091506000905060015b600d54811162000de457600081815260076020526040902060030154600160201b900460ff1660011415620019a957808383815181106200198e576200198e6200318d565b602090810291909101015281620019a581620031d3565b9250505b620019b481620031d3565b905062001949565b620019c662002023565b620019d182620020dc565b60008281526007602052604090206003810154600160201b900460ff166001148015620019fe5750805482115b62001a325760405162461bcd60e51b815260206004820152600360248201526214d15560ea1b6044820152606401620007e9565b60018101829055604051828152839033907f73074df335e2ffa7bcee271f32f3c5f0ec35e4457e99aabbef1c8f0539d69e299060200160405180910390a342821162000e0c5762000e0c8362002122565b62001a8e8262000b84565b62001a9a8133620023ec565b62000e0c8383620024e3565b6000620009c78262002385565b600080600080600062001ac687620020dc565b600062001ad38862002385565b905062001ae1888862002635565b8096508197505050806001600160a01b03166365a5cd146040518163ffffffff1660e01b815260040160606040518083038186803b15801562001b2357600080fd5b505afa15801562001b38573d6000803e3d6000fd5b505050506040513d601f19601f8201168201806040525081019062001b5e919062003291565b979a96995090975095949350505050565b60008060008060008060008062001b8689620020dc565b600062001b938a62002385565b9050806001600160a01b031663e68edea56040518163ffffffff1660e01b81526004016101006040518083038186803b15801562001bd057600080fd5b505afa15801562001be5573d6000803e3d6000fd5b505050506040513d601f19601f8201168201806040525081019062001c0b9190620032c0565b9850985098509850985098509850985050919395975091939597565b60028054141562001c4c5760405162461bcd60e51b8152600401620007e99062003156565b6002805562001c5a62002023565b62001c6583620020dc565b6001600160a01b03821662001c78573391505b600062001c858462002385565b6040516301bd642d60e61b81529091506001600160a01b03821690636f590b409062001cb8908690869060040162002fde565b600060405180830381600087803b15801562001cd357600080fd5b505af115801562001ce8573d6000803e3d6000fd5b50505050505050600160025550565b62001d0162002023565b6000811162001d395760405162461bcd60e51b815260206004820152600360248201526214d0d560ea1b6044820152606401620007e9565b600e5483101562001db15781600e848154811062001d5b5762001d5b6200318d565b9060005260206000200160006101000a8154816001600160a01b0302191690836001600160a01b0316021790555080600f848154811062001da05762001da06200318d565b600091825260209091200155505050565b600e805460018181019092557fbb7b4a454dc3493923482f07822329ed19e8244eff582cc204f8554c3620c3fd0180546001600160a01b0385166001600160a01b0319909116179055600f805491820181556000527f8d1108e10bcb7c27dddfc02ed9d693a074039d026cf4ea4240b40f7d581ac80201819055505050565b3362001e3b620018a8565b6001600160a01b03161462001e645760405162461bcd60e51b8152600401620007e99062003207565b6001600160a01b03811662001ecb5760405162461bcd60e51b815260206004820152602660248201527f4f776e61626c653a206e6577206f776e657220697320746865207a65726f206160448201526564647265737360d01b6064820152608401620007e9565b62001ed681620025e3565b50565b600062001ee684620020dc565b6104008310801562001ef95750600f5482105b62001f2d5760405162461bcd60e51b815260206004820152600360248201526204750560ec1b6044820152606401620007e9565b6000848152600760205260409020600f805462000c4691908590811062001f585762001f586200318d565b9060005260206000200154826004018661040081106200140357620014036200318d565b62001f8662002023565b62001f9182620020dc565b600062001f9e8362002385565b604051632cef8ebf60e01b81529091506001600160a01b03821690632cef8ebf9062000a9990859060040162002ff7565b62001fd962002023565b62001fe482620020dc565b600062001ff18362002385565b604051633d61fb3560e21b815283151560048201529091506001600160a01b0382169063f587ecd49060240162000a99565b6200204f7fa49807205ce4d355092ef5a8a18f56e8913cf4a201fbe287825b095693c2177533620018b7565b62000ec55760405162461bcd60e51b81526020600482015260026024820152614f4160f01b6044820152606401620007e9565b62000e0c8363a9059cbb60e01b8484604051602401620020a492919062002fde565b60408051601f198184030181529190526020810180516001600160e01b03166001600160e01b03199093169290921790915262002968565b600d548111158015620020ef5750600081115b62001ed65760405162461bcd60e51b8152602060048201526002602482015261139160f21b6044820152606401620007e9565b600081815260076020526040902060038101805460ff60201b1916600160211b179055610404810154156200235457600a805460018101825560009182527fc65a7bb8d6351c1cf70c95a316cc6a92839c986682d98bc35f958f4883f9d2a801839055600382015461040483018054909163ffffffff16908110620021ab57620021ab6200318d565b600091825260209091200154610404830154600b5460035460045460405188936001600160a01b03908116938116921690620021e79062002deb565b958652602086019490945260408501929092526001600160a01b03908116606085015290811660808401521660a082015260c001604051809103906000f08015801562002238573d6000803e3d6000fd5b506000848152600960205260409081902080546001600160a01b0319166001600160a01b0384811691909117909155600b5491516340c10f1960e01b815292935016906340c10f199062002293908490879060040162002fde565b600060405180830381600087803b158015620022ae57600080fd5b505af1158015620022c3573d6000803e3d6000fd5b505060055460065460405163034b9c0d60e11b81526001600160a01b0386169450630697381a9350620022fb9291906004016200302f565b602060405180830381600087803b1580156200231657600080fd5b505af11580156200232b573d6000803e3d6000fd5b505050506040513d601f19601f82011682018060405250810190620023519190620031a3565b50505b604051829033907f6a96f517d3ee81e33c73f21aaf526b9fdbe6e75ab253c205795ceebc9ebebf0b90600090a35050565b6000818152600960205260408120546001600160a01b0316620023d05760405162461bcd60e51b8152602060048201526002602482015261414160f01b6044820152606401620007e9565b506000908152600960205260409020546001600160a01b031690565b620023f88282620018b7565b62000a475762002413816001600160a01b0316601462002a41565b6200242083602062002a41565b6040516020016200243392919062003385565b60408051601f198184030181529082905262461bcd60e51b8252620007e991600401620033f8565b620024678282620018b7565b62000a47576000828152602081815260408083206001600160a01b03851684529091529020805460ff191660011790556200249f3390565b6001600160a01b0316816001600160a01b0316837f2f8788117e7eff1d82e926ec794901d17c78024a50270940304540a733656f0d60405160405180910390a45050565b620024ef8282620018b7565b1562000a47576000828152602081815260408083206001600160a01b0385168085529252808320805460ff1916905551339285917ff6391f5c32d9c69d2a47ea670b442974b53935d1edc7fd64eb21e047a839171b9190a45050565b620025556200103f565b6200259a5760405162461bcd60e51b815260206004820152601460248201527314185d5cd8589b194e881b9bdd081c185d5cd95960621b6044820152606401620007e9565b6001805460ff60a01b191690557f5db9ee0a495bf2e6ff9c91a7834c1ba4fdd244a5e8aa4e537bd38aeae4b073aa335b604051620025d9919062002ff7565b60405180910390a1565b600180546001600160a01b038381166001600160a01b0319831681179093556040519116919082907f8be0079c531659141344cd1fd0a4f28419497f9722a3daafe3b4186f6b6457e090600090a35050565b6000828152600760205260408120610404810154829190825b818110156200273b576000836104040182815481106200267257620026726200318d565b600091825260209091200154600c546040516331a9108f60e11b8152600481018390529192506001600160a01b031690636352211e9060240160206040518083038186803b158015620026c457600080fd5b505afa158015620026d9573d6000803e3d6000fd5b505050506040513d601f19601f82011682018060405250810190620026ff91906200342d565b6001600160a01b0316876001600160a01b0316141562002727576200272486620031d3565b95505b506200273381620031d3565b90506200264e565b5060038201546104048301805460009263ffffffff169081106200276357620027636200318d565b600091825260209091200154600c546040516370a0823160e01b81529192506001600160a01b0316906370a0823190620027a290899060040162002ff7565b60206040518083038186803b158015620027bb57600080fd5b505afa158015620027d0573d6000803e3d6000fd5b505050506040513d601f19601f82011682018060405250810190620027f69190620031a3565b915060005b82811015620028b357600c54604051632f745c5960e01b815283916001600160a01b031690632f745c599062002838908b90869060040162002fde565b60206040518083038186803b1580156200285157600080fd5b505afa15801562002866573d6000803e3d6000fd5b505050506040513d601f19601f820116820180604052508101906200288c9190620031a3565b11620028a0576200289d85620031d3565b94505b620028ab81620031d3565b9050620027fb565b505050509250929050565b620028c86200103f565b156200290a5760405162461bcd60e51b815260206004820152601060248201526f14185d5cd8589b194e881c185d5cd95960821b6044820152606401620007e9565b6001805460ff60a01b1916600160a01b1790557f62e78cea01bee320cd4e420270b5ea74000d11b0c9f74754ebdbfc544b05a258620025ca3390565b6000811562002961576200295b82806200325c565b62000c4a565b5090919050565b6000620029bf826040518060400160405280602081526020017f5361666545524332303a206c6f772d6c6576656c2063616c6c206661696c6564815250856001600160a01b031662002bfa9092919063ffffffff16565b80519091501562000e0c5780806020019051810190620029e091906200323c565b62000e0c5760405162461bcd60e51b815260206004820152602a60248201527f5361666545524332303a204552433230206f7065726174696f6e20646964206e6044820152691bdd081cdd58d8d9595960b21b6064820152608401620007e9565b6060600062002a528360026200344d565b62002a5f9060026200325c565b6001600160401b0381111562002a795762002a79620031f1565b6040519080825280601f01601f19166020018201604052801562002aa4576020820181803683370190505b509050600360fc1b8160008151811062002ac25762002ac26200318d565b60200101906001600160f81b031916908160001a905350600f60fb1b8160018151811062002af45762002af46200318d565b60200101906001600160f81b031916908160001a905350600062002b1a8460026200344d565b62002b279060016200325c565b90505b600181111562002ba9576f181899199a1a9b1b9c1cb0b131b232b360811b85600f166010811062002b5f5762002b5f6200318d565b1a60f81b82828151811062002b785762002b786200318d565b60200101906001600160f81b031916908160001a90535060049490941c9362002ba1816200346f565b905062002b2a565b50831562000c4a5760405162461bcd60e51b815260206004820181905260248201527f537472696e67733a20686578206c656e67746820696e73756666696369656e746044820152606401620007e9565b606062002c0b848460008562002c13565b949350505050565b60608247101562002c765760405162461bcd60e51b815260206004820152602660248201527f416464726573733a20696e73756666696369656e742062616c616e636520666f6044820152651c8818d85b1b60d21b6064820152608401620007e9565b843b62002cc65760405162461bcd60e51b815260206004820152601d60248201527f416464726573733a2063616c6c20746f206e6f6e2d636f6e74726163740000006044820152606401620007e9565b600080866001600160a01b0316858760405162002ce4919062003489565b60006040518083038185875af1925050503d806000811462002d23576040519150601f19603f3d011682016040523d82523d6000602084013e62002d28565b606091505b509150915062002d3a82828662002d45565b979650505050505050565b6060831562002d5657508162000c4a565b82511562002d675782518084602001fd5b8160405162461bcd60e51b8152600401620007e99190620033f8565b604051806180000160405280610400906020820280368337509192915050565b60678301918390821562002dd95791600901600a900482015b8281111562002dd957825482559160010191906001019062002dbc565b5062002de792915062002df9565b5090565b61296080620034a883390190565b5b8082111562002de7576000815560010162002dfa565b6001600160a01b038116811462001ed657600080fd5b60008060006060848603121562002e3c57600080fd5b83359250602084013562002e508162002e10565b929592945050506040919091013590565b60006020828403121562002e7457600080fd5b81356001600160e01b03198116811462000c4a57600080fd5b60006020828403121562002ea057600080fd5b5035919050565b6000806040838503121562002ebb57600080fd5b50508035926020909101359150565b8060005b61040081101562002ef557815162ffffff1684526020938401939091019060010162002ece565b50505050565b6180008101620009c7828462002eca565b60008060006060848603121562002f2257600080fd5b505081359360208301359350604090920135919050565b600081518084526020808501945080840160005b8381101562002f6b5781518752958201959082019060010162002f4d565b509495945050505050565b60208152600062000c4a602083018462002f39565b6000806040838503121562002f9f57600080fd5b82359150602083013562002fb38162002e10565b809150509250929050565b60006020828403121562002fd157600080fd5b813562000c4a8162002e10565b6001600160a01b03929092168252602082015260400190565b6001600160a01b0391909116815260200190565b61804081016200301c828662002eca565b6180008201939093526180200152919050565b918252602082015260400190565b600080600080600060a086880312156200305657600080fd5b853594506020860135935060408601359250606086013562ffffff811681146200307f57600080fd5b949793965091946080013592915050565b6000620100c08a8352602063ffffffff8b1681850152620030b5604085018b62002eca565b61804084018960005b610400811015620030de57815183529183019190830190600101620030be565b5050505060ff8716620100408401528062010060840152620031038184018762002f39565b620100808401959095525050620100a001529695505050505050565b801515811462001ed657600080fd5b600080604083850312156200314257600080fd5b82359150602083013562002fb3816200311f565b6020808252601f908201527f5265656e7472616e637947756172643a207265656e7472616e742063616c6c00604082015260600190565b634e487b7160e01b600052603260045260246000fd5b600060208284031215620031b657600080fd5b5051919050565b634e487b7160e01b600052601160045260246000fd5b6000600019821415620031ea57620031ea620031bd565b5060010190565b634e487b7160e01b600052604160045260246000fd5b6020808252818101527f4f776e61626c653a2063616c6c6572206973206e6f7420746865206f776e6572604082015260600190565b6000602082840312156200324f57600080fd5b815162000c4a816200311f565b60008219821115620032725762003272620031bd565b500190565b6000828210156200328c576200328c620031bd565b500390565b600080600060608486031215620032a757600080fd5b8351925060208401519150604084015190509250925092565b600080600080600080600080610100898b031215620032de57600080fd5b885197506020890151965060408901519550606089015194506080890151620033078162002e10565b60a08a01519094506200331a8162002e10565b60c08a015190935060ff811681146200333257600080fd5b60e08a015190925062003345816200311f565b809150509295985092959890939650565b60005b838110156200337357818101518382015260200162003359565b8381111562002ef55750506000910152565b76020b1b1b2b9b9a1b7b73a3937b61d1030b1b1b7bab73a1604d1b815260008351620033b981601785016020880162003356565b7001034b99036b4b9b9b4b733903937b6329607d1b6017918401918201528351620033ec81602884016020880162003356565b01602801949350505050565b60208152600082518060208401526200341981604085016020870162003356565b601f01601f19169190910160400192915050565b6000602082840312156200344057600080fd5b815162000c4a8162002e10565b60008160001904831182151516156200346a576200346a620031bd565b500290565b600081620034815762003481620031bd565b506000190190565b600082516200349d81846020870162003356565b919091019291505056fe610100604052600060018190556002819055600381905560001960055560068190556007556009805460ff60a01b191690553480156200003e57600080fd5b5060405162002960380380620029608339810160408190526200006191620002d4565b6200006c3362000267565b84861015620000a85760405162461bcd60e51b81526020600482015260036024820152625a413160e81b60448201526064015b60405180910390fd5b60008511620000e05760405162461bcd60e51b81526020600482015260036024820152622d209960e91b60448201526064016200009f565b83620001155760405162461bcd60e51b81526020600482015260036024820152625a413360e81b60448201526064016200009f565b6001600160a01b038316620001535760405162461bcd60e51b815260206004820152600360248201526216904d60ea1b60448201526064016200009f565b6001600160a01b038216620001915760405162461bcd60e51b81526020600482015260036024820152625a413560e81b60448201526064016200009f565b6001600160a01b038116620001cf5760405162461bcd60e51b81526020600482015260036024820152622d209b60e91b60448201526064016200009f565b60e086905260c085905260a08490526001600160a01b03808416608052600880548483166001600160a01b03199182168117909255600980549385169390911692909217909155604051859030907f8c5edb7c2391046bfc8bc616728badda79f6ad7060b02fbc8d01c4e2e4b744f09062000253908b908b9088906001906200033a565b60405180910390a450505050505062000385565b600080546001600160a01b038381166001600160a01b0319831681178455604051919092169283917f8be0079c531659141344cd1fd0a4f28419497f9722a3daafe3b4186f6b6457e09190a35050565b80516001600160a01b0381168114620002cf57600080fd5b919050565b60008060008060008060c08789031215620002ee57600080fd5b8651955060208701519450604087015193506200030e60608801620002b7565b92506200031e60808801620002b7565b91506200032e60a08801620002b7565b90509295509295509295565b848152602081018490526001600160a01b038316604082015260808101600283106200037657634e487b7160e01b600052602160045260246000fd5b82606083015295945050505050565b60805160a05160c05160e0516124a5620004bb6000396000818161091f01528181610b7201528181610bee0152610d770152600081816108c901528181610b9301528181610bb90152610d5501526000818161034c015281816104b00152818161051d0152818161063c0152818161072e0152818161098201528181610e59015281816111e50152818161131d015281816114010152818161145a015281816114f401528181611696015281816117060152818161185a0152818161199201528181611a7601528181611b880152611d280152600081816103750152818161047d0152818161054b01528181610757015281816109ab01528181610e820152818161120e015281816113430152818161151d0152818161173501528181611883015281816119b80152611bb101526124a56000f3fe608060405234801561001057600080fd5b50600436106100fc5760003560e01c806301ffc9a7146101015780630697381a146101295780630d5d61ff1461014a578063150b7a02146101525780631a1960021461017e57806325c8b100146101905780632cef8ebf146101985780632dd48909146101ad5780633a53bf1a146101bc578063659518cb146101cf57806365a5cd14146101e95780636f590b401461020c578063715018a61461021f5780637aa9af03146102275780638da5cb5b1461022f578063af790d6414610237578063e68edea51461024a578063eb9ce95f1461029e578063f2fde38b146102a6578063f587ecd4146102b9575b600080fd5b61011461010f366004612072565b6102cc565b60405190151581526020015b60405180910390f35b61013c61013736600461209c565b610303565b604051908152602001610120565b60065461013c565b6101656101603660046120d3565b610694565b6040516001600160e01b03199091168152602001610120565b600954600160a01b900460ff16610114565b60055461013c565b6101ab6101a6366004612171565b6106f0565b005b6001604051610120919061218e565b6101ab6101ca3660046121b6565b610862565b6009546001600160a01b03165b60405161012091906121eb565b6101f1610d40565b60408051938452602084019290925290820152606001610120565b6101ab61021a3660046121ff565b610e1b565b6101ab611132565b6101ab61116d565b6101dc6114a7565b6101ab61024536600461222b565b6114b6565b6102526116eb565b6040805198895260208901979097529587019490945260608601929092526001600160a01b0390811660808601521660a084015260ff1660c0830152151560e082015261010001610120565b6101ab61181c565b6101ab6102b4366004612171565b611aad565b6101ab6102c7366004612252565b611b4a565b60006001600160e01b03198216634d5f979d60e01b14806102fd57506001600160e01b03198216630a85bd0160e11b145b92915050565b60003361030e6114a7565b6001600160a01b03161461033d5760405162461bcd60e51b81526004016103349061226f565b60405180910390fd5b6040516331a9108f60e11b81527f000000000000000000000000000000000000000000000000000000000000000060048201526000907f00000000000000000000000000000000000000000000000000000000000000006001600160a01b031690636352211e9060240160206040518083038186803b1580156103bf57600080fd5b505afa1580156103d3573d6000803e3d6000fd5b505050506040513d601f19601f820116820180604052508101906103f791906122a4565b90506001600160a01b03811630146104215760405162461bcd60e51b8152600401610334906122c1565b6000841180156104315750600083115b6104635760405162461bcd60e51b815260206004820152600360248201526210d49560ea1b6044820152606401610334565b60085460405163095ea7b360e01b81526001600160a01b037f000000000000000000000000000000000000000000000000000000000000000081169263095ea7b3926104d89291909116907f0000000000000000000000000000000000000000000000000000000000000000906004016122de565b600060405180830381600087803b1580156104f257600080fd5b505af1158015610506573d6000803e3d6000fd5b50506008546009546040516375e9249f60e01b81527f000000000000000000000000000000000000000000000000000000000000000060048201526001600160a01b037f000000000000000000000000000000000000000000000000000000000000000081166024830152604482018a905260648201899052306084830152600060a483015291821660c4820152911692506375e9249f915060e401602060405180830381600087803b1580156105bc57600080fd5b505af11580156105d0573d6000803e3d6000fd5b505050506040513d601f19601f820116820180604052508101906105f491906122f7565b60058190556009805460ff60a01b198116600160a01b17909155600786905560068590554260015560408051878152602081018790526001600160a01b0390921682820152517f0000000000000000000000000000000000000000000000000000000000000000929130917fc45549f0e4cf2443f24ea372bf637de77f9a79286d871100d9b2ca5c6cf42d4d9181900360600190a4505060055492915050565b604080516001600160a01b03878116825286166020820152600091859130917f1d52835f1f2ba4874979a1111f60660fc541233b8c8506ff56331a93d4f3bbf7910160405180910390a350630a85bd0160e11b95945050505050565b336106f96114a7565b6001600160a01b03161461071f5760405162461bcd60e51b81526004016103349061226f565b6040516331a9108f60e11b81527f000000000000000000000000000000000000000000000000000000000000000060048201526000907f00000000000000000000000000000000000000000000000000000000000000006001600160a01b031690636352211e9060240160206040518083038186803b1580156107a157600080fd5b505afa1580156107b5573d6000803e3d6000fd5b505050506040513d601f19601f820116820180604052508101906107d991906122a4565b90506001600160a01b03811630146108035760405162461bcd60e51b8152600401610334906122c1565b6001600160a01b03821661083f5760405162461bcd60e51b815260206004820152600360248201526253414360e81b6044820152606401610334565b50600980546001600160a01b0319166001600160a01b0392909216919091179055565b3361086b6114a7565b6001600160a01b0316146108915760405162461bcd60e51b81526004016103349061226f565b808211156108c75760405162461bcd60e51b815260206004820152600360248201526243463160e81b6044820152606401610334565b7f000000000000000000000000000000000000000000000000000000000000000082111561091d5760405162461bcd60e51b815260206004820152600360248201526221a31960e91b6044820152606401610334565b7f00000000000000000000000000000000000000000000000000000000000000008111156109735760405162461bcd60e51b815260206004820152600360248201526243463360e81b6044820152606401610334565b6040516331a9108f60e11b81527f000000000000000000000000000000000000000000000000000000000000000060048201526000907f00000000000000000000000000000000000000000000000000000000000000006001600160a01b031690636352211e9060240160206040518083038186803b1580156109f557600080fd5b505afa158015610a09573d6000803e3d6000fd5b505050506040513d601f19601f82011682018060405250810190610a2d91906122a4565b90506001600160a01b0381163014801590610a5657506008546001600160a01b03828116911614155b610a885760405162461bcd60e51b815260206004820152600360248201526210d18d60ea1b6044820152606401610334565b6002546009546040516370a0823160e01b8152600092916001600160a01b0316906370a0823190610abd9030906004016121eb565b60206040518083038186803b158015610ad557600080fd5b505afa158015610ae9573d6000803e3d6000fd5b505050506040513d601f19601f82011682018060405250810190610b0d91906122f7565b610b179190612326565b90506000610400610b2983601861233e565b610b33919061235d565b90506000610400610b468461038461233e565b610b50919061235d565b9050600081610b5f848661237f565b610b69919061237f565b90506000610bb77f00000000000000000000000000000000000000000000000000000000000000007f000000000000000000000000000000000000000000000000000000000000000061233e565b7f0000000000000000000000000000000000000000000000000000000000000000610be2898561233e565b610bec919061233e565b7f0000000000000000000000000000000000000000000000000000000000000000610c178b8761233e565b610c21919061233e565b610c2b9190612326565b610c35919061235d565b6001600160a01b038a16600090815260046020526040902054909150808211610c865760405162461bcd60e51b815260206004820152600360248201526243463560e81b6044820152606401610334565b6001600160a01b038a166000908152600460205260408120839055610cab828461237f565b600954909150610cc5906001600160a01b03168c83611d7b565b8060026000828254610cd79190612326565b9091555050604080518b8152602081018b90528082018590526060810183905290516001600160a01b038d1691339130917f4566582938b305558bb10f22c677688d71552bcc0dadce57e7824903cd7cc146919081900360800190a45050505050505050505050565b6002546009546040516370a0823160e01b81527f0000000000000000000000000000000000000000000000000000000000000000927f0000000000000000000000000000000000000000000000000000000000000000926000926001600160a01b03909116906370a0823190610dba9030906004016121eb565b60206040518083038186803b158015610dd257600080fd5b505afa158015610de6573d6000803e3d6000fd5b505050506040513d601f19601f82011682018060405250810190610e0a91906122f7565b610e149190612326565b9050909192565b33610e246114a7565b6001600160a01b031614610e4a5760405162461bcd60e51b81526004016103349061226f565b6040516331a9108f60e11b81527f000000000000000000000000000000000000000000000000000000000000000060048201526000907f00000000000000000000000000000000000000000000000000000000000000006001600160a01b031690636352211e9060240160206040518083038186803b158015610ecc57600080fd5b505afa158015610ee0573d6000803e3d6000fd5b505050506040513d601f19601f82011682018060405250810190610f0491906122a4565b90506001600160a01b0381163014801590610f2d57506008546001600160a01b03828116911614155b610f5f5760405162461bcd60e51b815260206004820152600360248201526243433160e81b6044820152606401610334565b6002546009546040516370a0823160e01b8152600092916001600160a01b0316906370a0823190610f949030906004016121eb565b60206040518083038186803b158015610fac57600080fd5b505afa158015610fc0573d6000803e3d6000fd5b505050506040513d601f19601f82011682018060405250810190610fe491906122f7565b610fee9190612326565b9050600061040061100083601861233e565b61100a919061235d565b905060035481116110435760405162461bcd60e51b815260206004820152600360248201526221a19960e91b6044820152606401610334565b600060035482611053919061237f565b90508461106257809450611098565b808511156110985760405162461bcd60e51b815260206004820152600360248201526243433360e81b6044820152606401610334565b84600260008282546110aa9190612326565b9250508190555084600360008282546110c39190612326565b90915550506009546110df906001600160a01b03168787611d7b565b60035460408051918252602082018390526001600160a01b03881691339130917f18efe6100373ab727df879c33749655b5dfac48cc8b4643fb7eab563588128bc910160405180910390a4505050505050565b3361113b6114a7565b6001600160a01b0316146111615760405162461bcd60e51b81526004016103349061226f565b61116b6000611dd6565b565b336111766114a7565b6001600160a01b03161461119c5760405162461bcd60e51b81526004016103349061226f565b60001960055414156111d65760405162461bcd60e51b815260206004820152600360248201526221a0a760e91b6044820152606401610334565b6040516331a9108f60e11b81527f000000000000000000000000000000000000000000000000000000000000000060048201526000907f00000000000000000000000000000000000000000000000000000000000000006001600160a01b031690636352211e9060240160206040518083038186803b15801561125857600080fd5b505afa15801561126c573d6000803e3d6000fd5b505050506040513d601f19601f8201168201806040525081019061129091906122a4565b6008549091506001600160a01b03808316911614156113ca576008546005546040516396b5a75560e01b81526001600160a01b03909216916396b5a755916112de9160040190815260200190565b600060405180830381600087803b1580156112f857600080fd5b505af115801561130c573d6000803e3d6000fd5b50506040516331a9108f60e11b81527f000000000000000000000000000000000000000000000000000000000000000060048201527f00000000000000000000000000000000000000000000000000000000000000006001600160a01b03169250636352211e915060240160206040518083038186803b15801561138f57600080fd5b505afa1580156113a3573d6000803e3d6000fd5b505050506040513d601f19601f820116820180604052508101906113c791906122a4565b90505b6001600160a01b038116301415611439576000196005819055600060018190556009805460ff60a01b1916905560068190556040517f0000000000000000000000000000000000000000000000000000000000000000929130916000805160206124508339815191529190a450565b6008546001600160a01b03828116911614156114525750565b6005546040517f0000000000000000000000000000000000000000000000000000000000000000919030907f0c72989dca9e3717dbad24ce02230aca5198775f57ddc1bda3f98c87f07b295590600090a45b50565b6000546001600160a01b031690565b336114bf6114a7565b6001600160a01b0316146114e55760405162461bcd60e51b81526004016103349061226f565b6040516331a9108f60e11b81527f000000000000000000000000000000000000000000000000000000000000000060048201526000907f00000000000000000000000000000000000000000000000000000000000000006001600160a01b031690636352211e9060240160206040518083038186803b15801561156757600080fd5b505afa15801561157b573d6000803e3d6000fd5b505050506040513d601f19601f8201168201806040525081019061159f91906122a4565b6008549091506001600160a01b038083169116146115cf5760405162461bcd60e51b815260040161033490612396565b600019600554141580156115e35750600082115b6116185760405162461bcd60e51b8152600401610334906020808252600490820152630534152560e41b604082015260600190565b600854600554604051636f8a41e160e01b81526001600160a01b0390921691636f8a41e191611654918690600401918252602082015260400190565b600060405180830381600087803b15801561166e57600080fd5b505af1158015611682573d6000803e3d6000fd5b5050506006839055506005546040518381527f0000000000000000000000000000000000000000000000000000000000000000919030907f56980264b10fc174091400bd5ec20fec4f552c6a3e2279425c78be521d6d5074906020015b60405180910390a45050565b6005546006546001546007546040516331a9108f60e11b81527f000000000000000000000000000000000000000000000000000000000000000060048201526000908190819081907f00000000000000000000000000000000000000000000000000000000000000006001600160a01b031690636352211e9060240160206040518083038186803b15801561177f57600080fd5b505afa158015611793573d6000803e3d6000fd5b505050506040513d601f19601f820116820180604052508101906117b791906122a4565b6009549094506001600160a01b03908116935084163014156117dc5760009150611800565b6008546001600160a01b03858116911614156117fb5760019150611800565b600291505b600960149054906101000a900460ff1690509091929394959697565b336118256114a7565b6001600160a01b03161461184b5760405162461bcd60e51b81526004016103349061226f565b6040516331a9108f60e11b81527f000000000000000000000000000000000000000000000000000000000000000060048201526000907f00000000000000000000000000000000000000000000000000000000000000006001600160a01b031690636352211e9060240160206040518083038186803b1580156118cd57600080fd5b505afa1580156118e1573d6000803e3d6000fd5b505050506040513d601f19601f8201168201806040525081019061190591906122a4565b6008549091506001600160a01b0380831691161415611a3f57600854600554604051635cd16f1d60e11b81526001600160a01b039092169163b9a2de3a916119539160040190815260200190565b600060405180830381600087803b15801561196d57600080fd5b505af1158015611981573d6000803e3d6000fd5b50506040516331a9108f60e11b81527f000000000000000000000000000000000000000000000000000000000000000060048201527f00000000000000000000000000000000000000000000000000000000000000006001600160a01b03169250636352211e915060240160206040518083038186803b158015611a0457600080fd5b505afa158015611a18573d6000803e3d6000fd5b505050506040513d601f19601f82011682018060405250810190611a3c91906122a4565b90505b6001600160a01b038116301415611439576000600181905560001960058190556009805460ff60a01b1916905560068290556040517f00000000000000000000000000000000000000000000000000000000000000009230916000805160206124508339815191529190a450565b33611ab66114a7565b6001600160a01b031614611adc5760405162461bcd60e51b81526004016103349061226f565b6001600160a01b038116611b415760405162461bcd60e51b815260206004820152602660248201527f4f776e61626c653a206e6577206f776e657220697320746865207a65726f206160448201526564647265737360d01b6064820152608401610334565b6114a481611dd6565b33611b536114a7565b6001600160a01b031614611b795760405162461bcd60e51b81526004016103349061226f565b6040516331a9108f60e11b81527f000000000000000000000000000000000000000000000000000000000000000060048201526000907f00000000000000000000000000000000000000000000000000000000000000006001600160a01b031690636352211e9060240160206040518083038186803b158015611bfb57600080fd5b505afa158015611c0f573d6000803e3d6000fd5b505050506040513d601f19601f82011682018060405250810190611c3391906122a4565b6008549091506001600160a01b03808316911614611c635760405162461bcd60e51b815260040161033490612396565b6000196005541415611c9d5760405162461bcd60e51b815260206004820152600360248201526253414160e81b6044820152606401610334565b600854600554604051634b9eeda560e11b8152600481019190915283151560248201526001600160a01b039091169063973ddb4a90604401600060405180830381600087803b158015611cef57600080fd5b505af1158015611d03573d6000803e3d6000fd5b505060098054851515600160a01b0260ff60a01b1990911617905550506005546040517f00000000000000000000000000000000000000000000000000000000000000009030907fd3558bc48f8d6b1517da4edeb2092ae8ab75689d1e86278d03b5e9929f55e310906116df90871515815260200190565b611dd18363a9059cbb60e01b8484604051602401611d9a9291906122de565b60408051601f198184030181529190526020810180516001600160e01b03166001600160e01b031990931692909217909152611e26565b505050565b600080546001600160a01b038381166001600160a01b0319831681178455604051919092169283917f8be0079c531659141344cd1fd0a4f28419497f9722a3daafe3b4186f6b6457e09190a35050565b6000611e7b826040518060400160405280602081526020017f5361666545524332303a206c6f772d6c6576656c2063616c6c206661696c6564815250856001600160a01b0316611ef89092919063ffffffff16565b805190915015611dd15780806020019051810190611e9991906123b3565b611dd15760405162461bcd60e51b815260206004820152602a60248201527f5361666545524332303a204552433230206f7065726174696f6e20646964206e6044820152691bdd081cdd58d8d9595960b21b6064820152608401610334565b6060611f078484600085611f11565b90505b9392505050565b606082471015611f725760405162461bcd60e51b815260206004820152602660248201527f416464726573733a20696e73756666696369656e742062616c616e636520666f6044820152651c8818d85b1b60d21b6064820152608401610334565b843b611fc05760405162461bcd60e51b815260206004820152601d60248201527f416464726573733a2063616c6c20746f206e6f6e2d636f6e74726163740000006044820152606401610334565b600080866001600160a01b03168587604051611fdc9190612400565b60006040518083038185875af1925050503d8060008114612019576040519150601f19603f3d011682016040523d82523d6000602084013e61201e565b606091505b509150915061202e828286612039565b979650505050505050565b60608315612048575081611f0a565b8251156120585782518084602001fd5b8160405162461bcd60e51b8152600401610334919061241c565b60006020828403121561208457600080fd5b81356001600160e01b031981168114611f0a57600080fd5b600080604083850312156120af57600080fd5b50508035926020909101359150565b6001600160a01b03811681146114a457600080fd5b6000806000806000608086880312156120eb57600080fd5b85356120f6816120be565b94506020860135612106816120be565b93506040860135925060608601356001600160401b038082111561212957600080fd5b818801915088601f83011261213d57600080fd5b81358181111561214c57600080fd5b89602082850101111561215e57600080fd5b9699959850939650602001949392505050565b60006020828403121561218357600080fd5b8135611f0a816120be565b60208101600283106121b057634e487b7160e01b600052602160045260246000fd5b91905290565b6000806000606084860312156121cb57600080fd5b83356121d6816120be565b95602085013595506040909401359392505050565b6001600160a01b0391909116815260200190565b6000806040838503121561221257600080fd5b823561221d816120be565b946020939093013593505050565b60006020828403121561223d57600080fd5b5035919050565b80151581146114a457600080fd5b60006020828403121561226457600080fd5b8135611f0a81612244565b6020808252818101527f4f776e61626c653a2063616c6c6572206973206e6f7420746865206f776e6572604082015260600190565b6000602082840312156122b657600080fd5b8151611f0a816120be565b602080825260039082015262414e5360e81b604082015260600190565b6001600160a01b03929092168252602082015260400190565b60006020828403121561230957600080fd5b5051919050565b634e487b7160e01b600052601160045260246000fd5b6000821982111561233957612339612310565b500190565b600081600019048311821515161561235857612358612310565b500290565b60008261237a57634e487b7160e01b600052601260045260246000fd5b500490565b60008282101561239157612391612310565b500390565b60208082526003908201526204149560ec1b604082015260600190565b6000602082840312156123c557600080fd5b8151611f0a81612244565b60005b838110156123eb5781810151838201526020016123d3565b838111156123fa576000848401525b50505050565b600082516124128184602087016123d0565b9190910192915050565b602081526000825180602084015261243b8160408501602087016123d0565b601f01601f1916919091016040019291505056fe39d55156f067ee37a634def516d2da388a433276757102fdda27eb52bcf3e3bca2646970667358221220614c05250eaa3b3383cd5e0132602f5ad5bf9a71ca628472e52f5bc02f947afc64736f6c63430008090033a264697066735822122037de844fd4906dc7006422ae028a0d80d53627d15ff9f3401ab3d85dcf8b915a64736f6c63430008090033",
  "immutableReferences": {},
  "source": "// SPDX-License-Identifier: MIT\n\npragma solidity ^0.8.0;\n\nimport {Strings} from \"@openzeppelin/contracts/utils/Strings.sol\";\nimport {Ownable} from \"@openzeppelin/contracts/access/Ownable.sol\";\nimport {AccessControl} from \"@openzeppelin/contracts/access/AccessControl.sol\";\nimport {Pausable} from \"@openzeppelin/contracts/security/Pausable.sol\";\nimport {IERC20} from \"@openzeppelin/contracts/token/ERC20/IERC20.sol\";\nimport {SafeERC20} from \"@openzeppelin/contracts/token/ERC20/utils/SafeERC20.sol\";\nimport {ReentrancyGuard} from \"@openzeppelin/contracts/security/ReentrancyGuard.sol\";\n\nimport {ICanvas} from \"./interfaces/ICanvas.sol\";\nimport {IArtAuction} from \"./interfaces/IArtAuction.sol\";\nimport {PixNft} from \"./PixNft.sol\";\nimport {PixMoment} from \"./PixMoment.sol\";\nimport {ZoraAuction} from \"./ZoraAuction.sol\";\n\ncontract CanvasManager is AccessControl, Ownable, Pausable, ICanvas, ReentrancyGuard {\n    using Strings for uint256;\n    using SafeERC20 for IERC20;\n\n    // ============ Constants ============\n\n    bytes32 internal constant ADMIN_ROLE = keccak256(\"ADMIN_ROLE\");\n    uint256 internal constant MaxArt = 1024; // max count of art\n    uint256 internal constant PixCount = 1024; // count of pixels\n\n    // ============ Structs ============\n\n    struct Art {\n        uint256 startTime;\n        uint256 endTime;\n        uint256 consumToken; // total consumed tokens\n        uint32 momentIndex; // index no of last moment in this art: momentIndex + 1 = size of moments array\n        uint8 state; // 1=open, 2=end\n        uint256[PixCount] price; // current consumed tokens of each pixel\n        uint256[] moments; // id array of mements in this art\n        uint24[PixCount] colors; // color array of last mement in this art\n    }\n\n    struct Moment {\n        uint256 artId; // id of art\n        uint256 momentIndex; // index no of this moment in art\n        uint24[PixCount] colors; // color array of this moment\n    }\n\n    // ============ Variables ============\n\n    address internal _zoraMarket; // address of zora auction house\n    address internal _defaultAuctionCurrency; // default auction currency, must be ERC20\n    uint256 internal _defaultAuctionDuration; // default auction duration\n    uint256 internal _defaultAuctionPrice; // default auction price\n\n    mapping(uint256 => Art) public mArts;\n    mapping(uint256 => Moment) public mMoments;\n    mapping(uint256 => IArtAuction) public _artAuctions;\n    uint256[] public _endArtIds;\n\n    PixNft internal mPixNft; // pixel nft contract\n    PixMoment internal mPixMoment; // moment nft contract\n\n    uint256 internal mNftId = 0; // current count of arts\n    IERC20[] internal mTokens; // token array\n    uint256[] internal _basePrices; // the first price of draw pixel\n\n    // ============ Events ============\n\n    // ============ Constructor function ============\n\n    constructor(\n        address nft,\n        address moment,\n        address zoraMarket\n    ) {\n        _setupRole(DEFAULT_ADMIN_ROLE, _msgSender());\n        _setupRole(ADMIN_ROLE, _msgSender());\n\n        mPixNft = PixNft(nft);\n        mPixMoment = PixMoment(moment);\n        _zoraMarket = zoraMarket;\n    }\n\n    // ============ Receive function ============\n\n    // ============ Fallback function ============\n\n    // ============ Modifier functions ============\n\n    // ============ External functions ============\n\n    function pause() external {\n        onlyAdmin();\n        _pause();\n    }\n\n    function unpause() external {\n        onlyAdmin();\n        _unpause();\n    }\n\n    function getZoraMarketAddress() external view returns (address) {\n        return _zoraMarket;\n    }\n\n    function setZoraMarketAddress(address zoraMarket) external {\n        _zoraMarket = zoraMarket;\n    }\n\n    function getMoment(uint256 uMomentId)\n        external\n        view\n        override\n        returns (\n            uint24[1024] memory colors,\n            uint256 momentIndex,\n            uint256 artId\n        )\n    {\n        Moment storage moment = mMoments[uMomentId];\n        colors = moment.colors;\n        momentIndex = moment.momentIndex;\n        artId = moment.artId;\n    }\n\n    function getMomentColors(uint256 uMomentId) external view override returns (uint24[1024] memory) {\n        Moment storage moment = mMoments[uMomentId];\n        return moment.colors;\n    }\n\n    /// @return default duration, currency, price of auction\n    function getDefaultAuctionInfo()\n        external\n        view\n        returns (\n            uint256,\n            address,\n            uint256\n        )\n    {\n        return (_defaultAuctionDuration, _defaultAuctionCurrency, _defaultAuctionPrice);\n    }\n\n    /// @notice set default duration, currency, price used when create auction\n    function setDefaultAuctionInfo(\n        uint256 duration,\n        address currency,\n        uint256 price\n    ) external {\n        onlyAdmin();\n        _defaultAuctionDuration = duration;\n        _defaultAuctionCurrency = currency;\n        _defaultAuctionPrice = price;\n    }\n\n    /// @return address of auction contract which tokenId is nftId\n    function getArtAuctionAddress(uint256 nftId) external view returns (address) {\n        return address(_getArtAuction(nftId));\n    }\n\n    function withdrawAdminFee(\n        uint256 tokenIndex,\n        address to,\n        uint256 amount\n    ) external nonReentrant {\n        onlyAdmin();\n        require(tokenIndex < mTokens.length, \"TI\");\n        IERC20 token = mTokens[tokenIndex];\n        uint256 balance = token.balanceOf(address(this));\n        require(balance > 0, \"BA\");\n\n        if (to == address(0)) {\n            to = _msgSender();\n        }\n\n        if (amount == 0) {\n            amount = balance;\n        } else {\n            require(amount <= balance, \"AM\");\n        }\n\n        token.safeTransfer(to, amount);\n    }\n\n    function withdrawCuratorFee(\n        uint256 nftId,\n        address to,\n        uint256 amount\n    ) external nonReentrant {\n        onlyAdmin();\n        checkNftId(nftId);\n\n        if (to == address(0)) {\n            to = _msgSender();\n        }\n\n        IArtAuction artAuction = _getArtAuction(nftId);\n        return artAuction.claimeCuratorFee(to, amount);\n    }\n\n    function setAuctionCurrency(uint256 nftId, address auctionCurrency) external {\n        onlyAdmin();\n        checkNftId(nftId);\n        IArtAuction artAuction = _getArtAuction(nftId);\n        artAuction.setAuctionCurrency(auctionCurrency);\n    }\n\n    function createArtAuctionAndApproval(\n        uint256 nftId,\n        uint256 duration,\n        uint256 reservePrice\n    ) external returns (uint256) {\n        onlyAdmin();\n        checkNftId(nftId);\n        IArtAuction artAuction = _getArtAuction(nftId);\n        return artAuction.createArtAuction(duration, reservePrice);\n    }\n\n    /// @return auctionId auction ID\n    /// @return reservePrice The minimum price of the first bid\n    /// @return beginTime The begin time of auction\n    /// @return duration The duration of auction\n    /// @return owner The owner of auction\n    /// @return auctionCurrency The currency of auction\n    /// @return state 0: nft in this contract; 1: nft is market; 2: other\n    /// @return approved Whether or not the auction curator has approved the auction to start\n    function getArtAuctionInfo(uint256 nftId)\n        external\n        view\n        returns (\n            uint256 auctionId,\n            uint256 reservePrice,\n            uint256 beginTime,\n            uint256 duration,\n            address owner,\n            address auctionCurrency,\n            uint8 state,\n            bool approved\n        )\n    {\n        checkNftId(nftId);\n        IArtAuction artAuction = _getArtAuction(nftId);\n        return artAuction.getArtAuctionInfo();\n    }\n\n    /// @notice this function calculates contribution for a single contributor\n    /// @param nftId token id of pixel nft\n    /// @param contributor any contributor\n    /// @return contributorShareOfThisNft The shares of contributor in this PixNft\n    /// @return contributorShareOfAllNft The total shares of contributor from first PixNft to this PixNft(include this PixNft)\n    /// @return totalSharesOfThisNft The total shares of this PixNft\n    /// @return totalSharesOfAllNft The total shares from first PixNft to this PixNft(include this PixNft)\n    /// @return amount The all received tokens of art auction contract\n    function getNftPorfitInfo(uint256 nftId, address contributor)\n        external\n        view\n        returns (\n            uint256 contributorShareOfThisNft,\n            uint256 contributorShareOfAllNft,\n            uint256 totalSharesOfThisNft,\n            uint256 totalSharesOfAllNft,\n            uint256 amount\n        )\n    {\n        checkNftId(nftId);\n        IArtAuction artAuction = _getArtAuction(nftId);\n        (contributorShareOfThisNft, contributorShareOfAllNft) = _calcShares(nftId, contributor);\n        (totalSharesOfThisNft, totalSharesOfAllNft, amount) = artAuction.getProfitInfo();\n    }\n\n    function setArtAuctionApproval(uint256 nftId, bool approved) external {\n        onlyAdmin();\n        checkNftId(nftId);\n        IArtAuction artAuction = _getArtAuction(nftId);\n        artAuction.setArtAuctionApproval(approved);\n    }\n\n    function setArtAuctionReservePrice(uint256 nftId, uint256 reservePrice) external {\n        onlyAdmin();\n        checkNftId(nftId);\n        IArtAuction artAuction = _getArtAuction(nftId);\n        artAuction.setArtAuctionReservePrice(reservePrice);\n    }\n\n    function cancelArtAuction(uint256 nftId) external {\n        onlyAdmin();\n        checkNftId(nftId);\n        IArtAuction artAuction = _getArtAuction(nftId);\n        artAuction.cancelArtAuction();\n    }\n\n    function endArtAuction(uint256 nftId) external {\n        onlyAdmin();\n        checkNftId(nftId);\n        IArtAuction artAuction = _getArtAuction(nftId);\n        artAuction.endArtAuction();\n    }\n\n    /**\n     * @notice Claim ERC20 tokens to a single contributor after the auction has ended,\n     * @dev Anyone can call this function to claim for any contributor, and can be called for multi times\n     * @param nftId id of PixNFT\n     * @param contributor the address of receiver\n     */\n    function claimeArtAuctionFee(uint256 nftId, address contributor) external nonReentrant {\n        checkNftId(nftId);\n\n        if (contributor == address(0)) {\n            contributor = _msgSender();\n        }\n\n        (uint256 contributorShareOfThisNft, uint256 contributorShareOfAllNft) = _calcShares(nftId, contributor);\n        IArtAuction artAuction = _getArtAuction(nftId);\n        artAuction.claimeArtAuctionFee(contributor, contributorShareOfThisNft, contributorShareOfAllNft);\n    }\n\n    function getConsumeToken(uint256 index) external view returns (address token, uint256 basePrice) {\n        require(index < mTokens.length, \"GCT\");\n        token = address(mTokens[index]);\n        basePrice = _basePrices[index];\n    }\n\n    function setOrAddConsumeToken(\n        uint256 index,\n        IERC20 token,\n        uint256 basePrice\n    ) external {\n        onlyAdmin();\n        require(basePrice > 0, \"SCT\");\n\n        if (index < mTokens.length) {\n            mTokens[index] = token;\n            _basePrices[index] = basePrice;\n        } else {\n            mTokens.push(token);\n            _basePrices.push(basePrice);\n        }\n    }\n\n    function startNewArt(uint256 endTime) external returns (uint256 nftId) {\n        onlyAdmin();\n        require(mNftId < MaxArt && block.timestamp < endTime, \"SNA\");\n\n        mNftId++;\n        nftId = mNftId;\n        Art storage art = mArts[nftId];\n        art.state = 1; // open\n        art.startTime = block.timestamp;\n        art.endTime = endTime;\n\n        emit NewArt(_msgSender(), nftId, art.startTime, art.endTime);\n    }\n\n    function setEndTime(uint256 nftId, uint256 endTime) external {\n        onlyAdmin();\n        checkNftId(nftId);\n        Art storage art = mArts[nftId];\n        require(art.state == 1 && art.startTime < endTime, \"SET\");\n        art.endTime = endTime;\n\n        emit SetEndTime(_msgSender(), nftId, art.endTime);\n\n        if (endTime <= block.timestamp) {\n            _endArt(nftId);\n        }\n    }\n\n    // every one can call end, if reach the end time\n    function endArt(uint256 nftId) external {\n        checkNftId(nftId);\n        Art storage art = mArts[nftId];\n        require(art.state == 1 && block.timestamp >= art.endTime, \"EA\");\n        _endArt(nftId);\n    }\n\n    function getArt(uint256 nftId)\n        external\n        view\n        returns (\n            uint256 consumToken,\n            uint32 momentIndex,\n            uint24[PixCount] memory colors,\n            uint256[PixCount] memory price,\n            uint8 state,\n            uint256[] memory moments,\n            uint256 startTime,\n            uint256 endTime\n        )\n    {\n        Art storage art = mArts[nftId];\n        consumToken = art.consumToken;\n        momentIndex = art.momentIndex;\n        colors = art.colors;\n        price = art.price;\n        moments = art.moments;\n        state = art.state;\n        startTime = art.startTime;\n        endTime = art.endTime;\n    }\n\n    function getOpenArts() external view returns (uint256[] memory nftIds) {\n        uint256 index = mNftId - _endArtIds.length;\n        nftIds = new uint256[](index);\n\n        index = 0;\n        for (uint256 i = 1; i <= mNftId; ++i) {\n            if (mArts[i].state == 1) {\n                nftIds[index] = i;\n                index++;\n            }\n        }\n    }\n\n    function getEndArts() external view returns (uint256[] memory) {\n        return _endArtIds;\n    }\n\n    function getAllArts() external view returns (uint256[] memory nftIds) {\n        uint256 index = 0;\n        for (uint256 i = 1; i <= mNftId; ++i) {\n            if (mArts[i].state > 0) {\n                index++;\n            }\n        }\n        nftIds = new uint256[](index);\n\n        index = 0;\n        for (uint256 i = 1; i <= mNftId; ++i) {\n            if (mArts[i].state > 0) {\n                nftIds[index] = i;\n                index++;\n            }\n        }\n    }\n\n    function getDrawPrice(\n        uint256 nftId,\n        uint256 pixelIndex,\n        uint256 tokenIndex\n    ) external view returns (uint256) {\n        checkNftId(nftId);\n        require(pixelIndex < PixCount && tokenIndex < _basePrices.length, \"GPP\");\n        Art storage art = mArts[nftId];\n        return _getNewPrice(_basePrices[tokenIndex], art.price[pixelIndex]);\n    }\n\n    function drawPixel(\n        uint256 tokenIndex,\n        uint256 nftId,\n        uint256 index,\n        uint24 color,\n        uint256 bidPrice\n    ) external {\n        checkNftId(nftId);\n        require(index < PixCount && tokenIndex < mTokens.length, \"DP1\");\n\n        Art storage art = mArts[nftId];\n        require(art.state == 1 && block.timestamp <= art.endTime, \"DP2\");\n\n        IERC20 token = mTokens[tokenIndex];\n        uint256 price = _getNewPrice(_basePrices[tokenIndex], art.price[index]);\n        require(token.balanceOf(_msgSender()) >= price && bidPrice >= price, \"DP3\");\n\n        token.transferFrom(_msgSender(), address(this), price);\n        art.consumToken += price;\n        art.price[index] = price;\n        art.colors[index] = color;\n\n        // for moment\n        uint256 uMomentId = mPixMoment.mintMoment(_msgSender());\n        art.momentIndex = uint32(art.moments.length);\n        art.moments.push(uMomentId);\n\n        Moment storage moment = mMoments[uMomentId];\n        moment.colors = art.colors;\n        moment.momentIndex = art.momentIndex;\n        moment.artId = nftId;\n\n        emit DrawPixel(_msgSender(), nftId, uMomentId, index, color, bidPrice);\n    }\n\n    // ============ Public functions ============\n\n    // ============ Internal functions ============\n\n    /// @notice this function calculates contribution for a single contributor\n    /// @param nftId token id of pixel nft\n    /// @param contributor any contributor\n    /// @return contributorShareOfThisNft shares of contributor in this PixNft\n    /// @return contributorShareOfAllNft all shares of contributor from first PixNft to this PixNft(include this PixNft)\n    function _calcShares(uint256 nftId, address contributor) internal view returns (uint256 contributorShareOfThisNft, uint256 contributorShareOfAllNft) {\n        Art storage art = mArts[nftId];\n\n        uint256 count = art.moments.length;\n        for (uint256 i = 0; i < count; ++i) {\n            uint256 tokenIdOfMoment = art.moments[i];\n            if (contributor == mPixMoment.ownerOf(tokenIdOfMoment)) {\n                ++contributorShareOfThisNft;\n            }\n        }\n\n        uint256 maxMomentId = art.moments[art.momentIndex];\n        count = mPixMoment.balanceOf(contributor);\n        for (uint256 i = 0; i < count; ++i) {\n            if (mPixMoment.tokenOfOwnerByIndex(contributor, i) <= maxMomentId) {\n                ++contributorShareOfAllNft;\n            }\n        }\n    }\n\n    function _endArt(uint256 nftId) internal {\n        Art storage art = mArts[nftId];\n        art.state = 2; // end\n\n        if (art.moments.length > 0) {\n            _endArtIds.push(nftId);\n            IArtAuction artAuction = new ZoraAuction(\n                art.moments[art.momentIndex], // allNftShares\n                art.moments.length, // thisNftShares\n                nftId, // nftTokenId\n                address(mPixNft), // nftContract\n                _zoraMarket, // market\n                _defaultAuctionCurrency // auctionCurrency\n            );\n            _artAuctions[nftId] = artAuction;\n            mPixNft.mint(address(artAuction), nftId);\n            artAuction.createArtAuction(_defaultAuctionDuration, _defaultAuctionPrice);\n        }\n\n        emit EndArt(_msgSender(), nftId);\n    }\n\n    function _getNewPrice(uint256 basePrice, uint256 oldPrice) internal pure returns (uint256) {\n        return (oldPrice == 0) ? basePrice : (oldPrice + oldPrice);\n    }\n\n    function _getArtAuction(uint256 nftId) internal view returns (IArtAuction) {\n        require(address(_artAuctions[nftId]) != address(0), \"AA\");\n        return _artAuctions[nftId];\n    }\n\n    function onlyAdmin() internal view {\n        require(hasRole(ADMIN_ROLE, _msgSender()), \"OA\");\n    }\n\n    function checkNftId(uint256 nftId) internal view {\n        require(nftId <= mNftId && nftId > 0, \"ND\");\n    }\n\n    // ============ Private functions ============\n}\n",
  "sourcePath": "/home/liudan/matrix/kpixcontract/contracts/CanvasManager.sol",
  "compiler": {
    "name": "solc",
    "version": "0.8.9+commit.e5eed63a.Emscripten.clang"
  },
  "schemaVersion": "3.4.5",
  "updatedAt": "2022-02-23T00:09:42.925Z",
  "devdoc": {
    "kind": "dev",
    "methods": {
      "claimeArtAuctionFee(uint256,address)": {
        "details": "Anyone can call this function to claim for any contributor, and can be called for multi times",
        "params": {
          "contributor": "the address of receiver",
          "nftId": "id of PixNFT"
        }
      },
      "getArtAuctionAddress(uint256)": {
        "returns": {
          "_0": "address of auction contract which tokenId is nftId"
        }
      },
      "getArtAuctionInfo(uint256)": {
        "returns": {
          "approved": "Whether or not the auction curator has approved the auction to start",
          "auctionCurrency": "The currency of auction",
          "auctionId": "auction ID",
          "beginTime": "The begin time of auction",
          "duration": "The duration of auction",
          "owner": "The owner of auction",
          "reservePrice": "The minimum price of the first bid",
          "state": "0: nft in this contract; 1: nft is market; 2: other"
        }
      },
      "getDefaultAuctionInfo()": {
        "returns": {
          "_0": "default duration, currency, price of auction"
        }
      },
      "getNftPorfitInfo(uint256,address)": {
        "params": {
          "contributor": "any contributor",
          "nftId": "token id of pixel nft"
        },
        "returns": {
          "amount": "The all received tokens of art auction contract",
          "contributorShareOfAllNft": "The total shares of contributor from first PixNft to this PixNft(include this PixNft)",
          "contributorShareOfThisNft": "The shares of contributor in this PixNft",
          "totalSharesOfAllNft": "The total shares from first PixNft to this PixNft(include this PixNft)",
          "totalSharesOfThisNft": "The total shares of this PixNft"
        }
      },
      "getRoleAdmin(bytes32)": {
        "details": "Returns the admin role that controls `role`. See {grantRole} and {revokeRole}. To change a role's admin, use {_setRoleAdmin}."
      },
      "grantRole(bytes32,address)": {
        "details": "Grants `role` to `account`. If `account` had not been already granted `role`, emits a {RoleGranted} event. Requirements: - the caller must have ``role``'s admin role."
      },
      "hasRole(bytes32,address)": {
        "details": "Returns `true` if `account` has been granted `role`."
      },
      "owner()": {
        "details": "Returns the address of the current owner."
      },
      "paused()": {
        "details": "Returns true if the contract is paused, and false otherwise."
      },
      "renounceOwnership()": {
        "details": "Leaves the contract without owner. It will not be possible to call `onlyOwner` functions anymore. Can only be called by the current owner. NOTE: Renouncing ownership will leave the contract without an owner, thereby removing any functionality that is only available to the owner."
      },
      "renounceRole(bytes32,address)": {
        "details": "Revokes `role` from the calling account. Roles are often managed via {grantRole} and {revokeRole}: this function's purpose is to provide a mechanism for accounts to lose their privileges if they are compromised (such as when a trusted device is misplaced). If the calling account had been granted `role`, emits a {RoleRevoked} event. Requirements: - the caller must be `account`."
      },
      "revokeRole(bytes32,address)": {
        "details": "Revokes `role` from `account`. If `account` had been granted `role`, emits a {RoleRevoked} event. Requirements: - the caller must have ``role``'s admin role."
      },
      "supportsInterface(bytes4)": {
        "details": "See {IERC165-supportsInterface}."
      },
      "transferOwnership(address)": {
        "details": "Transfers ownership of the contract to a new account (`newOwner`). Can only be called by the current owner."
      }
    },
    "version": 1
  },
  "userdoc": {
    "kind": "user",
    "methods": {
      "claimeArtAuctionFee(uint256,address)": {
        "notice": "Claim ERC20 tokens to a single contributor after the auction has ended,"
      },
      "getNftPorfitInfo(uint256,address)": {
        "notice": "this function calculates contribution for a single contributor"
      },
      "setDefaultAuctionInfo(uint256,address,uint256)": {
        "notice": "set default duration, currency, price used when create auction"
      }
    },
    "version": 1
  }
}