{
  "contractName": "CanvasManagerV2",
  "abi": [
    {
      "inputs": [
        {
          "internalType": "address",
          "name": "nft",
          "type": "address"
        },
        {
          "internalType": "address",
          "name": "moment",
          "type": "address"
        },
        {
          "internalType": "address",
          "name": "pixelCoin",
          "type": "address"
        },
        {
          "internalType": "address",
          "name": "marketProxy",
          "type": "address"
        },
        {
          "internalType": "address",
          "name": "oldCanvasManager",
          "type": "address"
        },
        {
          "internalType": "uint256",
          "name": "minArtId",
          "type": "uint256"
        }
      ],
      "stateMutability": "nonpayable",
      "type": "constructor"
    },
    {
      "anonymous": false,
      "inputs": [
        {
          "indexed": true,
          "internalType": "address",
          "name": "caller",
          "type": "address"
        },
        {
          "indexed": true,
          "internalType": "uint256",
          "name": "artId",
          "type": "uint256"
        },
        {
          "indexed": false,
          "internalType": "uint256",
          "name": "momentId",
          "type": "uint256"
        },
        {
          "indexed": false,
          "internalType": "uint256",
          "name": "index",
          "type": "uint256"
        },
        {
          "indexed": false,
          "internalType": "uint24",
          "name": "color",
          "type": "uint24"
        }
      ],
      "name": "DrawPixel",
      "type": "event"
    },
    {
      "anonymous": false,
      "inputs": [
        {
          "indexed": true,
          "internalType": "address",
          "name": "caller",
          "type": "address"
        },
        {
          "indexed": true,
          "internalType": "uint256",
          "name": "artId",
          "type": "uint256"
        }
      ],
      "name": "EndArt",
      "type": "event"
    },
    {
      "anonymous": false,
      "inputs": [
        {
          "indexed": true,
          "internalType": "address",
          "name": "caller",
          "type": "address"
        },
        {
          "indexed": true,
          "internalType": "uint256",
          "name": "artId",
          "type": "uint256"
        },
        {
          "indexed": false,
          "internalType": "uint256",
          "name": "startTime",
          "type": "uint256"
        },
        {
          "indexed": false,
          "internalType": "uint256",
          "name": "endTime",
          "type": "uint256"
        }
      ],
      "name": "NewArt",
      "type": "event"
    },
    {
      "anonymous": false,
      "inputs": [
        {
          "indexed": true,
          "internalType": "bytes32",
          "name": "role",
          "type": "bytes32"
        },
        {
          "indexed": true,
          "internalType": "bytes32",
          "name": "previousAdminRole",
          "type": "bytes32"
        },
        {
          "indexed": true,
          "internalType": "bytes32",
          "name": "newAdminRole",
          "type": "bytes32"
        }
      ],
      "name": "RoleAdminChanged",
      "type": "event"
    },
    {
      "anonymous": false,
      "inputs": [
        {
          "indexed": true,
          "internalType": "bytes32",
          "name": "role",
          "type": "bytes32"
        },
        {
          "indexed": true,
          "internalType": "address",
          "name": "account",
          "type": "address"
        },
        {
          "indexed": true,
          "internalType": "address",
          "name": "sender",
          "type": "address"
        }
      ],
      "name": "RoleGranted",
      "type": "event"
    },
    {
      "anonymous": false,
      "inputs": [
        {
          "indexed": true,
          "internalType": "bytes32",
          "name": "role",
          "type": "bytes32"
        },
        {
          "indexed": true,
          "internalType": "address",
          "name": "account",
          "type": "address"
        },
        {
          "indexed": true,
          "internalType": "address",
          "name": "sender",
          "type": "address"
        }
      ],
      "name": "RoleRevoked",
      "type": "event"
    },
    {
      "anonymous": false,
      "inputs": [
        {
          "indexed": true,
          "internalType": "address",
          "name": "caller",
          "type": "address"
        },
        {
          "indexed": true,
          "internalType": "uint256",
          "name": "artId",
          "type": "uint256"
        },
        {
          "indexed": false,
          "internalType": "uint256",
          "name": "oldEndTime",
          "type": "uint256"
        },
        {
          "indexed": false,
          "internalType": "uint256",
          "name": "newEndTime",
          "type": "uint256"
        }
      ],
      "name": "SetArtEndTime",
      "type": "event"
    },
    {
      "anonymous": false,
      "inputs": [
        {
          "indexed": true,
          "internalType": "address",
          "name": "oldDrawHook",
          "type": "address"
        },
        {
          "indexed": true,
          "internalType": "address",
          "name": "newDrawHook",
          "type": "address"
        }
      ],
      "name": "SetDrawHook",
      "type": "event"
    },
    {
      "anonymous": false,
      "inputs": [
        {
          "indexed": true,
          "internalType": "address",
          "name": "oldMarketProxy",
          "type": "address"
        },
        {
          "indexed": true,
          "internalType": "address",
          "name": "newMarketProxy",
          "type": "address"
        }
      ],
      "name": "SetMarketProxy",
      "type": "event"
    },
    {
      "anonymous": false,
      "inputs": [
        {
          "indexed": false,
          "internalType": "uint256",
          "name": "oldMaxArtId",
          "type": "uint256"
        },
        {
          "indexed": false,
          "internalType": "uint256",
          "name": "newMaxArtId",
          "type": "uint256"
        }
      ],
      "name": "SetMaxArtId",
      "type": "event"
    },
    {
      "anonymous": false,
      "inputs": [
        {
          "indexed": false,
          "internalType": "uint256",
          "name": "oldMinArtId",
          "type": "uint256"
        },
        {
          "indexed": false,
          "internalType": "uint256",
          "name": "newMinArtId",
          "type": "uint256"
        }
      ],
      "name": "SetMinArtId",
      "type": "event"
    },
    {
      "anonymous": false,
      "inputs": [
        {
          "indexed": true,
          "internalType": "address",
          "name": "oldCanvasManager",
          "type": "address"
        },
        {
          "indexed": true,
          "internalType": "address",
          "name": "newCanvasManager",
          "type": "address"
        }
      ],
      "name": "SetOldCanvasManager",
      "type": "event"
    },
    {
      "inputs": [],
      "name": "ADMIN_ROLE",
      "outputs": [
        {
          "internalType": "bytes32",
          "name": "",
          "type": "bytes32"
        }
      ],
      "stateMutability": "view",
      "type": "function",
      "constant": true
    },
    {
      "inputs": [],
      "name": "DEFAULT_ADMIN_ROLE",
      "outputs": [
        {
          "internalType": "bytes32",
          "name": "",
          "type": "bytes32"
        }
      ],
      "stateMutability": "view",
      "type": "function",
      "constant": true
    },
    {
      "inputs": [],
      "name": "OLD_MAX_ART_ID",
      "outputs": [
        {
          "internalType": "uint256",
          "name": "",
          "type": "uint256"
        }
      ],
      "stateMutability": "view",
      "type": "function",
      "constant": true
    },
    {
      "inputs": [],
      "name": "PIX_COUNT",
      "outputs": [
        {
          "internalType": "uint256",
          "name": "",
          "type": "uint256"
        }
      ],
      "stateMutability": "view",
      "type": "function",
      "constant": true
    },
    {
      "inputs": [
        {
          "internalType": "uint256",
          "name": "",
          "type": "uint256"
        }
      ],
      "name": "_arts",
      "outputs": [
        {
          "internalType": "uint256",
          "name": "startTime",
          "type": "uint256"
        },
        {
          "internalType": "uint256",
          "name": "endTime",
          "type": "uint256"
        },
        {
          "internalType": "uint256",
          "name": "consumToken",
          "type": "uint256"
        },
        {
          "internalType": "uint32",
          "name": "momentIndex",
          "type": "uint32"
        },
        {
          "internalType": "uint8",
          "name": "state",
          "type": "uint8"
        }
      ],
      "stateMutability": "view",
      "type": "function",
      "constant": true
    },
    {
      "inputs": [
        {
          "internalType": "uint256",
          "name": "",
          "type": "uint256"
        }
      ],
      "name": "_moments",
      "outputs": [
        {
          "internalType": "uint256",
          "name": "artId",
          "type": "uint256"
        },
        {
          "internalType": "uint256",
          "name": "momentIndex",
          "type": "uint256"
        }
      ],
      "stateMutability": "view",
      "type": "function",
      "constant": true
    },
    {
      "inputs": [
        {
          "internalType": "bytes32",
          "name": "role",
          "type": "bytes32"
        }
      ],
      "name": "getRoleAdmin",
      "outputs": [
        {
          "internalType": "bytes32",
          "name": "",
          "type": "bytes32"
        }
      ],
      "stateMutability": "view",
      "type": "function",
      "constant": true
    },
    {
      "inputs": [
        {
          "internalType": "bytes32",
          "name": "role",
          "type": "bytes32"
        },
        {
          "internalType": "address",
          "name": "account",
          "type": "address"
        }
      ],
      "name": "grantRole",
      "outputs": [],
      "stateMutability": "nonpayable",
      "type": "function"
    },
    {
      "inputs": [
        {
          "internalType": "bytes32",
          "name": "role",
          "type": "bytes32"
        },
        {
          "internalType": "address",
          "name": "account",
          "type": "address"
        }
      ],
      "name": "hasRole",
      "outputs": [
        {
          "internalType": "bool",
          "name": "",
          "type": "bool"
        }
      ],
      "stateMutability": "view",
      "type": "function",
      "constant": true
    },
    {
      "inputs": [
        {
          "internalType": "bytes32",
          "name": "role",
          "type": "bytes32"
        },
        {
          "internalType": "address",
          "name": "account",
          "type": "address"
        }
      ],
      "name": "renounceRole",
      "outputs": [],
      "stateMutability": "nonpayable",
      "type": "function"
    },
    {
      "inputs": [
        {
          "internalType": "bytes32",
          "name": "role",
          "type": "bytes32"
        },
        {
          "internalType": "address",
          "name": "account",
          "type": "address"
        }
      ],
      "name": "revokeRole",
      "outputs": [],
      "stateMutability": "nonpayable",
      "type": "function"
    },
    {
      "inputs": [
        {
          "internalType": "bytes4",
          "name": "interfaceId",
          "type": "bytes4"
        }
      ],
      "name": "supportsInterface",
      "outputs": [
        {
          "internalType": "bool",
          "name": "",
          "type": "bool"
        }
      ],
      "stateMutability": "view",
      "type": "function",
      "constant": true
    },
    {
      "inputs": [],
      "name": "getPixNft",
      "outputs": [
        {
          "internalType": "address",
          "name": "",
          "type": "address"
        }
      ],
      "stateMutability": "view",
      "type": "function",
      "constant": true
    },
    {
      "inputs": [],
      "name": "getPixMoment",
      "outputs": [
        {
          "internalType": "address",
          "name": "",
          "type": "address"
        }
      ],
      "stateMutability": "view",
      "type": "function",
      "constant": true
    },
    {
      "inputs": [],
      "name": "getOldCanvasManager",
      "outputs": [
        {
          "internalType": "address",
          "name": "",
          "type": "address"
        }
      ],
      "stateMutability": "view",
      "type": "function",
      "constant": true
    },
    {
      "inputs": [
        {
          "internalType": "address",
          "name": "newCanvasManager",
          "type": "address"
        }
      ],
      "name": "setOldCanvasManager",
      "outputs": [],
      "stateMutability": "nonpayable",
      "type": "function"
    },
    {
      "inputs": [],
      "name": "getMarketProxy",
      "outputs": [
        {
          "internalType": "address",
          "name": "",
          "type": "address"
        }
      ],
      "stateMutability": "view",
      "type": "function",
      "constant": true
    },
    {
      "inputs": [
        {
          "internalType": "address",
          "name": "newMarketProxy",
          "type": "address"
        }
      ],
      "name": "setMarketProxy",
      "outputs": [],
      "stateMutability": "nonpayable",
      "type": "function"
    },
    {
      "inputs": [],
      "name": "getDrawHook",
      "outputs": [
        {
          "internalType": "address",
          "name": "",
          "type": "address"
        }
      ],
      "stateMutability": "view",
      "type": "function",
      "constant": true
    },
    {
      "inputs": [
        {
          "internalType": "address",
          "name": "newDrawHook",
          "type": "address"
        }
      ],
      "name": "setDrawHook",
      "outputs": [],
      "stateMutability": "nonpayable",
      "type": "function"
    },
    {
      "inputs": [],
      "name": "getArtIds",
      "outputs": [
        {
          "internalType": "uint256",
          "name": "min",
          "type": "uint256"
        },
        {
          "internalType": "uint256",
          "name": "max",
          "type": "uint256"
        },
        {
          "internalType": "uint256",
          "name": "current",
          "type": "uint256"
        }
      ],
      "stateMutability": "view",
      "type": "function",
      "constant": true
    },
    {
      "inputs": [
        {
          "internalType": "uint256",
          "name": "newMinArtId",
          "type": "uint256"
        }
      ],
      "name": "setMinArtId",
      "outputs": [],
      "stateMutability": "nonpayable",
      "type": "function"
    },
    {
      "inputs": [
        {
          "internalType": "uint256",
          "name": "newMaxArtId",
          "type": "uint256"
        }
      ],
      "name": "setMaxArtId",
      "outputs": [],
      "stateMutability": "nonpayable",
      "type": "function"
    },
    {
      "inputs": [],
      "name": "getOpenArts",
      "outputs": [
        {
          "internalType": "uint256[]",
          "name": "artIds",
          "type": "uint256[]"
        }
      ],
      "stateMutability": "view",
      "type": "function",
      "constant": true
    },
    {
      "inputs": [],
      "name": "getEndArts",
      "outputs": [
        {
          "internalType": "uint256[]",
          "name": "artIds",
          "type": "uint256[]"
        }
      ],
      "stateMutability": "view",
      "type": "function",
      "constant": true
    },
    {
      "inputs": [],
      "name": "getAllArts",
      "outputs": [
        {
          "internalType": "uint256[]",
          "name": "artIds",
          "type": "uint256[]"
        }
      ],
      "stateMutability": "view",
      "type": "function",
      "constant": true
    },
    {
      "inputs": [
        {
          "internalType": "uint256",
          "name": "uMomentId",
          "type": "uint256"
        }
      ],
      "name": "getMoment",
      "outputs": [
        {
          "internalType": "uint24[1024]",
          "name": "colors",
          "type": "uint24[1024]"
        },
        {
          "internalType": "uint256",
          "name": "momentIndex",
          "type": "uint256"
        },
        {
          "internalType": "uint256",
          "name": "artId",
          "type": "uint256"
        }
      ],
      "stateMutability": "view",
      "type": "function",
      "constant": true
    },
    {
      "inputs": [
        {
          "internalType": "uint256",
          "name": "artId",
          "type": "uint256"
        },
        {
          "internalType": "address",
          "name": "contributor",
          "type": "address"
        }
      ],
      "name": "getShares",
      "outputs": [
        {
          "internalType": "uint256",
          "name": "individualShares",
          "type": "uint256"
        },
        {
          "internalType": "uint256",
          "name": "totalShares",
          "type": "uint256"
        }
      ],
      "stateMutability": "view",
      "type": "function",
      "constant": true
    },
    {
      "inputs": [
        {
          "internalType": "uint256",
          "name": "endTime",
          "type": "uint256"
        }
      ],
      "name": "startNewArt",
      "outputs": [
        {
          "internalType": "uint256",
          "name": "artId",
          "type": "uint256"
        }
      ],
      "stateMutability": "nonpayable",
      "type": "function"
    },
    {
      "inputs": [
        {
          "internalType": "uint256",
          "name": "artId",
          "type": "uint256"
        },
        {
          "internalType": "uint256",
          "name": "newEndTime",
          "type": "uint256"
        }
      ],
      "name": "setEndTime",
      "outputs": [],
      "stateMutability": "nonpayable",
      "type": "function"
    },
    {
      "inputs": [
        {
          "internalType": "uint256",
          "name": "artId",
          "type": "uint256"
        }
      ],
      "name": "endArt",
      "outputs": [],
      "stateMutability": "nonpayable",
      "type": "function"
    },
    {
      "inputs": [
        {
          "internalType": "uint256",
          "name": "artId",
          "type": "uint256"
        }
      ],
      "name": "getArt",
      "outputs": [
        {
          "internalType": "uint256",
          "name": "consumToken",
          "type": "uint256"
        },
        {
          "internalType": "uint32",
          "name": "momentIndex",
          "type": "uint32"
        },
        {
          "internalType": "uint24[1024]",
          "name": "colors",
          "type": "uint24[1024]"
        },
        {
          "internalType": "uint256[1024]",
          "name": "price",
          "type": "uint256[1024]"
        },
        {
          "internalType": "uint8",
          "name": "state",
          "type": "uint8"
        },
        {
          "internalType": "uint256[]",
          "name": "moments",
          "type": "uint256[]"
        },
        {
          "internalType": "uint256",
          "name": "startTime",
          "type": "uint256"
        },
        {
          "internalType": "uint256",
          "name": "endTime",
          "type": "uint256"
        }
      ],
      "stateMutability": "view",
      "type": "function",
      "constant": true
    },
    {
      "inputs": [
        {
          "internalType": "uint256",
          "name": "artId",
          "type": "uint256"
        },
        {
          "internalType": "uint256",
          "name": "index",
          "type": "uint256"
        },
        {
          "internalType": "uint24",
          "name": "color",
          "type": "uint24"
        }
      ],
      "name": "drawPixel",
      "outputs": [],
      "stateMutability": "nonpayable",
      "type": "function"
    },
    {
      "inputs": [
        {
          "internalType": "uint256",
          "name": "artId",
          "type": "uint256"
        },
        {
          "internalType": "uint256[]",
          "name": "indexes",
          "type": "uint256[]"
        },
        {
          "internalType": "uint24[]",
          "name": "colors",
          "type": "uint24[]"
        }
      ],
      "name": "drawMultiPixel",
      "outputs": [],
      "stateMutability": "nonpayable",
      "type": "function"
    }
  ],
  "bytecode": "0x60e06040523480156200001157600080fd5b5060405162003a2a38038062003a2a8339810160408190526200003491620003a0565b6001600160a01b0386166200007b5760405162461bcd60e51b81526020600482015260086024820152671e995c9bc81b999d60c21b60448201526064015b60405180910390fd5b6001600160a01b038516620000c15760405162461bcd60e51b815260206004820152600b60248201526a1e995c9bc81b5bdb595b9d60aa1b604482015260640162000072565b6001600160a01b0384166200010a5760405162461bcd60e51b815260206004820152600e60248201526d3d32b937903834bc32b621b7b4b760911b604482015260640162000072565b6001600160a01b038316620001555760405162461bcd60e51b815260206004820152601060248201526f7a65726f206d61726b657450726f787960801b604482015260640162000072565b6017811015620001995760405162461bcd60e51b815260206004820152600e60248201526d1cdb585b1b081b5a5b905c9d125960921b604482015260640162000072565b620001a6600033620002d3565b620001d27fa49807205ce4d355092ef5a8a18f56e8913cf4a201fbe287825b095693c2177533620002d3565b6001600160a01b0386811660805285811660a05284811660c052600180546001600160a01b03199081168684161790915560028054909116918416919091179055600481905560068190556200022b816103e862000418565b6005556001600160a01b03821615620002c75760405163095ea7b360e01b81526001600160a01b038381166004830152600019602483015285169063095ea7b390604401602060405180830381600087803b1580156200028a57600080fd5b505af11580156200029f573d6000803e3d6000fd5b505050506040513d601f19601f82011682018060405250810190620002c591906200043f565b505b5050505050506200046a565b620002df8282620002e3565b5050565b6000828152602081815260408083206001600160a01b038516845290915290205460ff16620002df576000828152602081815260408083206001600160a01b03851684529091529020805460ff191660011790556200033f3390565b6001600160a01b0316816001600160a01b0316837f2f8788117e7eff1d82e926ec794901d17c78024a50270940304540a733656f0d60405160405180910390a45050565b80516001600160a01b03811681146200039b57600080fd5b919050565b60008060008060008060c08789031215620003ba57600080fd5b620003c58762000383565b9550620003d56020880162000383565b9450620003e56040880162000383565b9350620003f56060880162000383565b9250620004056080880162000383565b915060a087015190509295509295509295565b600082198211156200043a57634e487b7160e01b600052601160045260246000fd5b500190565b6000602082840312156200045257600080fd5b815180151581146200046357600080fd5b9392505050565b60805160a05160c051613543620004e760003960008181610c6f01528181610ef40152818161127801528181611f7b01526120670152600081816101f401528181610db801528181610e5a0152818161161a015281816120ec0152818161218601526127af0152600081816102ea015261235001526135436000f3fe608060405234801561001057600080fd5b50600436106101965760003560e01c806301ffc9a71461019b57806306615f13146101c357806312b3c941146101d8578063181a5d2a146101f25780631da455cf14610218578063248a9ca31461022e5780632bb16c69146102415780632f2ff15d1461025657806331cde5411461026957806336568abe1461027a5780633bcb30851461028d5780633e64b01f146102a057806346e2d93f146102d55780634ddcdff2146102e8578063557a2d201461030e5780635968bf42146103305780635a3c6893146103385780635c07765f14610349578063632569d61461035c57806370e55f151461036f578063718028d71461038257806375b238fc1461039557806375c0b9fe146103aa5780638c4796c7146103bd57806391d14854146103e4578063951b4a5e146103f7578063a217fddf14610400578063a27b429d14610408578063a33b5fb614610410578063abfbac4b14610423578063b5c359ed14610436578063d547741f14610449578063fc2cc2ef1461045c578063fea775d314610474575b600080fd5b6101ae6101a9366004612bbc565b6104ec565b60405190151581526020015b60405180910390f35b6101d66101d1366004612be6565b610523565b005b6001546001600160a01b03165b6040516101ba9190612bff565b7f00000000000000000000000000000000000000000000000000000000000000006101e5565b610220601781565b6040519081526020016101ba565b61022061023c366004612be6565b61069d565b6102496106b2565b6040516101ba9190612c4e565b6101d6610264366004612c76565b6108b5565b6003546001600160a01b03166101e5565b6101d6610288366004612c76565b6108d7565b6101d661029b366004612dbd565b610951565b6102c76102ae366004612be6565b600a602052600090815260409020805460019091015482565b6040516101ba929190612e80565b6101d66102e3366004612e8e565b610f6a565b7f00000000000000000000000000000000000000000000000000000000000000006101e5565b61032161031c366004612be6565b610fc4565b6040516101ba93929190612ed4565b6102496110ea565b6002546001600160a01b03166101e5565b6101d6610357366004612e8e565b611233565b6101d661036a366004612be6565b611349565b61022061037d366004612be6565b6113e0565b6101d6610390366004612e8e565b611536565b6102206000805160206134ee83398151915281565b6102c76103b8366004612c76565b6115dc565b6103d06103cb366004612be6565b6117c3565b6040516101ba989796959493929190612ef6565b6101ae6103f2366004612c76565b611a19565b61022061040081565b610220600081565b610249611a42565b6101d661041e366004612be6565b611b89565b6101d6610431366004612f7f565b611c11565b6101d6610444366004612fa1565b611de7565b6101d6610457366004612c76565b612200565b6004546005546006546040516101ba93929190612fda565b6104bb610482366004612be6565b60096020526000908152604090208054600182015460028301546003909301549192909163ffffffff811690600160201b900460ff1685565b6040805195865260208601949094529284019190915263ffffffff16606083015260ff16608082015260a0016101ba565b60006001600160e01b03198216637965db0b60e01b148061051d57506301ffc9a760e01b6001600160e01b03198316145b92915050565b6004548111801561053657506005548111155b1561062a576006548111156105815760405162461bcd60e51b815260206004820152600c60248201526b22a09d103737ba1037b832b760a11b60448201526064015b60405180910390fd5b60008181526009602052604090206003810154600160201b900460ff166001146105dd5760405162461bcd60e51b815260206004820152600d60248201526c45413a2061727420636c6f736560981b6044820152606401610578565b806001015442101561061d5760405162461bcd60e51b8152602060048201526009602482015268746f6f206561726c7960b81b6044820152606401610578565b6106268261221d565b5050565b6002546001600160a01b03161561069a576002546040516306615f1360e01b8152600481018390526001600160a01b03909116906306615f1390602401600060405180830381600087803b15801561068157600080fd5b505af1158015610695573d6000803e3d6000fd5b505050505b50565b60009081526020819052604090206001015490565b6002546060906001600160a01b0316156108065760025460408051632bb16c6960e01b81529051610801926001600160a01b031691632bb16c69916004808301926000929190829003018186803b15801561070c57600080fd5b505afa158015610720573d6000803e3d6000fd5b505050506040513d6000823e601f3d908101601f19168201604052610748919081019061304b565b6107fb600780548060200260200160405190810160405280929190818152602001828054801561079757602002820191906000526020600020905b815481526020019060010190808311610783575b505050505060088054806020026020016040519081016040528092919081815260200182805480156107e857602002820191906000526020600020905b8154815260200190600101908083116107d4575b505050505061248a90919063ffffffff16565b9061248a565b905090565b6108016007805480602002602001604051908101604052809291908181526020018280548015610797576020028201919060005260206000209081548152602001906001019080831161078357505050505060088054806020026020016040519081016040528092919081815260200182805480156107e857602002820191906000526020600020908154815260200190600101908083116107d457505050505061248a90919063ffffffff16565b6108be8261069d565b6108c8813361259b565b6108d283836125ff565b505050565b6001600160a01b03811633146109475760405162461bcd60e51b815260206004820152602f60248201527f416363657373436f6e74726f6c3a2063616e206f6e6c792072656e6f756e636560448201526e103937b632b9903337b91039b2b63360891b6064820152608401610578565b6106268282612683565b81518061098b5760405162461bcd60e51b81526020600482015260086024820152671b9bc81c1a5e195b60c21b6044820152606401610578565b815181146109d55760405162461bcd60e51b8152602060048201526017602482015276696e6465786573206d69736d6174636820636f6c6f727360481b6044820152606401610578565b600454841180156109e857506005548411155b15610b1157600654841115610a2f5760405162461bcd60e51b815260206004820152600d60248201526c2226a81d103737ba1037b832b760991b6044820152606401610578565b60008481526009602052604090206003810154600160201b900460ff16600114610a8c5760405162461bcd60e51b815260206004820152600e60248201526d444d503a2061727420636c6f736560901b6044820152606401610578565b4281600101541015610ab05760405162461bcd60e51b815260040161057890613087565b60005b82811015610b0a57610af886868381518110610ad157610ad16130aa565b6020026020010151868481518110610aeb57610aeb6130aa565b60200260200101516126e8565b80610b02816130d6565b915050610ab3565b5050610f64565b6002546001600160a01b031615610f6457600080826001600160401b03811115610b3d57610b3d612ca6565b604051908082528060200260200182016040528015610b66578160200160208202803683370190505b50905060005b83811015610c575760025486516000916001600160a01b03169063f79e8bc3908a908a9086908110610ba057610ba06130aa565b602002602001015160006040518463ffffffff1660e01b8152600401610bc893929190612fda565b60206040518083038186803b158015610be057600080fd5b505afa158015610bf4573d6000803e3d6000fd5b505050506040513d601f19601f82011682018060405250810190610c1891906130f1565b9050610c24818561310a565b935080838381518110610c3957610c396130aa565b60209081029190910101525080610c4f816130d6565b915050610b6c565b506040516340c10f1960e01b81526001600160a01b037f000000000000000000000000000000000000000000000000000000000000000016906340c10f1990610ca69030908690600401613122565b600060405180830381600087803b158015610cc057600080fd5b505af1158015610cd4573d6000803e3d6000fd5b5050505060005b83811015610ed95760025486516001600160a01b0390911690638a6d4ad4906000908a908a9086908110610d1157610d116130aa565b6020026020010151898681518110610d2b57610d2b6130aa565b6020026020010151878781518110610d4557610d456130aa565b60200260200101516040518663ffffffff1660e01b8152600401610d6d95949392919061313b565b600060405180830381600087803b158015610d8757600080fd5b505af1158015610d9b573d6000803e3d6000fd5b5050604051632f745c5960e01b8152600092506001600160a01b037f0000000000000000000000000000000000000000000000000000000000000000169150632f745c5990610df09030908590600401613122565b60206040518083038186803b158015610e0857600080fd5b505afa158015610e1c573d6000803e3d6000fd5b505050506040513d601f19601f82011682018060405250810190610e4091906130f1565b6040516323b872dd60e01b81529091506001600160a01b037f000000000000000000000000000000000000000000000000000000000000000016906323b872dd90610e9390309033908690600401613163565b600060405180830381600087803b158015610ead57600080fd5b505af1158015610ec1573d6000803e3d6000fd5b50505050508080610ed1906130d6565b915050610cdb565b50600254604051632770a7eb60e21b81526001600160a01b037f0000000000000000000000000000000000000000000000000000000000000000811692639dc29fac92610f2f9291909116908690600401613122565b600060405180830381600087803b158015610f4957600080fd5b505af1158015610f5d573d6000803e3d6000fd5b5050505050505b50505050565b610f72612950565b600380546001600160a01b038381166001600160a01b0319831681179093556040519116919082907f2dbf3bfc359cc3cf6d319145c4b7de781a077bae26a1cc84e6070f064f217d5890600090a35050565b610fcc612b44565b6000828152600a60205260408120805490811561104c576040805161800081019182905290600283019061040090826000855b82829054906101000a900462ffffff1662ffffff1681526020019060030190602082600201049283019260010382029150808411610fff57905050505050509350806001015492506110e2565b6002546001600160a01b0316156110e2576002546040516302abd16960e51b8152600481018790526001600160a01b039091169063557a2d20906024016180406040518083038186803b1580156110a257600080fd5b505afa1580156110b6573d6000803e3d6000fd5b505050506040513d601f19601f820116820180604052508101906110da91906131e1565b919550935091505b509193909250565b6002546060906001600160a01b0316156111dd5760025460408051632cb45fa160e11b81529051610801926001600160a01b031691635968bf42916004808301926000929190829003018186803b15801561114457600080fd5b505afa158015611158573d6000803e3d6000fd5b505050506040513d6000823e601f3d908101601f19168201604052611180919081019061304b565b60088054806020026020016040519081016040528092919081815260200182805480156107e857602002820191906000526020600020908154815260200190600101908083116107d457505050505061248a90919063ffffffff16565b600880548060200260200160405190810160405280929190818152602001828054801561122957602002820191906000526020600020905b815481526020019060010190808311611215575b5050505050905090565b61123b612950565b600280546001600160a01b038381166001600160a01b0319831681179093551690156113055760405163095ea7b360e01b81526001600160a01b037f0000000000000000000000000000000000000000000000000000000000000000169063095ea7b3906112b190859060001990600401613122565b602060405180830381600087803b1580156112cb57600080fd5b505af11580156112df573d6000803e3d6000fd5b505050506040513d601f19601f82011682018060405250810190611303919061321a565b505b816001600160a01b0316816001600160a01b03167fbff85eb7cbbdfc9b7cf777cf6cccd46ea16d465ebc6c0bd7fa09286ecac56d4d60405160405180910390a35050565b611351612950565b6006546004541461139a5760405162461bcd60e51b81526020600482015260136024820152726d696e417274496420697320776f726b696e6760681b6044820152606401610578565b60048054908290556040517f432c9539c9e711224e52ca606ddb42ec67c585f72582e3602760ec86520a1246906113d49083908590612e80565b60405180910390a15050565b60006113ea612950565b6005546006541061142b5760405162461bcd60e51b815260206004820152600b60248201526a185c9d08195e1a185d5cdd60aa1b6044820152606401610578565b42821161146a5760405162461bcd60e51b815260206004820152600d60248201526c736d616c6c20656e6454696d6560981b6044820152606401610578565b600660008154611479906130d6565b91829055506007805460018181019092557fa66cc928b5edb82af9bd49922954155ab7b0942694bea4ce44661d9a8736c68801829055600082815260096020526040902060038101805460ff60201b1916600160201b179055428155908101849055909150816114e63390565b6001600160a01b03167f60bf53483d504e50792c2eaf88b41222889d7d0a4251a32eabd522615086013183600001548460010154604051611528929190612e80565b60405180910390a350919050565b61153e612950565b6001600160a01b03811661158a5760405162461bcd60e51b81526020600482015260136024820152727a65726f206e65774d61726b657450726f787960681b6044820152606401610578565b600180546001600160a01b038381166001600160a01b0319831681179093556040519116919082907f738c77324bcf2421017cc3132d5ac83a33e01c97e74c4269ceb7f41d9d6c852090600090a35050565b600080600454841180156115f257506005548411155b1561171e575050600082815260096020526040812061040481015490825b82811015611717577f00000000000000000000000000000000000000000000000000000000000000006001600160a01b0316636352211e8361040401838154811061165d5761165d6130aa565b90600052602060002001546040518263ffffffff1660e01b815260040161168691815260200190565b60206040518083038186803b15801561169e57600080fd5b505afa1580156116b2573d6000803e3d6000fd5b505050506040513d601f19601f820116820180604052508101906116d6919061323c565b6001600160a01b0316856001600160a01b0316146116f55760006116f8565b60015b6117059060ff168561310a565b9350611710816130d6565b9050611610565b50506117bc565b6002546001600160a01b0316156117bc5760025460405163dd5c55d160e01b8152600481018690526001600160a01b0385811660248301529091169063dd5c55d19060440160a06040518083038186803b15801561177b57600080fd5b505afa15801561178f573d6000803e3d6000fd5b505050506040513d601f19601f820116820180604052508101906117b39190613259565b50929450925050505b9250929050565b6000806117ce612b44565b6117d6612b44565b60006060600080600454891180156117f057506005548911155b1561196c576006548911156118365760405162461bcd60e51b815260206004820152600c60248201526b23a09d103737ba1037b832b760a11b6044820152606401610578565b600089815260096020526040808220600281015460038201548351618000810194859052919c5063ffffffff169a509092909161040584019161040091908390855b82829054906101000a900462ffffff1662ffffff168152602001906003019060208260020104928301926001038202915080841161187857505060408051618000810191829052959c5060048701945061040093509150839050845b8154815260200190600101908083116118d45750505050509550806104040180548060200260200160405190810160405280929190818152602001828054801561193d57602002820191906000526020600020905b815481526020019060010190808311611929575b505050505093508060030160049054906101000a900460ff169450806000015492508060010154915050611a0e565b6002546001600160a01b031615611a0e57600254604051638c4796c760e01b8152600481018b90526001600160a01b0390911690638c4796c79060240160006040518083038186803b1580156119c157600080fd5b505afa1580156119d5573d6000803e3d6000fd5b505050506040513d6000823e601f3d908101601f191682016040526119fd91908101906132af565b975097509750975097509750975097505b919395975091939597565b6000918252602082815260408084206001600160a01b0393909316845291905290205460ff1690565b6002546060906001600160a01b031615611b35576002546040805163a27b429d60e01b81529051610801926001600160a01b03169163a27b429d916004808301926000929190829003018186803b158015611a9c57600080fd5b505afa158015611ab0573d6000803e3d6000fd5b505050506040513d6000823e601f3d908101601f19168201604052611ad8919081019061304b565b60078054806020026020016040519081016040528092919081815260200182805480156107e857602002820191906000526020600020908154815260200190600101908083116107d457505050505061248a90919063ffffffff16565b60078054806020026020016040519081016040528092919081815260200182805480156112295760200282019190600052602060002090815481526020019060010190808311611215575050505050905090565b611b91612950565b600654811015611bd75760405162461bcd60e51b81526020600482015260116024820152701cdb585b1b081b995dd3585e105c9d1259607a1b6044820152606401610578565b60058054908290556040517f43a414cb4b1b47b3c463b0c42a3d6c39ac99fabc1c1d8eb4b38352485a468aa0906113d49083908590612e80565b611c19612950565b60045482118015611c2c57506005548211155b15611d6e57600654821115611c735760405162461bcd60e51b815260206004820152600d60248201526c29a2aa1d103737ba1037b832b760991b6044820152606401610578565b60008281526009602052604090206003810154600160201b900460ff16600114611cd05760405162461bcd60e51b815260206004820152600e60248201526d5345543a2061727420636c6f736560901b6044820152606401610578565b80548211611d105760405162461bcd60e51b815260206004820152600d60248201526c77726f6e6720656e6454696d6560981b6044820152606401610578565b6001810180549083905583336001600160a01b03167f7132cfe4bb9ab9e686b1a97a765a1dc612414f822883414dfa1fdc5c117e08138386604051611d56929190612e80565b60405180910390a3428311610f6457610f648461221d565b6002546001600160a01b0316156106265760025460405163abfbac4b60e01b81526001600160a01b039091169063abfbac4b90611db19085908590600401612e80565b600060405180830381600087803b158015611dcb57600080fd5b505af1158015611ddf573d6000803e3d6000fd5b505050505050565b60045483118015611dfa57506005548311155b15611ecb57600654831115611e405760405162461bcd60e51b815260206004820152600c60248201526b22281d103737ba1037b832b760a11b6044820152606401610578565b60008381526009602052604090206003810154600160201b900460ff16600114611e9c5760405162461bcd60e51b815260206004820152600d60248201526c44503a2061727420636c6f736560981b6044820152606401610578565b4281600101541015611ec05760405162461bcd60e51b815260040161057890613087565b610f648484846126e8565b6002546001600160a01b0316156108d25760025460405163f79e8bc360e01b81526000916001600160a01b03169063f79e8bc390611f1190879087908690600401612fda565b60206040518083038186803b158015611f2957600080fd5b505afa158015611f3d573d6000803e3d6000fd5b505050506040513d601f19601f82011682018060405250810190611f6191906130f1565b6040516340c10f1960e01b81529091506001600160a01b037f000000000000000000000000000000000000000000000000000000000000000016906340c10f1990611fb29030908590600401613122565b600060405180830381600087803b158015611fcc57600080fd5b505af1158015611fe0573d6000803e3d6000fd5b505060025460405163229b52b560e21b81526001600160a01b039091169250638a6d4ad4915061201d90600090889088908890889060040161313b565b600060405180830381600087803b15801561203757600080fd5b505af115801561204b573d6000803e3d6000fd5b5050600254604051632770a7eb60e21b81526001600160a01b037f000000000000000000000000000000000000000000000000000000000000000081169450639dc29fac93506120a19216908590600401613122565b600060405180830381600087803b1580156120bb57600080fd5b505af11580156120cf573d6000803e3d6000fd5b5050604051632f745c5960e01b8152600092506001600160a01b037f0000000000000000000000000000000000000000000000000000000000000000169150632f745c59906121249030908590600401613122565b60206040518083038186803b15801561213c57600080fd5b505afa158015612150573d6000803e3d6000fd5b505050506040513d601f19601f8201168201806040525081019061217491906130f1565b6040516323b872dd60e01b81529091507f00000000000000000000000000000000000000000000000000000000000000006001600160a01b0316906323b872dd906121c790309033908690600401613163565b600060405180830381600087803b1580156121e157600080fd5b505af11580156121f5573d6000803e3d6000fd5b505050505050505050565b6122098261069d565b612213813361259b565b6108d28383612683565b60005b6007548110156122d757816007828154811061223e5761223e6130aa565b906000526020600020015414156122c5576007805461225f906001906133a1565b8154811061226f5761226f6130aa565b90600052602060002001546007828154811061228d5761228d6130aa565b60009182526020909120015560078054806122aa576122aa6133b8565b600190038181906000526020600020016000905590556122d7565b806122cf816130d6565b915050612220565b5060088054600181019091557ff3f7a9fe364faab93b216da50a3214154f22a0a2b415b23a84c8169e8b636ee301819055600081815260096020526040902060038101805460ff60201b1916600160211b17905561040481015415612459576001546040516340c10f1960e01b81526001600160a01b037f00000000000000000000000000000000000000000000000000000000000000008116926340c10f199261238b9291909116908690600401613122565b600060405180830381600087803b1580156123a557600080fd5b505af11580156123b9573d6000803e3d6000fd5b5050600154604051632716618160e21b815260048101869052600060248201819052604482018190526064820181905260848201526001600160a01b039091169250639c598604915060a401602060405180830381600087803b15801561241f57600080fd5b505af1158015612433573d6000803e3d6000fd5b505050506040513d601f19601f8201168201806040525081019061245791906130f1565b505b604051829033907f6a96f517d3ee81e33c73f21aaf526b9fdbe6e75ab253c205795ceebc9ebebf0b90600090a35050565b60608151835161249a919061310a565b6001600160401b038111156124b1576124b1612ca6565b6040519080825280602002602001820160405280156124da578160200160208202803683370190505b50905060005b8351811015612532578381815181106124fb576124fb6130aa565b6020026020010151828281518110612515576125156130aa565b60209081029190910101528061252a816130d6565b9150506124e0565b60005b835181101561259357838181518110612550576125506130aa565b6020026020010151838380612564906130d6565b945081518110612576576125766130aa565b60209081029190910101528061258b816130d6565b915050612535565b505092915050565b6125a58282611a19565b610626576125bd816001600160a01b031660146129a2565b6125c88360206129a2565b6040516020016125d99291906133fa565b60408051601f198184030181529082905262461bcd60e51b825261057891600401613469565b6126098282611a19565b610626576000828152602081815260408083206001600160a01b03851684529091529020805460ff1916600117905561263f3390565b6001600160a01b0316816001600160a01b0316837f2f8788117e7eff1d82e926ec794901d17c78024a50270940304540a733656f0d60405160405180910390a45050565b61268d8282611a19565b15610626576000828152602081815260408083206001600160a01b0385168085529252808320805460ff1916905551339285917ff6391f5c32d9c69d2a47ea670b442974b53935d1edc7fd64eb21e047a839171b9190a45050565b61040082106127255760405162461bcd60e51b81526020600482015260096024820152680c4d2ce40d2dcc8caf60bb1b6044820152606401610578565b6003546001600160a01b03161561279d57600354604051631b19325d60e01b81526001600160a01b0390911690631b19325d9061276a9086908690869060040161349c565b600060405180830381600087803b15801561278457600080fd5b505af1158015612798573d6000803e3d6000fd5b505050505b604051631f63363960e01b81526000907f00000000000000000000000000000000000000000000000000000000000000006001600160a01b031690631f633639906127ec903390600401612bff565b602060405180830381600087803b15801561280657600080fd5b505af115801561281a573d6000803e3d6000fd5b505050506040513d601f19601f8201168201806040525081019061283e91906130f1565b600085815260096020908152604082206104048101805460038301805463ffffffff191663ffffffff83161790556001810182559084529190922001829055909150826104058201856104008110612898576128986130aa565b600a91828204019190066003026101000a81548162ffffff021916908362ffffff1602179055506000600a60008481526020019081526020016000209050816104050181600201906104006128ee929190612b64565b50600382015463ffffffff16600182015585815585336001600160a01b03167f5e262a7f14bc3559be8bfb15a82dbd75e92ba8b8863387d1c85e06e3d18df2ab8588886040516129409392919061349c565b60405180910390a3505050505050565b6129686000805160206134ee83398151915233611a19565b6129a05760405162461bcd60e51b81526020600482015260096024820152683737ba1030b236b4b760b91b6044820152606401610578565b565b606060006129b18360026134b7565b6129bc90600261310a565b6001600160401b038111156129d3576129d3612ca6565b6040519080825280601f01601f1916602001820160405280156129fd576020820181803683370190505b509050600360fc1b81600081518110612a1857612a186130aa565b60200101906001600160f81b031916908160001a905350600f60fb1b81600181518110612a4757612a476130aa565b60200101906001600160f81b031916908160001a9053506000612a6b8460026134b7565b612a7690600161310a565b90505b6001811115612aee576f181899199a1a9b1b9c1cb0b131b232b360811b85600f1660108110612aaa57612aaa6130aa565b1a60f81b828281518110612ac057612ac06130aa565b60200101906001600160f81b031916908160001a90535060049490941c93612ae7816134d6565b9050612a79565b508315612b3d5760405162461bcd60e51b815260206004820181905260248201527f537472696e67733a20686578206c656e67746820696e73756666696369656e746044820152606401610578565b9392505050565b604051806180000160405280610400906020820280368337509192915050565b606783019183908215612b975791600901600a900482015b82811115612b97578254825591600101919060010190612b7c565b50612ba3929150612ba7565b5090565b5b80821115612ba35760008155600101612ba8565b600060208284031215612bce57600080fd5b81356001600160e01b031981168114612b3d57600080fd5b600060208284031215612bf857600080fd5b5035919050565b6001600160a01b0391909116815260200190565b600081518084526020808501945080840160005b83811015612c4357815187529582019590820190600101612c27565b509495945050505050565b602081526000612b3d6020830184612c13565b6001600160a01b038116811461069a57600080fd5b60008060408385031215612c8957600080fd5b823591506020830135612c9b81612c61565b809150509250929050565b634e487b7160e01b600052604160045260246000fd5b60405161800081016001600160401b0381118282101715612cdf57612cdf612ca6565b60405290565b604051601f8201601f191681016001600160401b0381118282101715612d0d57612d0d612ca6565b604052919050565b60006001600160401b03821115612d2e57612d2e612ca6565b5060051b60200190565b62ffffff8116811461069a57600080fd5b600082601f830112612d5a57600080fd5b81356020612d6f612d6a83612d15565b612ce5565b82815260059290921b84018101918181019086841115612d8e57600080fd5b8286015b84811015612db2578035612da581612d38565b8352918301918301612d92565b509695505050505050565b600080600060608486031215612dd257600080fd5b833592506020808501356001600160401b0380821115612df157600080fd5b818701915087601f830112612e0557600080fd5b8135612e13612d6a82612d15565b81815260059190911b8301840190848101908a831115612e3257600080fd5b938501935b82851015612e5057843582529385019390850190612e37565b965050506040870135925080831115612e6857600080fd5b5050612e7686828701612d49565b9150509250925092565b918252602082015260400190565b600060208284031215612ea057600080fd5b8135612b3d81612c61565b8060005b610400811015610f6457815162ffffff16845260209384019390910190600101612eaf565b6180408101612ee38286612eab565b6180008201939093526180200152919050565b6000620100c08a8352602063ffffffff8b1681850152612f19604085018b612eab565b61804084018960005b610400811015612f4057815183529183019190830190600101612f22565b5050505060ff8716620100408401528062010060840152612f6381840187612c13565b620100808401959095525050620100a001529695505050505050565b60008060408385031215612f9257600080fd5b50508035926020909101359150565b600080600060608486031215612fb657600080fd5b83359250602084013591506040840135612fcf81612d38565b809150509250925092565b9283526020830191909152604082015260600190565b600082601f83011261300157600080fd5b81516020613011612d6a83612d15565b82815260059290921b8401810191818101908684111561303057600080fd5b8286015b84811015612db25780518352918301918301613034565b60006020828403121561305d57600080fd5b81516001600160401b0381111561307357600080fd5b61307f84828501612ff0565b949350505050565b6020808252600990820152686f7665722074696d6560b81b604082015260600190565b634e487b7160e01b600052603260045260246000fd5b634e487b7160e01b600052601160045260246000fd5b60006000198214156130ea576130ea6130c0565b5060010190565b60006020828403121561310357600080fd5b5051919050565b6000821982111561311d5761311d6130c0565b500190565b6001600160a01b03929092168252602082015260400190565b9485526020850193909352604084019190915262ffffff166060830152608082015260a00190565b6001600160a01b039384168152919092166020820152604081019190915260600190565b600082601f83011261319857600080fd5b6131a0612cbc565b806180008401858111156131b357600080fd5b845b818110156131d65780516131c881612d38565b8452602093840193016131b5565b509095945050505050565b600080600061804084860312156131f757600080fd5b6132018585613187565b9250618000840151915061802084015190509250925092565b60006020828403121561322c57600080fd5b81518015158114612b3d57600080fd5b60006020828403121561324e57600080fd5b8151612b3d81612c61565b600080600080600060a0868803121561327157600080fd5b5050835160208501516040860151606087015160809097015192989197509594509092509050565b805160ff811681146132aa57600080fd5b919050565b600080600080600080600080620100c0898b0312156132cd57600080fd5b885197506020808a015163ffffffff811681146132e957600080fd5b97506132f88b60408c01613187565b96508a61805f8b011261330a57600080fd5b613312612cbc565b80620100408c018d81111561332657600080fd5b6180408d015b81811015613343578051845292840192840161332c565b5081985061335081613299565b620100608e0151909850935050506001600160401b03821115905061337457600080fd5b6133808b828c01612ff0565b620100808b0151620100a0909b0151999c989b509699959894979350505050565b6000828210156133b3576133b36130c0565b500390565b634e487b7160e01b600052603160045260246000fd5b60005b838110156133e95781810151838201526020016133d1565b83811115610f645750506000910152565b76020b1b1b2b9b9a1b7b73a3937b61d1030b1b1b7bab73a1604d1b81526000835161342c8160178501602088016133ce565b7001034b99036b4b9b9b4b733903937b6329607d1b601791840191820152835161345d8160288401602088016133ce565b01602801949350505050565b60208152600082518060208401526134888160408501602087016133ce565b601f01601f19169190910160400192915050565b928352602083019190915262ffffff16604082015260600190565b60008160001904831182151516156134d1576134d16130c0565b500290565b6000816134e5576134e56130c0565b50600019019056fea49807205ce4d355092ef5a8a18f56e8913cf4a201fbe287825b095693c21775a264697066735822122096bf9903d85b6ab29cc2620eef42a4b0df6ea02046dc873bf00f7ed955f24d9f64736f6c63430008090033",
  "immutableReferences": {
    "2850": [
      {
        "length": 32,
        "start": 746
      },
      {
        "length": 32,
        "start": 9040
      }
    ],
    "2853": [
      {
        "length": 32,
        "start": 500
      },
      {
        "length": 32,
        "start": 3512
      },
      {
        "length": 32,
        "start": 3674
      },
      {
        "length": 32,
        "start": 5658
      },
      {
        "length": 32,
        "start": 8428
      },
      {
        "length": 32,
        "start": 8582
      },
      {
        "length": 32,
        "start": 10159
      }
    ],
    "2856": [
      {
        "length": 32,
        "start": 3183
      },
      {
        "length": 32,
        "start": 3828
      },
      {
        "length": 32,
        "start": 4728
      },
      {
        "length": 32,
        "start": 8059
      },
      {
        "length": 32,
        "start": 8295
      }
    ]
  },
  "source": "// SPDX-License-Identifier: MIT\n\npragma solidity ^0.8.0;\n\n// ==================== External Imports ====================\n\nimport {AccessControl} from \"@openzeppelin/contracts/access/AccessControl.sol\";\n\n// ==================== Internal Imports ====================\n\nimport {ICanvasManagerV1} from \"./interfaces/ICanvasManagerV1.sol\";\nimport {IDrawHook} from \"./interfaces/IDrawHook.sol\";\nimport {IPixelCoin} from \"./interfaces/IPixelCoin.sol\";\nimport {IMarketProxy} from \"./interfaces/IMarketProxy.sol\";\nimport {ICanvasManagerV2} from \"./interfaces/ICanvasManagerV2.sol\";\n\nimport {Uint256ArrayUtil} from \"./lib/Uint256ArrayUtil.sol\";\n\nimport {PixNft} from \"./PixNft.sol\";\nimport {PixMoment} from \"./PixMoment.sol\";\n\n/**\n * @title CanvasManagerV2\n * @author Matrix\n */\ncontract CanvasManagerV2 is ICanvasManagerV2, AccessControl {\n    using Uint256ArrayUtil for uint256[];\n\n    // ==================== Constants ====================\n\n    bytes32 public constant ADMIN_ROLE = keccak256(\"ADMIN_ROLE\");\n    uint256 public constant PIX_COUNT = 1024; // count of pixels\n    uint256 public constant OLD_MAX_ART_ID = 23; // max art id in old CanvasManager\n\n    // ==================== Variables ====================\n\n    PixNft internal immutable _pixNft; // pixel nft contract\n    PixMoment internal immutable _pixMoment; // moment nft contract\n    IPixelCoin internal immutable _pixelCoin; // pixel coin contract\n    IMarketProxy internal _marketProxy; // market proxy contract\n    ICanvasManagerV1 internal _oldCanvasManager; // old CanvasManager contract\n\n    IDrawHook internal _drawHook; // draw hook function\n\n    /// @notice art id range is (_minArtId, _maxArtId], valid art id begins from _minArtId + 1\n    uint256 internal _minArtId; // min art id\n    uint256 internal _maxArtId; // max art id\n    uint256 internal _curArtId; // max id of opened arts\n\n    uint256[] internal _openArtIds;\n    uint256[] internal _closedArtIds;\n\n    mapping(uint256 => Art) public _arts; // art id => Art\n    mapping(uint256 => Moment) public _moments; // moment id => Moment\n\n    // ==================== Constructor function ====================\n\n    constructor(\n        address nft,\n        address moment,\n        address pixelCoin,\n        address marketProxy,\n        address oldCanvasManager,\n        uint256 minArtId\n    ) {\n        require(nft != address(0), \"zero nft\");\n        require(moment != address(0), \"zero moment\");\n        require(pixelCoin != address(0), \"zero pixelCoin\");\n        require(marketProxy != address(0), \"zero marketProxy\");\n        require(minArtId >= OLD_MAX_ART_ID, \"small minArtId\");\n\n        _setupRole(DEFAULT_ADMIN_ROLE, _msgSender());\n        _setupRole(ADMIN_ROLE, _msgSender());\n\n        _pixNft = PixNft(nft);\n        _pixMoment = PixMoment(moment);\n        _pixelCoin = IPixelCoin(pixelCoin);\n        _marketProxy = IMarketProxy(marketProxy);\n        _oldCanvasManager = ICanvasManagerV1(oldCanvasManager);\n\n        _minArtId = minArtId;\n        _curArtId = minArtId;\n        _maxArtId = minArtId + 1000;\n\n        if (oldCanvasManager != address(0)) {\n            IPixelCoin(pixelCoin).approve(oldCanvasManager, type(uint256).max);\n        }\n    }\n\n    // ==================== Modifier functions ====================\n\n    modifier onlyAdmin() {\n        _onlyAdmin();\n        _;\n    }\n\n    // ==================== External functions ====================\n\n    function getPixNft() external view returns (address) {\n        return address(_pixNft);\n    }\n\n    function getPixMoment() external view returns (address) {\n        return address(_pixMoment);\n    }\n\n    function getOldCanvasManager() external view returns (address) {\n        return address(_oldCanvasManager);\n    }\n\n    /// @notice set _oldCanvasManager to address(0) to disable it\n    /// @dev this function is only called by admin\n    function setOldCanvasManager(address newCanvasManager) external onlyAdmin {\n        address oldCanvasManager = address(_oldCanvasManager);\n        _oldCanvasManager = ICanvasManagerV1(newCanvasManager);\n\n        if (newCanvasManager != address(0)) {\n            _pixelCoin.approve(newCanvasManager, type(uint256).max);\n        }\n\n        emit SetOldCanvasManager(oldCanvasManager, newCanvasManager);\n    }\n\n    function getMarketProxy() external view returns (address) {\n        return address(_marketProxy);\n    }\n\n    /// @dev this function is only called by admin\n    function setMarketProxy(address newMarketProxy) external onlyAdmin {\n        require(newMarketProxy != address(0), \"zero newMarketProxy\");\n\n        address oldMarketProxy = address(_marketProxy);\n        _marketProxy = IMarketProxy(newMarketProxy);\n\n        emit SetMarketProxy(oldMarketProxy, newMarketProxy);\n    }\n\n    function getDrawHook() external view returns (address) {\n        return address(_drawHook);\n    }\n\n    /// @notice set _drawHook to address(0) to disable it\n    /// @dev this function is only called by admin\n    function setDrawHook(address newDrawHook) external onlyAdmin {\n        address oldDrawHook = address(_drawHook);\n        _drawHook = IDrawHook(newDrawHook);\n\n        emit SetDrawHook(oldDrawHook, newDrawHook);\n    }\n\n    function getArtIds()\n        external\n        view\n        returns (\n            uint256 min,\n            uint256 max,\n            uint256 current\n        )\n    {\n        return (_minArtId, _maxArtId, _curArtId);\n    }\n\n    /// @dev this function can only be called by admin\n    function setMinArtId(uint256 newMinArtId) external onlyAdmin {\n        require(_minArtId == _curArtId, \"minArtId is working\");\n\n        uint256 oldMinArtId = _minArtId;\n        _minArtId = newMinArtId;\n\n        emit SetMinArtId(oldMinArtId, newMinArtId);\n    }\n\n    /// @dev this function can only be called by admin\n    function setMaxArtId(uint256 newMaxArtId) external onlyAdmin {\n        require(newMaxArtId >= _curArtId, \"small newMaxArtId\");\n\n        uint256 oldMaxArtId = _maxArtId;\n        _maxArtId = newMaxArtId;\n\n        emit SetMaxArtId(oldMaxArtId, newMaxArtId);\n    }\n\n    function getOpenArts() external view returns (uint256[] memory artIds) {\n        artIds = (address(_oldCanvasManager) == address(0)) ? _openArtIds : _openArtIds.merge(_oldCanvasManager.getOpenArts());\n    }\n\n    function getEndArts() external view returns (uint256[] memory artIds) {\n        artIds = (address(_oldCanvasManager) == address(0)) ? _closedArtIds : _closedArtIds.merge(_oldCanvasManager.getEndArts());\n    }\n\n    function getAllArts() external view returns (uint256[] memory artIds) {\n        artIds = (address(_oldCanvasManager) == address(0))\n            ? _closedArtIds.merge(_openArtIds)\n            : _closedArtIds.merge(_openArtIds).merge(_oldCanvasManager.getAllArts());\n    }\n\n    function getMoment(uint256 uMomentId)\n        external\n        view\n        returns (\n            uint24[1024] memory colors,\n            uint256 momentIndex,\n            uint256 artId\n        )\n    {\n        Moment storage moment = _moments[uMomentId];\n\n        artId = moment.artId;\n        if (artId != 0) {\n            colors = moment.colors;\n            momentIndex = moment.momentIndex;\n        } else if (address(_oldCanvasManager) != address(0)) {\n            (colors, momentIndex, artId) = _oldCanvasManager.getMoment(uMomentId);\n        }\n    }\n\n    /// @notice this function does not check artId is a valid pixel nft id\n    function getShares(uint256 artId, address contributor) external view returns (uint256 individualShares, uint256 totalShares) {\n        if ((artId > _minArtId) && (artId <= _maxArtId)) {\n            individualShares = 0;\n            Art storage art = _arts[artId];\n            totalShares = art.moments.length;\n            for (uint256 i = 0; i < totalShares; ++i) {\n                individualShares += (contributor == _pixMoment.ownerOf(art.moments[i])) ? 1 : 0;\n            }\n        } else if (address(_oldCanvasManager) != address(0)) {\n            (individualShares, , totalShares, , ) = _oldCanvasManager.getNftPorfitInfo(artId, contributor);\n        }\n    }\n\n    /// @dev this function is only called by admin\n    function startNewArt(uint256 endTime) external onlyAdmin returns (uint256 artId) {\n        require(_curArtId < _maxArtId, \"art exhaust\");\n        require(endTime > block.timestamp, \"small endTime\");\n\n        artId = ++_curArtId;\n        _openArtIds.push(artId);\n\n        Art storage art = _arts[artId];\n        art.state = 1; // open\n        art.startTime = block.timestamp;\n        art.endTime = endTime;\n\n        emit NewArt(_msgSender(), artId, art.startTime, art.endTime);\n    }\n\n    /// @dev this function is only called by admin\n    function setEndTime(uint256 artId, uint256 newEndTime) external onlyAdmin {\n        if ((artId > _minArtId) && (artId <= _maxArtId)) {\n            require(artId <= _curArtId, \"SET: not open\");\n\n            Art storage art = _arts[artId];\n            require(art.state == 1, \"SET: art close\");\n            require(newEndTime > art.startTime, \"wrong endTime\");\n            uint256 oldEndTime = art.endTime;\n            art.endTime = newEndTime;\n\n            emit SetArtEndTime(_msgSender(), artId, oldEndTime, newEndTime);\n\n            if (newEndTime <= block.timestamp) {\n                _endArt(artId);\n            }\n        } else if (address(_oldCanvasManager) != address(0)) {\n            _oldCanvasManager.setEndTime(artId, newEndTime);\n        }\n    }\n\n    /// @notice this function can be called by everyone\n    function endArt(uint256 artId) external {\n        if ((artId > _minArtId) && (artId <= _maxArtId)) {\n            require(artId <= _curArtId, \"EA: not open\");\n            Art storage art = _arts[artId];\n\n            require(art.state == 1, \"EA: art close\");\n            require(block.timestamp >= art.endTime, \"too early\");\n\n            _endArt(artId);\n        } else if (address(_oldCanvasManager) != address(0)) {\n            _oldCanvasManager.endArt(artId);\n        }\n    }\n\n    function getArt(uint256 artId)\n        external\n        view\n        returns (\n            uint256 consumToken,\n            uint32 momentIndex,\n            uint24[PIX_COUNT] memory colors,\n            uint256[PIX_COUNT] memory price,\n            uint8 state,\n            uint256[] memory moments,\n            uint256 startTime,\n            uint256 endTime\n        )\n    {\n        if ((artId > _minArtId) && (artId <= _maxArtId)) {\n            require(artId <= _curArtId, \"GA: not open\");\n\n            Art storage art = _arts[artId];\n            consumToken = art.consumToken;\n            momentIndex = art.momentIndex;\n            colors = art.colors;\n            price = art.price;\n            moments = art.moments;\n            state = art.state;\n            startTime = art.startTime;\n            endTime = art.endTime;\n        } else if (address(_oldCanvasManager) != address(0)) {\n            return _oldCanvasManager.getArt(artId);\n        }\n    }\n\n    function drawPixel(\n        uint256 artId,\n        uint256 index,\n        uint24 color\n    ) external {\n        if ((artId > _minArtId) && (artId <= _maxArtId)) {\n            require(artId <= _curArtId, \"DP: not open\");\n            Art storage art = _arts[artId];\n            require(art.state == 1, \"DP: art close\");\n            require(art.endTime >= block.timestamp, \"over time\");\n\n            _drawPixel(artId, index, color);\n        } else if (address(_oldCanvasManager) != address(0)) {\n            uint256 price = _oldCanvasManager.getDrawPrice(artId, index, 0);\n            _pixelCoin.mint(address(this), price);\n\n            _oldCanvasManager.drawPixel(0, artId, index, color, price);\n            _pixelCoin.burn(address(_oldCanvasManager), price);\n\n            uint256 momentId = _pixMoment.tokenOfOwnerByIndex(address(this), 0);\n            _pixMoment.transferFrom(address(this), _msgSender(), momentId);\n        }\n    }\n\n    function drawMultiPixel(\n        uint256 artId,\n        uint256[] memory indexes,\n        uint24[] memory colors\n    ) external {\n        uint256 count = indexes.length;\n        require(count > 0, \"no pixel\");\n        require(count == colors.length, \"indexes mismatch colors\");\n\n        if ((artId > _minArtId) && (artId <= _maxArtId)) {\n            require(artId <= _curArtId, \"DMP: not open\");\n            Art storage art = _arts[artId];\n            require(art.state == 1, \"DMP: art close\");\n            require(art.endTime >= block.timestamp, \"over time\");\n\n            for (uint256 i = 0; i < count; i++) {\n                _drawPixel(artId, indexes[i], colors[i]);\n            }\n        } else if (address(_oldCanvasManager) != address(0)) {\n            uint256 totalPrice = 0;\n            uint256[] memory prices = new uint256[](count);\n            for (uint256 i = 0; i < count; i++) {\n                uint256 price = _oldCanvasManager.getDrawPrice(artId, indexes[i], 0);\n                totalPrice += price;\n                prices[i] = price;\n            }\n\n            _pixelCoin.mint(address(this), totalPrice);\n            for (uint256 i = 0; i < count; i++) {\n                _oldCanvasManager.drawPixel(0, artId, indexes[i], colors[i], prices[i]);\n                uint256 iMomentId = _pixMoment.tokenOfOwnerByIndex(address(this), 0);\n                _pixMoment.transferFrom(address(this), msg.sender, iMomentId);\n            }\n            _pixelCoin.burn(address(_oldCanvasManager), totalPrice);\n        }\n    }\n\n    // ==================== Internal functions ====================\n\n    function _drawPixel(\n        uint256 artId,\n        uint256 index,\n        uint24 color\n    ) internal {\n        require(index < PIX_COUNT, \"big index\");\n\n        if (address(_drawHook) != address(0)) {\n            _drawHook.execute(artId, index, color);\n        }\n\n        uint256 momentId = _pixMoment.mintMoment(_msgSender());\n\n        Art storage art = _arts[artId];\n        art.momentIndex = uint32(art.moments.length);\n        art.moments.push(momentId);\n        art.colors[index] = color;\n\n        Moment storage moment = _moments[momentId];\n        moment.colors = art.colors;\n        moment.momentIndex = art.momentIndex;\n        moment.artId = artId;\n\n        emit DrawPixel(_msgSender(), artId, momentId, index, color);\n    }\n\n    function _endArt(uint256 artId) internal {\n        // move artId from _openArtIds to _closedArtIds\n        for (uint256 i = 0; i < _openArtIds.length; i++) {\n            if (_openArtIds[i] == artId) {\n                _openArtIds[i] = _openArtIds[_openArtIds.length - 1];\n                _openArtIds.pop();\n                break;\n            }\n        }\n        _closedArtIds.push(artId);\n\n        // set end flag\n        Art storage art = _arts[artId];\n        art.state = 2; // end\n\n        // mint and create auction\n        if (art.moments.length > 0) {\n            _pixNft.mint(address(_marketProxy), artId);\n\n            // use default currency, reservePrice, duration in MarketProxy\n            _marketProxy.createAuction(artId, address(0), 0, 0, 0);\n        }\n\n        emit EndArt(_msgSender(), artId);\n    }\n\n    // ==================== Private functions ====================\n\n    function _onlyAdmin() private view {\n        require(hasRole(ADMIN_ROLE, _msgSender()), \"not admin\");\n    }\n}\n",
  "sourcePath": "/home/liudan/matrix/kpixcontract/contracts/CanvasManagerV2.sol",
  "compiler": {
    "name": "solc",
    "version": "0.8.9+commit.e5eed63a.Emscripten.clang"
  },
  "schemaVersion": "3.4.5",
  "updatedAt": "2022-03-07T02:14:05.558Z",
  "networkType": "ethereum",
  "devdoc": {
    "author": "Matrix",
    "kind": "dev",
    "methods": {
      "getRoleAdmin(bytes32)": {
        "details": "Returns the admin role that controls `role`. See {grantRole} and {revokeRole}. To change a role's admin, use {_setRoleAdmin}."
      },
      "grantRole(bytes32,address)": {
        "details": "Grants `role` to `account`. If `account` had not been already granted `role`, emits a {RoleGranted} event. Requirements: - the caller must have ``role``'s admin role."
      },
      "hasRole(bytes32,address)": {
        "details": "Returns `true` if `account` has been granted `role`."
      },
      "renounceRole(bytes32,address)": {
        "details": "Revokes `role` from the calling account. Roles are often managed via {grantRole} and {revokeRole}: this function's purpose is to provide a mechanism for accounts to lose their privileges if they are compromised (such as when a trusted device is misplaced). If the calling account had been granted `role`, emits a {RoleRevoked} event. Requirements: - the caller must be `account`."
      },
      "revokeRole(bytes32,address)": {
        "details": "Revokes `role` from `account`. If `account` had been granted `role`, emits a {RoleRevoked} event. Requirements: - the caller must have ``role``'s admin role."
      },
      "setDrawHook(address)": {
        "details": "this function is only called by admin"
      },
      "setEndTime(uint256,uint256)": {
        "details": "this function is only called by admin"
      },
      "setMarketProxy(address)": {
        "details": "this function is only called by admin"
      },
      "setMaxArtId(uint256)": {
        "details": "this function can only be called by admin"
      },
      "setMinArtId(uint256)": {
        "details": "this function can only be called by admin"
      },
      "setOldCanvasManager(address)": {
        "details": "this function is only called by admin"
      },
      "startNewArt(uint256)": {
        "details": "this function is only called by admin"
      },
      "supportsInterface(bytes4)": {
        "details": "See {IERC165-supportsInterface}."
      }
    },
    "title": "CanvasManagerV2",
    "version": 1
  },
  "userdoc": {
    "kind": "user",
    "methods": {
      "endArt(uint256)": {
        "notice": "this function can be called by everyone"
      },
      "getShares(uint256,address)": {
        "notice": "this function does not check artId is a valid pixel nft id"
      },
      "setDrawHook(address)": {
        "notice": "set _drawHook to address(0) to disable it"
      },
      "setOldCanvasManager(address)": {
        "notice": "set _oldCanvasManager to address(0) to disable it"
      }
    },
    "version": 1
  }
}