{
  "contractName": "Erc721Bank",
  "abi": [
    {
      "inputs": [
        {
          "internalType": "address[]",
          "name": "tokens",
          "type": "address[]"
        },
        {
          "internalType": "address",
          "name": "rewardToken",
          "type": "address"
        },
        {
          "internalType": "uint256",
          "name": "maxReward",
          "type": "uint256"
        },
        {
          "internalType": "uint256",
          "name": "rewardPerBlock",
          "type": "uint256"
        },
        {
          "internalType": "uint256",
          "name": "startBlock",
          "type": "uint256"
        }
      ],
      "stateMutability": "nonpayable",
      "type": "constructor"
    },
    {
      "anonymous": false,
      "inputs": [
        {
          "indexed": true,
          "internalType": "address",
          "name": "caller",
          "type": "address"
        },
        {
          "indexed": true,
          "internalType": "address",
          "name": "to",
          "type": "address"
        },
        {
          "indexed": false,
          "internalType": "uint256",
          "name": "claimAmount",
          "type": "uint256"
        }
      ],
      "name": "Claim",
      "type": "event"
    },
    {
      "anonymous": false,
      "inputs": [
        {
          "indexed": true,
          "internalType": "address",
          "name": "me",
          "type": "address"
        },
        {
          "indexed": false,
          "internalType": "address",
          "name": "operator",
          "type": "address"
        },
        {
          "indexed": false,
          "internalType": "address",
          "name": "from",
          "type": "address"
        },
        {
          "indexed": true,
          "internalType": "uint256",
          "name": "tokenId",
          "type": "uint256"
        }
      ],
      "name": "OnERC721Receive",
      "type": "event"
    },
    {
      "anonymous": false,
      "inputs": [
        {
          "indexed": false,
          "internalType": "address",
          "name": "account",
          "type": "address"
        }
      ],
      "name": "Paused",
      "type": "event"
    },
    {
      "anonymous": false,
      "inputs": [
        {
          "indexed": true,
          "internalType": "bytes32",
          "name": "role",
          "type": "bytes32"
        },
        {
          "indexed": true,
          "internalType": "bytes32",
          "name": "previousAdminRole",
          "type": "bytes32"
        },
        {
          "indexed": true,
          "internalType": "bytes32",
          "name": "newAdminRole",
          "type": "bytes32"
        }
      ],
      "name": "RoleAdminChanged",
      "type": "event"
    },
    {
      "anonymous": false,
      "inputs": [
        {
          "indexed": true,
          "internalType": "bytes32",
          "name": "role",
          "type": "bytes32"
        },
        {
          "indexed": true,
          "internalType": "address",
          "name": "account",
          "type": "address"
        },
        {
          "indexed": true,
          "internalType": "address",
          "name": "sender",
          "type": "address"
        }
      ],
      "name": "RoleGranted",
      "type": "event"
    },
    {
      "anonymous": false,
      "inputs": [
        {
          "indexed": true,
          "internalType": "bytes32",
          "name": "role",
          "type": "bytes32"
        },
        {
          "indexed": true,
          "internalType": "address",
          "name": "account",
          "type": "address"
        },
        {
          "indexed": true,
          "internalType": "address",
          "name": "sender",
          "type": "address"
        }
      ],
      "name": "RoleRevoked",
      "type": "event"
    },
    {
      "anonymous": false,
      "inputs": [
        {
          "indexed": true,
          "internalType": "address",
          "name": "caller",
          "type": "address"
        },
        {
          "indexed": false,
          "internalType": "uint256",
          "name": "currentBlock",
          "type": "uint256"
        },
        {
          "indexed": false,
          "internalType": "uint256",
          "name": "oldMaxReward",
          "type": "uint256"
        },
        {
          "indexed": false,
          "internalType": "uint256",
          "name": "newMaxReward",
          "type": "uint256"
        }
      ],
      "name": "SetMaxReward",
      "type": "event"
    },
    {
      "anonymous": false,
      "inputs": [
        {
          "indexed": true,
          "internalType": "address",
          "name": "caller",
          "type": "address"
        },
        {
          "indexed": false,
          "internalType": "uint256",
          "name": "currentBlock",
          "type": "uint256"
        },
        {
          "indexed": false,
          "internalType": "uint256",
          "name": "oldValue",
          "type": "uint256"
        },
        {
          "indexed": false,
          "internalType": "uint256",
          "name": "newValue",
          "type": "uint256"
        }
      ],
      "name": "SetRewardPerBlock",
      "type": "event"
    },
    {
      "anonymous": false,
      "inputs": [
        {
          "indexed": true,
          "internalType": "address",
          "name": "caller",
          "type": "address"
        },
        {
          "indexed": true,
          "internalType": "address",
          "name": "owner",
          "type": "address"
        },
        {
          "indexed": false,
          "internalType": "address",
          "name": "token",
          "type": "address"
        },
        {
          "indexed": false,
          "internalType": "uint256",
          "name": "tokenId",
          "type": "uint256"
        },
        {
          "indexed": false,
          "internalType": "uint256",
          "name": "currentStakeAmount",
          "type": "uint256"
        }
      ],
      "name": "Stake",
      "type": "event"
    },
    {
      "anonymous": false,
      "inputs": [
        {
          "indexed": false,
          "internalType": "address",
          "name": "account",
          "type": "address"
        }
      ],
      "name": "Unpaused",
      "type": "event"
    },
    {
      "anonymous": false,
      "inputs": [
        {
          "indexed": true,
          "internalType": "address",
          "name": "caller",
          "type": "address"
        },
        {
          "indexed": false,
          "internalType": "address",
          "name": "token",
          "type": "address"
        },
        {
          "indexed": false,
          "internalType": "uint256",
          "name": "tokenId",
          "type": "uint256"
        },
        {
          "indexed": false,
          "internalType": "uint256",
          "name": "currentStakeAmount",
          "type": "uint256"
        }
      ],
      "name": "Unstake",
      "type": "event"
    },
    {
      "anonymous": false,
      "inputs": [
        {
          "indexed": true,
          "internalType": "address",
          "name": "caller",
          "type": "address"
        },
        {
          "indexed": true,
          "internalType": "uint256",
          "name": "currentBlock",
          "type": "uint256"
        },
        {
          "indexed": false,
          "internalType": "uint256",
          "name": "newReward",
          "type": "uint256"
        },
        {
          "indexed": false,
          "internalType": "uint256",
          "name": "currentReward",
          "type": "uint256"
        },
        {
          "indexed": false,
          "internalType": "uint256",
          "name": "currentSharePrice",
          "type": "uint256"
        }
      ],
      "name": "UpdateData",
      "type": "event"
    },
    {
      "inputs": [],
      "name": "ADMIN_ROLE",
      "outputs": [
        {
          "internalType": "bytes32",
          "name": "",
          "type": "bytes32"
        }
      ],
      "stateMutability": "view",
      "type": "function",
      "constant": true
    },
    {
      "inputs": [],
      "name": "DEFAULT_ADMIN_ROLE",
      "outputs": [
        {
          "internalType": "bytes32",
          "name": "",
          "type": "bytes32"
        }
      ],
      "stateMutability": "view",
      "type": "function",
      "constant": true
    },
    {
      "inputs": [
        {
          "internalType": "bytes32",
          "name": "role",
          "type": "bytes32"
        }
      ],
      "name": "getRoleAdmin",
      "outputs": [
        {
          "internalType": "bytes32",
          "name": "",
          "type": "bytes32"
        }
      ],
      "stateMutability": "view",
      "type": "function",
      "constant": true
    },
    {
      "inputs": [
        {
          "internalType": "bytes32",
          "name": "role",
          "type": "bytes32"
        },
        {
          "internalType": "address",
          "name": "account",
          "type": "address"
        }
      ],
      "name": "grantRole",
      "outputs": [],
      "stateMutability": "nonpayable",
      "type": "function"
    },
    {
      "inputs": [
        {
          "internalType": "bytes32",
          "name": "role",
          "type": "bytes32"
        },
        {
          "internalType": "address",
          "name": "account",
          "type": "address"
        }
      ],
      "name": "hasRole",
      "outputs": [
        {
          "internalType": "bool",
          "name": "",
          "type": "bool"
        }
      ],
      "stateMutability": "view",
      "type": "function",
      "constant": true
    },
    {
      "inputs": [],
      "name": "paused",
      "outputs": [
        {
          "internalType": "bool",
          "name": "",
          "type": "bool"
        }
      ],
      "stateMutability": "view",
      "type": "function",
      "constant": true
    },
    {
      "inputs": [
        {
          "internalType": "bytes32",
          "name": "role",
          "type": "bytes32"
        },
        {
          "internalType": "address",
          "name": "account",
          "type": "address"
        }
      ],
      "name": "renounceRole",
      "outputs": [],
      "stateMutability": "nonpayable",
      "type": "function"
    },
    {
      "inputs": [
        {
          "internalType": "bytes32",
          "name": "role",
          "type": "bytes32"
        },
        {
          "internalType": "address",
          "name": "account",
          "type": "address"
        }
      ],
      "name": "revokeRole",
      "outputs": [],
      "stateMutability": "nonpayable",
      "type": "function"
    },
    {
      "stateMutability": "payable",
      "type": "receive",
      "payable": true
    },
    {
      "inputs": [],
      "name": "pause",
      "outputs": [],
      "stateMutability": "nonpayable",
      "type": "function"
    },
    {
      "inputs": [],
      "name": "unpause",
      "outputs": [],
      "stateMutability": "nonpayable",
      "type": "function"
    },
    {
      "inputs": [
        {
          "internalType": "address",
          "name": "operator",
          "type": "address"
        },
        {
          "internalType": "address",
          "name": "from",
          "type": "address"
        },
        {
          "internalType": "uint256",
          "name": "tokenId",
          "type": "uint256"
        },
        {
          "internalType": "bytes",
          "name": "",
          "type": "bytes"
        }
      ],
      "name": "onERC721Received",
      "outputs": [
        {
          "internalType": "bytes4",
          "name": "",
          "type": "bytes4"
        }
      ],
      "stateMutability": "nonpayable",
      "type": "function"
    },
    {
      "inputs": [],
      "name": "getInfo",
      "outputs": [
        {
          "internalType": "address[]",
          "name": "stakeTokens",
          "type": "address[]"
        },
        {
          "internalType": "address",
          "name": "rewardToken",
          "type": "address"
        },
        {
          "internalType": "uint256",
          "name": "startBlock",
          "type": "uint256"
        },
        {
          "internalType": "uint256",
          "name": "maxReward",
          "type": "uint256"
        },
        {
          "internalType": "uint256",
          "name": "rewardPerBlock",
          "type": "uint256"
        }
      ],
      "stateMutability": "view",
      "type": "function",
      "constant": true
    },
    {
      "inputs": [],
      "name": "getStatus",
      "outputs": [
        {
          "internalType": "uint256",
          "name": "userCount",
          "type": "uint256"
        },
        {
          "internalType": "uint256",
          "name": "stakeAmount",
          "type": "uint256"
        },
        {
          "internalType": "uint256",
          "name": "unstakeSum",
          "type": "uint256"
        },
        {
          "internalType": "uint256",
          "name": "rewardAmount",
          "type": "uint256"
        },
        {
          "internalType": "uint256",
          "name": "claimSum",
          "type": "uint256"
        },
        {
          "internalType": "uint256",
          "name": "sharePrice",
          "type": "uint256"
        },
        {
          "internalType": "uint256",
          "name": "lastUpdateBlock",
          "type": "uint256"
        }
      ],
      "stateMutability": "view",
      "type": "function",
      "constant": true
    },
    {
      "inputs": [
        {
          "internalType": "address",
          "name": "account",
          "type": "address"
        }
      ],
      "name": "getUserInfo",
      "outputs": [
        {
          "internalType": "uint256",
          "name": "stakeAmount",
          "type": "uint256"
        },
        {
          "internalType": "uint256",
          "name": "sharePrice",
          "type": "uint256"
        },
        {
          "internalType": "uint256",
          "name": "rewardAmount",
          "type": "uint256"
        },
        {
          "internalType": "address[]",
          "name": "tokens",
          "type": "address[]"
        },
        {
          "internalType": "uint256[]",
          "name": "tokenIds",
          "type": "uint256[]"
        }
      ],
      "stateMutability": "view",
      "type": "function",
      "constant": true
    },
    {
      "inputs": [
        {
          "internalType": "address",
          "name": "account",
          "type": "address"
        },
        {
          "internalType": "uint256",
          "name": "currentBlock",
          "type": "uint256"
        }
      ],
      "name": "getReward",
      "outputs": [
        {
          "internalType": "uint256",
          "name": "",
          "type": "uint256"
        }
      ],
      "stateMutability": "view",
      "type": "function",
      "constant": true
    },
    {
      "inputs": [
        {
          "internalType": "address",
          "name": "token",
          "type": "address"
        }
      ],
      "name": "addStakeToken",
      "outputs": [],
      "stateMutability": "nonpayable",
      "type": "function"
    },
    {
      "inputs": [
        {
          "internalType": "address",
          "name": "token",
          "type": "address"
        }
      ],
      "name": "removeStakeToken",
      "outputs": [],
      "stateMutability": "nonpayable",
      "type": "function"
    },
    {
      "inputs": [
        {
          "internalType": "address[]",
          "name": "tokens",
          "type": "address[]"
        },
        {
          "internalType": "uint256[]",
          "name": "tokenIds",
          "type": "uint256[]"
        }
      ],
      "name": "stakeSomeTokens",
      "outputs": [],
      "stateMutability": "nonpayable",
      "type": "function"
    },
    {
      "inputs": [
        {
          "internalType": "address",
          "name": "token",
          "type": "address"
        },
        {
          "internalType": "uint256",
          "name": "tokenId",
          "type": "uint256"
        }
      ],
      "name": "stakeOneToken",
      "outputs": [],
      "stateMutability": "nonpayable",
      "type": "function"
    },
    {
      "inputs": [
        {
          "internalType": "address[]",
          "name": "tokens",
          "type": "address[]"
        },
        {
          "internalType": "uint256[]",
          "name": "tokenIds",
          "type": "uint256[]"
        }
      ],
      "name": "unstakeSomeTokens",
      "outputs": [],
      "stateMutability": "nonpayable",
      "type": "function"
    },
    {
      "inputs": [
        {
          "internalType": "address",
          "name": "token",
          "type": "address"
        },
        {
          "internalType": "uint256",
          "name": "tokenId",
          "type": "uint256"
        }
      ],
      "name": "unstakeOneToken",
      "outputs": [],
      "stateMutability": "nonpayable",
      "type": "function"
    },
    {
      "inputs": [
        {
          "internalType": "address",
          "name": "to",
          "type": "address"
        }
      ],
      "name": "claim",
      "outputs": [],
      "stateMutability": "nonpayable",
      "type": "function"
    },
    {
      "inputs": [],
      "name": "updateData",
      "outputs": [],
      "stateMutability": "nonpayable",
      "type": "function"
    },
    {
      "inputs": [
        {
          "internalType": "uint256",
          "name": "newMaxReward",
          "type": "uint256"
        }
      ],
      "name": "setMaxReward",
      "outputs": [],
      "stateMutability": "nonpayable",
      "type": "function"
    },
    {
      "inputs": [
        {
          "internalType": "uint256",
          "name": "newRewardPerBlock",
          "type": "uint256"
        }
      ],
      "name": "setRewardPerBlock",
      "outputs": [],
      "stateMutability": "nonpayable",
      "type": "function"
    },
    {
      "inputs": [
        {
          "internalType": "bytes4",
          "name": "interfaceId",
          "type": "bytes4"
        }
      ],
      "name": "supportsInterface",
      "outputs": [
        {
          "internalType": "bool",
          "name": "",
          "type": "bool"
        }
      ],
      "stateMutability": "view",
      "type": "function",
      "constant": true
    }
  ],
  "bytecode": "0x60c06040523480156200001157600080fd5b5060405162002fa038038062002fa083398101604081905262000034916200039b565b6001805460ff19169055620000558562000150602090811b6200131c17901c565b15620000a75760405162461bcd60e51b815260206004820152601560248201527f6475706c6963617465207374616b6520746f6b656e0000000000000000000000604482015260640160405180910390fd5b620000b460003362000237565b620000e07fa49807205ce4d355092ef5a8a18f56e8913cf4a201fbe287825b095693c217753362000237565b80620000e95750435b8451620000fe906002906020880190620002e7565b506001600160a01b03841660805260a081905260038190556200012a670de0b6b3a764000084620004b2565b60045562000141670de0b6b3a764000083620004b2565b600555506200053d9350505050565b60006001825111156200022f576000600183516200016f9190620004d4565b905060005b818110156200022c576000848281518110620001945762000194620004ee565b602002602001015190506000826001620001af919062000504565b90505b85518110156200021457858181518110620001d157620001d1620004ee565b60200260200101516001600160a01b0316826001600160a01b03161415620001ff5750600195945050505050565b806200020b816200051f565b915050620001b2565b5050808062000223906200051f565b91505062000174565b50505b506000919050565b62000243828262000247565b5050565b6000828152602081815260408083206001600160a01b038516845290915290205460ff1662000243576000828152602081815260408083206001600160a01b03851684529091529020805460ff19166001179055620002a33390565b6001600160a01b0316816001600160a01b0316837f2f8788117e7eff1d82e926ec794901d17c78024a50270940304540a733656f0d60405160405180910390a45050565b8280548282559060005260206000209081019282156200033f579160200282015b828111156200033f57825182546001600160a01b0319166001600160a01b0390911617825560209092019160019091019062000308565b506200034d92915062000351565b5090565b5b808211156200034d576000815560010162000352565b634e487b7160e01b600052604160045260246000fd5b80516001600160a01b03811681146200039657600080fd5b919050565b600080600080600060a08688031215620003b457600080fd5b85516001600160401b0380821115620003cc57600080fd5b818801915088601f830112620003e157600080fd5b8151602082821115620003f857620003f862000368565b8160051b604051601f19603f8301168101818110868211171562000420576200042062000368565b60405292835281830193508481018201928c8411156200043f57600080fd5b948201945b83861015620004685762000458866200037e565b8552948201949382019362000444565b99506200047990508a82016200037e565b60408b015160608c01516080909c01519a9d919c509a9998509650505050505050565b634e487b7160e01b600052601160045260246000fd5b6000816000190483118215151615620004cf57620004cf6200049c565b500290565b600082821015620004e957620004e96200049c565b500390565b634e487b7160e01b600052603260045260246000fd5b600082198211156200051a576200051a6200049c565b500190565b60006000198214156200053657620005366200049c565b5060010190565b60805160a051612a366200056a6000396000610c2901526000818161088b0152610c080152612a366000f3fe6080604052600436106101355760003560e01c8063011e5f301461014157806301ffc9a714610163578063150b7a02146101a9578063166866c7146101e25780631e83409a146102025780631fecb71a14610222578063248a9ca31461024257806325c33e13146102705780632f2ff15d1461029057806336568abe146102b05780633f4ba83a146102d05780634e69d560146102e55780635a9b0b891461032f5780635c975abb146103555780636386c1c71461036d5780636a5048f71461039e57806375b238fc146103be5780638456cb59146103e05780638e00a2bb146103f557806391d148541461040a578063a217fddf1461042a578063b5233e2e1461043f578063bb872b4a1461045f578063d547741f1461047f578063ec907a051461049f578063f474c8ce146104bf57600080fd5b3661013c57005b600080fd5b34801561014d57600080fd5b5061016161015c36600461247c565b6104df565b005b34801561016f57600080fd5b5061019461017e3660046124a8565b6001600160e01b031916630a85bd0160e11b1490565b60405190151581526020015b60405180910390f35b3480156101b557600080fd5b506101c96101c43660046124d2565b61055c565b6040516001600160e01b031990911681526020016101a0565b3480156101ee57600080fd5b506101616101fd366004612570565b6105b8565b34801561020e57600080fd5b5061016161021d366004612570565b61067f565b34801561022e57600080fd5b5061016161023d366004612570565b610944565b34801561024e57600080fd5b5061026261025d36600461258d565b610a48565b6040519081526020016101a0565b34801561027c57600080fd5b5061016161028b36600461258d565b610a5d565b34801561029c57600080fd5b506101616102ab3660046125a6565b610ae6565b3480156102bc57600080fd5b506101616102cb3660046125a6565b610b08565b3480156102dc57600080fd5b50610161610b82565b3480156102f157600080fd5b506102fa610b94565b604080519788526020880196909652948601939093526060850191909152608084015260a083015260c082015260e0016101a0565b34801561033b57600080fd5b50610344610bfc565b6040516101a095949392919061261a565b34801561036157600080fd5b5060015460ff16610194565b34801561037957600080fd5b5061038d610388366004612570565b610cdd565b6040516101a095949392919061265a565b3480156103aa57600080fd5b506101616103b936600461247c565b610ee7565b3480156103ca57600080fd5b506102626000805160206129e183398151915281565b3480156103ec57600080fd5b50610161610f3c565b34801561040157600080fd5b50610161610f4c565b34801561041657600080fd5b506101946104253660046125a6565b610f55565b34801561043657600080fd5b50610262600081565b34801561044b57600080fd5b5061016161045a366004612707565b610f7e565b34801561046b57600080fd5b5061016161047a36600461258d565b61102f565b34801561048b57600080fd5b5061016161049a3660046125a6565b6110ac565b3480156104ab57600080fd5b506101616104ba366004612707565b6110c9565b3480156104cb57600080fd5b506102626104da36600461247c565b611187565b60015460ff161561050b5760405162461bcd60e51b815260040161050290612772565b60405180910390fd5b610514436113ef565b6001600160a01b038216156105585761052d82826114e9565b6009805490600061053d836127b2565b9091555050600a8054906000610552836127c9565b91905055505b5050565b604080516001600160a01b03878116825286166020820152600091859130917f1d52835f1f2ba4874979a1111f60660fc541233b8c8506ff56331a93d4f3bbf7910160405180910390a350630a85bd0160e11b95945050505050565b6105c06119a7565b61062d81600280548060200260200160405190810160405280929190818152602001828054801561061a57602002820191906000526020600020905b81546001600160a01b031681526001909101906020018083116105fc575b50505050506119f790919063ffffffff16565b6106715760405162461bcd60e51b81526020600482015260156024820152743932b6b7bb32903737b732bc34b9ba103a37b5b2b760591b6044820152606401610502565b61067c600282611a0d565b50565b60015460ff16156106a25760405162461bcd60e51b815260040161050290612772565b6001600160a01b0381166106b35750335b6106bc436113ef565b6001600160a01b0381166000908152600760209081526040808320815160a0810183528154815260018201548185015260028201548184015260038201805484518187028101870190955280855292959491938693606086019391929183018282801561075257602002820191906000526020600020905b81546001600160a01b03168152600190910190602001808311610734575b50505050508152602001600482018054806020026020016040519081016040528092919081815260200182805480156107aa57602002820191906000526020600020905b815481526020019060010190808311610796575b50505050508152505090506000600654905060008260200151826107ce91906127e4565b83516107da91906127fb565b905060008184604001516107ee919061281a565b90506000610804670de0b6b3a764000083612832565b9050600061081a670de0b6b3a7640000836127fb565b60018801869055905061082d81846127e4565b876002018190555080600c6000828254610847919061281a565b9250508190555080600b600082825461086091906127e4565b90915550506040516340c10f1960e01b81526001600160a01b038981166004830152602482018490527f000000000000000000000000000000000000000000000000000000000000000016906340c10f1990604401600060405180830381600087803b1580156108cf57600080fd5b505af11580156108e3573d6000803e3d6000fd5b50505050876001600160a01b03166108f83390565b6001600160a01b03167f70eb43c4a8ae8c40502dcf22436c509c28d6ff421cf07c491be56984bd9870688460405161093291815260200190565b60405180910390a35050505050505050565b61094c6119a7565b6109b781600280548060200260200160405190810160405280929190818152602001828054801561061a576020028201919060005260206000209081546001600160a01b031681526001909101906020018083116105fc5750505050506119f790919063ffffffff16565b156109f65760405162461bcd60e51b815260206004820152600f60248201526e30b2321032bc34b9ba103a37b5b2b760891b6044820152606401610502565b600280546001810182556000919091527f405787fa12a823e0f2b7631cc41b3ba8828b3321ca811111fa75cd3aa3bb5ace0180546001600160a01b0319166001600160a01b0392909216919091179055565b60009081526020819052604090206001015490565b610a656119a7565b610a6e436113ef565b6000670de0b6b3a7640000600454610a869190612832565b9050610a9a670de0b6b3a7640000836127fb565b600455336001600160a01b03167f2ef44f5b40949cc1fdacb3734e9deec52372868867f3e11fa2735c13e49c7a75438385604051610ada93929190612854565b60405180910390a25050565b610aef82610a48565b610af98133611b5f565b610b038383611bc3565b505050565b6001600160a01b0381163314610b785760405162461bcd60e51b815260206004820152602f60248201527f416363657373436f6e74726f6c3a2063616e206f6e6c792072656e6f756e636560448201526e103937b632b9903337b91039b2b63360891b6064820152608401610502565b6105588282611c47565b610b8a6119a7565b610b92611cac565b565b600854600954600a54600b54600090819081908190610bbc90670de0b6b3a764000090612832565b9350670de0b6b3a7640000600c54610bd49190612832565b9250670de0b6b3a7640000600654610bec9190612832565b9150600354905090919293949596565b606060008060008060027f00000000000000000000000000000000000000000000000000000000000000007f0000000000000000000000000000000000000000000000000000000000000000670de0b6b3a7640000600454610c5e9190612832565b670de0b6b3a7640000600554610c749190612832565b845460408051602080840282018101909252828152918791830182828015610cc557602002820191906000526020600020905b81546001600160a01b03168152600190910190602001808311610ca7575b50505050509450945094509450945094509091929394565b6000806000606080600060076000886001600160a01b03166001600160a01b031681526020019081526020016000206040518060a001604052908160008201548152602001600182015481526020016002820154815260200160038201805480602002602001604051908101604052809291908181526020018280548015610d8e57602002820191906000526020600020905b81546001600160a01b03168152600190910190602001808311610d70575b5050505050815260200160048201805480602002602001604051908101604052809291908181526020018280548015610de657602002820191906000526020600020905b815481526020019060010190808311610dd2575b5050509190925250506009546006546003549394504393919250908084118015610e0f57508215155b15610e7357600454600b546000610e2684886127e4565b600554610e3391906127fb565b90506000610e41828461281a565b905083811115610e5857610e5583856127e4565b91505b610e628783612832565b610e6c908761281a565b9550505050505b84519950610e89670de0b6b3a764000083612832565b9850670de0b6b3a76400008560400151866020015184610ea991906127e4565b8751610eb591906127fb565b610ebf919061281a565b610ec99190612832565b97508460600151965084608001519550505050505091939590929450565b60015460ff1615610f0a5760405162461bcd60e51b815260040161050290612772565b610f13436113ef565b6001600160a01b0382161561055857610f2c8282611d3f565b60098054906000610552836127c9565b610f446119a7565b610b926121fe565b610b92436113ef565b6000918252602082815260408084206001600160a01b0393909316845291905290205460ff1690565b60015460ff1615610fa15760405162461bcd60e51b815260040161050290612772565b80610fab436113ef565b60005b8181101561101057610ffe868683818110610fcb57610fcb61286a565b9050602002016020810190610fe09190612570565b858584818110610ff257610ff261286a565b90506020020135611d3f565b80611008816127c9565b915050610fae565b508060096000828254611023919061281a565b90915550505050505050565b6110376119a7565b611040436113ef565b6000670de0b6b3a76400006005546110589190612832565b905061106c670de0b6b3a7640000836127fb565b600555336001600160a01b03167f185d041f09f1e2fd455b76dab8cd39a44bb6dd776b055bd28c64b335296d7ab3438385604051610ada93929190612854565b6110b582610a48565b6110bf8133611b5f565b610b038383611c47565b60015460ff16156110ec5760405162461bcd60e51b815260040161050290612772565b806110f6436113ef565b60005b8181101561115b576111498686838181106111165761111661286a565b905060200201602081019061112b9190612570565b85858481811061113d5761113d61286a565b905060200201356114e9565b80611153816127c9565b9150506110f9565b50806009600082825461116e91906127e4565b9250508190555080600a6000828254611023919061281a565b600081611192574391505b60095460065460035480851180156111a957508215155b156111dd57826111b982876127e4565b6005546111c691906127fb565b6111d09190612832565b6111da908361281a565b91505b6001600160a01b0386166000908152600760209081526040808320815160a0810183528154815260018201548185015260028201548184015260038201805484518187028101870190955280855291949293606086019390929083018282801561127057602002820191906000526020600020905b81546001600160a01b03168152600190910190602001808311611252575b50505050508152602001600482018054806020026020016040519081016040528092919081815260200182805480156112c857602002820191906000526020600020905b8154815260200190600101908083116112b4575b5050505050815250509050670de0b6b3a764000081604001518260200151856112f191906127e4565b83516112fd91906127fb565b611307919061281a565b6113119190612832565b979650505050505050565b60006001825111156113e75760006001835161133891906127e4565b905060005b818110156113e45760008482815181106113595761135961286a565b602002602001015190506000826001611372919061281a565b90505b85518110156113cf578581815181106113905761139061286a565b60200260200101516001600160a01b0316826001600160a01b031614156113bd5750600195945050505050565b806113c7816127c9565b915050611375565b505080806113dc906127c9565b91505061133d565b50505b506000919050565b6003548082116113fd575050565b6009548061140c575050600355565b600454600b54600061141e85876127e4565b60055461142b91906127fb565b9050600081600b5461143d919061281a565b9050838111156114575761145183856127e4565b91508390505b60006114638684612832565b600654611470919061281a565b6006819055600b8390556003899055905087337f6ac5f7d4f6041a51f8f957bdc94b6e096789b65498ac24f4dc111c5ad9335f876114b6670de0b6b3a764000087612832565b6114c8670de0b6b3a764000087612832565b6114da670de0b6b3a764000087612832565b60405161093293929190612854565b6001600160a01b0382166115345760405162461bcd60e51b81526020600482015260126024820152713ab739ba30b5b2903d32b937903a37b5b2b760711b6044820152606401610502565b806115785760405162461bcd60e51b81526020600482015260146024820152731d5b9cdd185ad9481e995c9bc81d1bdad95b925960621b6044820152606401610502565b336000908152600760209081526040808320815160a0810183528154815260018201548185015260028201548184015260038201805484518187028101870190955280855292959491938693606086019391929183018282801561160557602002820191906000526020600020905b81546001600160a01b031681526001909101906020018083116115e7575b505050505081526020016004820180548060200260200160405190810160405280929190818152602001828054801561165d57602002820191906000526020600020905b815481526020019060010190808311611649575b505050505081525050905060008160000151116116ad5760405162461bcd60e51b815260206004820152600e60248201526d37379039ba30b5b2903a37b5b2b760911b6044820152606401610502565b60008060018360800151516116c291906127e4565b90505b8082116117425784836080015183815181106116e3576116e361286a565b60200260200101511480156117265750856001600160a01b0316836060015183815181106117135761171361286a565b60200260200101516001600160a01b0316145b1561173057611742565b8161173a816127c9565b9250506116c5565b8082111561178b5760405162461bcd60e51b81526020600482015260166024820152753ab739ba30b5b2903737b732bc34b9ba103a37b5b2b760511b6044820152606401610502565b604051632142170760e11b81526001600160a01b038716906342842e0e906117bb90309033908a90600401612880565b600060405180830381600087803b1580156117d557600080fd5b505af11580156117e9573d6000803e3d6000fd5b505050506117f6436113ef565b8260600151818151811061180c5761180c61286a565b60200260200101518460030183815481106118295761182961286a565b9060005260206000200160006101000a8154816001600160a01b0302191690836001600160a01b031602179055508360030180548061186a5761186a6128a4565b600082815260209020810160001990810180546001600160a01b031916905501905560808301518051829081106118a3576118a361286a565b60200260200101518460040183815481106118c0576118c061286a565b600091825260209091200155600484018054806118df576118df6128a4565b6001900381819060005260206000200160009055905560006006549050600084602001518261190e91906127e4565b855161191a91906127fb565b9050600081866040015161192e919061281a565b905060006001876000015161194391906127e4565b60018901859055808955600289018390559050336001600160a01b03167f18edd09e80386cd99df397e2e0d87d2bb259423eae08645e776321a36fe680ef8b8b84604051611993939291906128ba565b60405180910390a250505050505050505050565b6119bf6000805160206129e183398151915233610f55565b610b925760405162461bcd60e51b81526020600482015260096024820152683737ba1030b236b4b760b91b6044820152606401610502565b600080611a048484612254565b95945050505050565b600080611a7384805480602002602001604051908101604052809291908181526020018280548015611a6857602002820191906000526020600020905b81546001600160a01b03168152600190910190602001808311611a4a575b505050505084612254565b9150915080611aa95760405162461bcd60e51b8152602060048201526002602482015261209960f11b6044820152606401610502565b83548490611ab9906001906127e4565b81548110611ac957611ac961286a565b9060005260206000200160009054906101000a90046001600160a01b0316848381548110611af957611af961286a565b9060005260206000200160006101000a8154816001600160a01b0302191690836001600160a01b0316021790555083805480611b3757611b376128a4565b600082815260209020810160001990810180546001600160a01b031916905501905550505050565b611b698282610f55565b61055857611b81816001600160a01b031660146122c5565b611b8c8360206122c5565b604051602001611b9d92919061290b565b60408051601f198184030181529082905262461bcd60e51b82526105029160040161297a565b611bcd8282610f55565b610558576000828152602081815260408083206001600160a01b03851684529091529020805460ff19166001179055611c033390565b6001600160a01b0316816001600160a01b0316837f2f8788117e7eff1d82e926ec794901d17c78024a50270940304540a733656f0d60405160405180910390a45050565b611c518282610f55565b15610558576000828152602081815260408083206001600160a01b0385168085529252808320805460ff1916905551339285917ff6391f5c32d9c69d2a47ea670b442974b53935d1edc7fd64eb21e047a839171b9190a45050565b60015460ff16611cf55760405162461bcd60e51b815260206004820152601460248201527314185d5cd8589b194e881b9bdd081c185d5cd95960621b6044820152606401610502565b6001805460ff191690557f5db9ee0a495bf2e6ff9c91a7834c1ba4fdd244a5e8aa4e537bd38aeae4b073aa335b6040516001600160a01b03909116815260200160405180910390a1565b6001600160a01b038216611d885760405162461bcd60e51b815260206004820152601060248201526f39ba30b5b2903d32b937903a37b5b2b760811b6044820152606401610502565b80611dca5760405162461bcd60e51b81526020600482015260126024820152711cdd185ad9481e995c9bc81d1bdad95b925960721b6044820152606401610502565b611e3582600280548060200260200160405190810160405280929190818152602001828054801561061a576020028201919060005260206000209081546001600160a01b031681526001909101906020018083116105fc5750505050506119f790919063ffffffff16565b611e755760405162461bcd60e51b81526020600482015260116024820152703737ba1032b730b13632b2103a37b5b2b760791b6044820152606401610502565b6040516331a9108f60e11b8152600481018290526000906001600160a01b03841690636352211e9060240160206040518083038186803b158015611eb857600080fd5b505afa158015611ecc573d6000803e3d6000fd5b505050506040513d601f19601f82011682018060405250810190611ef091906129ad565b90506001600160a01b038116301415611f3c5760405162461bcd60e51b815260206004820152600e60248201526d185b1c9958591e481cdd185ad95960921b6044820152606401610502565b604051632142170760e11b81526001600160a01b038416906342842e0e90611f6c90849030908790600401612880565b600060405180830381600087803b158015611f8657600080fd5b505af1158015611f9a573d6000803e3d6000fd5b5050506001600160a01b0382166000908152600760209081526040808320815160a0810183528154815260018201548185015260028201548184015260038201805484518187028101870190955280855292965090938693606086019390929183018282801561203357602002820191906000526020600020905b81546001600160a01b03168152600190910190602001808311612015575b505050505081526020016004820180548060200260200160405190810160405280929190818152602001828054801561208b57602002820191906000526020600020905b815481526020019060010190808311612077575b5050509190925250508151919250501580156120a957506020810151155b156120c457600880549060006120be836127c9565b91905055505b60065481516000906120d790600161281a565b905060008360200151836120eb91906127e4565b84516120f791906127fb565b9050600081856040015161210b919061281a565b905083866001018190555082866000018190555080866002018190555085600301899080600181540180825580915050600190039060005260206000200160009091909190916101000a8154816001600160a01b0302191690836001600160a01b0316021790555085600401889080600181540180825580915050600190039060005260206000200160009091909190915055866001600160a01b03166121af3390565b6001600160a01b03167f592d8fba044f9498232ce6c14dc7eb3a60f723f4d6731918aea4f6ae0c0810448b8b876040516121eb939291906128ba565b60405180910390a3505050505050505050565b60015460ff16156122215760405162461bcd60e51b815260040161050290612772565b6001805460ff1916811790557f62e78cea01bee320cd4e420270b5ea74000d11b0c9f74754ebdbfc544b05a25833611d22565b60008060005b84518110156122b357836001600160a01b031685828151811061227f5761227f61286a565b60200260200101516001600160a01b031614156122a1579150600190506122be565b806122ab816127c9565b91505061225a565b506000196000915091505b9250929050565b606060006122d48360026127fb565b6122df90600261281a565b6001600160401b038111156122f6576122f66129ca565b6040519080825280601f01601f191660200182016040528015612320576020820181803683370190505b509050600360fc1b8160008151811061233b5761233b61286a565b60200101906001600160f81b031916908160001a905350600f60fb1b8160018151811061236a5761236a61286a565b60200101906001600160f81b031916908160001a905350600061238e8460026127fb565b61239990600161281a565b90505b6001811115612411576f181899199a1a9b1b9c1cb0b131b232b360811b85600f16601081106123cd576123cd61286a565b1a60f81b8282815181106123e3576123e361286a565b60200101906001600160f81b031916908160001a90535060049490941c9361240a816127b2565b905061239c565b5083156124605760405162461bcd60e51b815260206004820181905260248201527f537472696e67733a20686578206c656e67746820696e73756666696369656e746044820152606401610502565b9392505050565b6001600160a01b038116811461067c57600080fd5b6000806040838503121561248f57600080fd5b823561249a81612467565b946020939093013593505050565b6000602082840312156124ba57600080fd5b81356001600160e01b03198116811461246057600080fd5b6000806000806000608086880312156124ea57600080fd5b85356124f581612467565b9450602086013561250581612467565b93506040860135925060608601356001600160401b038082111561252857600080fd5b818801915088601f83011261253c57600080fd5b81358181111561254b57600080fd5b89602082850101111561255d57600080fd5b9699959850939650602001949392505050565b60006020828403121561258257600080fd5b813561246081612467565b60006020828403121561259f57600080fd5b5035919050565b600080604083850312156125b957600080fd5b8235915060208301356125cb81612467565b809150509250929050565b600081518084526020808501945080840160005b8381101561260f5781516001600160a01b0316875295820195908201906001016125ea565b509495945050505050565b60a08152600061262d60a08301886125d6565b6001600160a01b039690961660208301525060408101939093526060830191909152608090910152919050565b85815260006020868184015285604084015260a0606084015261268060a08401866125d6565b838103608085015284518082528286019183019060005b818110156126b357835183529284019291840191600101612697565b50909a9950505050505050505050565b60008083601f8401126126d557600080fd5b5081356001600160401b038111156126ec57600080fd5b6020830191508360208260051b85010111156122be57600080fd5b6000806000806040858703121561271d57600080fd5b84356001600160401b038082111561273457600080fd5b612740888389016126c3565b9096509450602087013591508082111561275957600080fd5b50612766878288016126c3565b95989497509550505050565b60208082526010908201526f14185d5cd8589b194e881c185d5cd95960821b604082015260600190565b634e487b7160e01b600052601160045260246000fd5b6000816127c1576127c161279c565b506000190190565b60006000198214156127dd576127dd61279c565b5060010190565b6000828210156127f6576127f661279c565b500390565b60008160001904831182151516156128155761281561279c565b500290565b6000821982111561282d5761282d61279c565b500190565b60008261284f57634e487b7160e01b600052601260045260246000fd5b500490565b9283526020830191909152604082015260600190565b634e487b7160e01b600052603260045260246000fd5b6001600160a01b039384168152919092166020820152604081019190915260600190565b634e487b7160e01b600052603160045260246000fd5b6001600160a01b039390931683526020830191909152604082015260600190565b60005b838110156128f65781810151838201526020016128de565b83811115612905576000848401525b50505050565b76020b1b1b2b9b9a1b7b73a3937b61d1030b1b1b7bab73a1604d1b81526000835161293d8160178501602088016128db565b7001034b99036b4b9b9b4b733903937b6329607d1b601791840191820152835161296e8160288401602088016128db565b01602801949350505050565b60208152600082518060208401526129998160408501602087016128db565b601f01601f19169190910160400192915050565b6000602082840312156129bf57600080fd5b815161246081612467565b634e487b7160e01b600052604160045260246000fdfea49807205ce4d355092ef5a8a18f56e8913cf4a201fbe287825b095693c21775a2646970667358221220c68f9164ae5b03d67e8eb84af454063155db8e6144d60c5a92848ff0a3e4464564736f6c63430008090033",
  "immutableReferences": {
    "9111": [
      {
        "length": 32,
        "start": 2187
      },
      {
        "length": 32,
        "start": 3080
      }
    ],
    "9113": [
      {
        "length": 32,
        "start": 3113
      }
    ]
  },
  "source": "// SPDX-License-Identifier: MIT\n\npragma solidity ^0.8.0;\n\n// ==================== External Imports ====================\n\nimport {IERC20} from \"@openzeppelin/contracts/token/ERC20/IERC20.sol\";\nimport {Pausable} from \"@openzeppelin/contracts/security/Pausable.sol\";\nimport {IERC721} from \"@openzeppelin/contracts/token/ERC721/IERC721.sol\";\nimport {AccessControl} from \"@openzeppelin/contracts/access/AccessControl.sol\";\nimport {SafeERC20} from \"@openzeppelin/contracts/token/ERC20/utils/SafeERC20.sol\";\nimport {IERC721Receiver} from \"@openzeppelin/contracts/token/ERC721/IERC721Receiver.sol\";\n\n// ==================== Internal Imports ====================\n\nimport {IPixelCoin} from \"./interfaces/IPixelCoin.sol\";\nimport {AddressArrayUtil} from \"./lib/AddressArrayUtil.sol\";\n\n/**\n * @title Erc721Bank\n * @author Matrix\n */\ncontract Erc721Bank is AccessControl, Pausable, IERC721Receiver {\n    using SafeERC20 for IERC20;\n    using AddressArrayUtil for address[];\n\n    // ==================== Constants ====================\n\n    uint256 internal constant PRECISE_UNIT = 10**18;\n    bytes32 public constant ADMIN_ROLE = keccak256(\"ADMIN_ROLE\");\n\n    // ==================== Structs ====================\n\n    struct UserInfo {\n        uint256 stakeAmount; // current stake amount of this user(add when stake, deduct when unstake)\n        uint256 sharePrice; // current reward per stake share, multiplied by PRECISE_UNIT\n        uint256 rewardAmount; // current reward amount at renew time(add when update, deduct when claim), multiplied by PRECISE_UNIT\n        address[] tokens; // list of ERC721 token\n        uint256[] tokenIds; // list of ERC721 token id\n    }\n\n    // ==================== Variables ====================\n\n    address[] internal _stakeTokens;\n    IPixelCoin internal immutable _rewardToken;\n\n    uint256 internal immutable _startBlock; // first block num when this contract work\n    uint256 internal _lastUpdateBlock; // block number of last update reward\n\n    uint256 internal _maxReward; // max total reward amount\n    uint256 internal _rewardPerBlock; // reward per block, multiplied by PRECISE_UNIT\n    uint256 internal _sharePrice; // current reward per wei, multiplied by PRECISE_UNIT\n\n    mapping(address => UserInfo) internal _users;\n\n    uint256 internal _userCount;\n\n    uint256 internal _stakeAmount; // current stake amount of all users(add when stake, deduct when unstake)\n    uint256 internal _unstakeSum; // total stake amount of all users(add when unstake)\n\n    uint256 internal _rewardAmount; // current reward amount of all users(add when update, deduct when claim), multiplied by PRECISE_UNIT\n    uint256 internal _claimSum; // total reward amount of all users(add when claim), multiplied by PRECISE_UNIT\n\n    // ==================== Events ====================\n\n    event OnERC721Receive(address indexed me, address operator, address from, uint256 indexed tokenId);\n    event Stake(address indexed caller, address indexed owner, address token, uint256 tokenId, uint256 currentStakeAmount);\n    event Unstake(address indexed caller, address token, uint256 tokenId, uint256 currentStakeAmount);\n    event Claim(address indexed caller, address indexed to, uint256 claimAmount);\n    event SetMaxReward(address indexed caller, uint256 currentBlock, uint256 oldMaxReward, uint256 newMaxReward);\n    event SetRewardPerBlock(address indexed caller, uint256 currentBlock, uint256 oldValue, uint256 newValue);\n    event UpdateData(address indexed caller, uint256 indexed currentBlock, uint256 newReward, uint256 currentReward, uint256 currentSharePrice);\n\n    // ==================== Constructor function ====================\n\n    constructor(\n        address[] memory tokens,\n        address rewardToken,\n        uint256 maxReward,\n        uint256 rewardPerBlock,\n        uint256 startBlock\n    ) {\n        require(!tokens.hasDuplicate(), \"duplicate stake token\");\n\n        _setupRole(DEFAULT_ADMIN_ROLE, _msgSender());\n        _setupRole(ADMIN_ROLE, _msgSender());\n\n        if (startBlock == 0) {\n            startBlock = block.number;\n        }\n\n        _stakeTokens = tokens;\n        _rewardToken = IPixelCoin(rewardToken);\n\n        _startBlock = startBlock;\n        _lastUpdateBlock = startBlock;\n\n        _maxReward = maxReward * PRECISE_UNIT;\n        _rewardPerBlock = rewardPerBlock * PRECISE_UNIT;\n    }\n\n    // ==================== Receive function ====================\n\n    receive() external payable {}\n\n    // ==================== Modifier functions ====================\n\n    modifier onlyAdmin() {\n        _onlyAdmin();\n        _;\n    }\n\n    // ==================== External functions ====================\n\n    function pause() external onlyAdmin {\n        _pause();\n    }\n\n    function unpause() external onlyAdmin {\n        _unpause();\n    }\n\n    function onERC721Received(\n        address operator,\n        address from,\n        uint256 tokenId,\n        bytes calldata /* data */\n    ) external returns (bytes4) {\n        emit OnERC721Receive(address(this), operator, from, tokenId);\n\n        return this.onERC721Received.selector;\n    }\n\n    function getInfo()\n        external\n        view\n        returns (\n            address[] memory stakeTokens,\n            address rewardToken,\n            uint256 startBlock,\n            uint256 maxReward,\n            uint256 rewardPerBlock\n        )\n    {\n        return (\n            _stakeTokens, // stakeTokens\n            address(_rewardToken), // rewardToken\n            _startBlock, // startBlock\n            _maxReward / PRECISE_UNIT, // maxReward\n            _rewardPerBlock / PRECISE_UNIT // rewardPerBlock\n        );\n    }\n\n    function getStatus()\n        external\n        view\n        returns (\n            uint256 userCount,\n            uint256 stakeAmount,\n            uint256 unstakeSum,\n            uint256 rewardAmount,\n            uint256 claimSum,\n            uint256 sharePrice,\n            uint256 lastUpdateBlock\n        )\n    {\n        userCount = _userCount;\n\n        stakeAmount = _stakeAmount;\n        unstakeSum = _unstakeSum;\n        rewardAmount = _rewardAmount / PRECISE_UNIT;\n        claimSum = _claimSum / PRECISE_UNIT;\n\n        sharePrice = _sharePrice / PRECISE_UNIT;\n        lastUpdateBlock = _lastUpdateBlock;\n    }\n\n    function getUserInfo(address account)\n        external\n        view\n        returns (\n            uint256 stakeAmount,\n            uint256 sharePrice,\n            uint256 rewardAmount,\n            address[] memory tokens,\n            uint256[] memory tokenIds\n        )\n    {\n        UserInfo memory userInfo = _users[account];\n        uint256 currentBlock = block.number;\n        uint256 totalStakeAmount = _stakeAmount;\n        uint256 newSharePrice = _sharePrice;\n        uint256 lastUpdateBlock = _lastUpdateBlock;\n\n        if ((currentBlock > lastUpdateBlock) && (totalStakeAmount != 0)) {\n            uint256 maxReward = _maxReward;\n            uint256 currentRewardAmount = _rewardAmount;\n            uint256 newReward = _rewardPerBlock * (currentBlock - lastUpdateBlock);\n            uint256 newRewardAmount = currentRewardAmount + newReward;\n\n            if (newRewardAmount > maxReward) {\n                newReward = maxReward - currentRewardAmount;\n            }\n            newSharePrice += newReward / totalStakeAmount;\n        }\n\n        stakeAmount = userInfo.stakeAmount;\n        sharePrice = newSharePrice / PRECISE_UNIT;\n        rewardAmount = (userInfo.stakeAmount * (newSharePrice - userInfo.sharePrice) + userInfo.rewardAmount) / PRECISE_UNIT;\n        tokens = userInfo.tokens;\n        tokenIds = userInfo.tokenIds;\n    }\n\n    function getReward(address account, uint256 currentBlock) public view returns (uint256) {\n        if (currentBlock == 0) {\n            currentBlock = block.number;\n        }\n\n        uint256 stakeAmount = _stakeAmount;\n        uint256 newSharePrice = _sharePrice;\n        uint256 lastUpdateBlock = _lastUpdateBlock;\n        if ((currentBlock > lastUpdateBlock) && (stakeAmount != 0)) {\n            newSharePrice += (_rewardPerBlock * (currentBlock - lastUpdateBlock)) / stakeAmount;\n        }\n\n        UserInfo memory userInfo = _users[account];\n        return (userInfo.stakeAmount * (newSharePrice - userInfo.sharePrice) + userInfo.rewardAmount) / PRECISE_UNIT;\n    }\n\n    function addStakeToken(address token) external onlyAdmin {\n        require(!_stakeTokens.contain(token), \"add exist token\");\n\n        _stakeTokens.push(token);\n    }\n\n    function removeStakeToken(address token) external onlyAdmin {\n        require(_stakeTokens.contain(token), \"remove nonexist token\");\n\n        _stakeTokens.quickRemoveItem(token);\n    }\n\n    /// safeTransferFrom will ensure input has no duplicate token\n    function stakeSomeTokens(address[] calldata tokens, uint256[] calldata tokenIds) external whenNotPaused {\n        uint256 count = tokenIds.length;\n        require(count == tokenIds.length, \"tokens and tokenIds mismatch\");\n\n        _updateData(block.number);\n\n        for (uint256 i = 0; i < count; i++) {\n            _stake(tokens[i], tokenIds[i]);\n        }\n\n        _stakeAmount += count;\n    }\n\n    function stakeOneToken(address token, uint256 tokenId) external whenNotPaused {\n        _updateData(block.number);\n\n        if (token != address(0)) {\n            _stake(token, tokenId);\n            _stakeAmount++;\n        }\n    }\n\n    function unstakeSomeTokens(address[] calldata tokens, uint256[] calldata tokenIds) external whenNotPaused {\n        uint256 count = tokenIds.length;\n        require(count == tokenIds.length, \"tokens and tokenIds mismatch\");\n\n        _updateData(block.number);\n\n        for (uint256 i = 0; i < count; i++) {\n            _unstake(tokens[i], tokenIds[i]);\n        }\n\n        _stakeAmount -= count;\n        _unstakeSum += count;\n    }\n\n    function unstakeOneToken(address token, uint256 tokenId) external whenNotPaused {\n        _updateData(block.number);\n\n        if (token != address(0)) {\n            _unstake(token, tokenId);\n            _stakeAmount--;\n            _unstakeSum++;\n        }\n    }\n\n    function claim(address to) external whenNotPaused {\n        if (to == address(0)) {\n            to = _msgSender();\n        }\n\n        _updateData(block.number);\n\n        UserInfo storage user = _users[to];\n        UserInfo memory userInfo = user;\n\n        uint256 newPrice = _sharePrice;\n        uint256 newReward = userInfo.stakeAmount * (newPrice - userInfo.sharePrice);\n        uint256 totalReward = userInfo.rewardAmount + newReward;\n        uint256 realClaimAmount = totalReward / PRECISE_UNIT;\n        uint256 virtualClaimAmount = realClaimAmount * PRECISE_UNIT;\n\n        user.sharePrice = newPrice;\n        user.rewardAmount = totalReward - virtualClaimAmount;\n\n        _claimSum += virtualClaimAmount;\n        _rewardAmount -= virtualClaimAmount;\n\n        _rewardToken.mint(to, realClaimAmount);\n\n        emit Claim(_msgSender(), to, realClaimAmount);\n    }\n\n    function updateData() external {\n        _updateData(block.number);\n    }\n\n    function setMaxReward(uint256 newMaxReward) external onlyAdmin {\n        _updateData(block.number);\n\n        uint256 oldMaxReward = _maxReward / PRECISE_UNIT;\n        _maxReward = newMaxReward * PRECISE_UNIT;\n\n        emit SetMaxReward(_msgSender(), block.number, oldMaxReward, newMaxReward);\n    }\n\n    function setRewardPerBlock(uint256 newRewardPerBlock) external onlyAdmin {\n        _updateData(block.number);\n\n        uint256 oldRewardPerBlock = _rewardPerBlock / PRECISE_UNIT;\n        _rewardPerBlock = newRewardPerBlock * PRECISE_UNIT;\n\n        emit SetRewardPerBlock(_msgSender(), block.number, oldRewardPerBlock, newRewardPerBlock);\n    }\n\n    // ============ Public functions ============\n\n    /// @dev See {IERC165-supportsInterface}.\n    function supportsInterface(bytes4 interfaceId) public view virtual override returns (bool) {\n        return interfaceId == type(IERC721Receiver).interfaceId;\n    }\n\n    // ==================== Internal functions ====================\n\n    function _updateData(uint256 currentBlock) internal {\n        uint256 oldUpdateBlock = _lastUpdateBlock;\n        if (currentBlock <= oldUpdateBlock) {\n            return;\n        }\n\n        uint256 stakeAmount = _stakeAmount;\n        if (stakeAmount == 0) {\n            _lastUpdateBlock = currentBlock;\n            return;\n        }\n\n        uint256 maxReward = _maxReward;\n        uint256 oldRewardAmount = _rewardAmount;\n\n        uint256 newReward = _rewardPerBlock * (currentBlock - oldUpdateBlock);\n        uint256 newRewardAmount = _rewardAmount + newReward;\n\n        if (newRewardAmount > maxReward) {\n            newReward = maxReward - oldRewardAmount;\n            newRewardAmount = maxReward;\n        }\n\n        uint256 newSharePrice = _sharePrice + (newReward / stakeAmount);\n\n        _sharePrice = newSharePrice;\n        _rewardAmount = newRewardAmount;\n        _lastUpdateBlock = currentBlock;\n\n        emit UpdateData(_msgSender(), currentBlock, newReward / PRECISE_UNIT, newRewardAmount / PRECISE_UNIT, newSharePrice / PRECISE_UNIT);\n    }\n\n    function _stake(address token, uint256 tokenId) internal {\n        require(token != address(0), \"stake zero token\");\n        require(tokenId != 0, \"stake zero tokenId\");\n        require(_stakeTokens.contain(token), \"not enabled token\");\n\n        address tokenOwner = IERC721(token).ownerOf(tokenId);\n        require(tokenOwner != address(this), \"already staked\");\n\n        IERC721(token).safeTransferFrom(tokenOwner, address(this), tokenId);\n\n        UserInfo storage user = _users[tokenOwner];\n        UserInfo memory userInfo = user;\n\n        if ((userInfo.stakeAmount == 0) && (userInfo.sharePrice == 0)) {\n            _userCount++;\n        }\n\n        uint256 newPrice = _sharePrice;\n        uint256 newStakeAmount = userInfo.stakeAmount + 1;\n        uint256 newReward = userInfo.stakeAmount * (newPrice - userInfo.sharePrice);\n        uint256 newRewardAmount = userInfo.rewardAmount + newReward;\n\n        user.sharePrice = newPrice;\n        user.stakeAmount = newStakeAmount;\n        user.rewardAmount = newRewardAmount;\n        user.tokens.push(token);\n        user.tokenIds.push(tokenId);\n\n        emit Stake(_msgSender(), tokenOwner, token, tokenId, newStakeAmount);\n    }\n\n    function _unstake(address token, uint256 tokenId) internal {\n        require(token != address(0), \"unstake zero token\");\n        require(tokenId != 0, \"unstake zero tokenId\");\n\n        UserInfo storage user = _users[_msgSender()];\n        UserInfo memory userInfo = user;\n        require(userInfo.stakeAmount > 0, \"no stake token\"); // ensure userInfo.tokenIds.length >= 1\n\n        uint256 index = 0;\n        uint256 lastIndex = userInfo.tokenIds.length - 1;\n        while (index <= lastIndex) {\n            if ((userInfo.tokenIds[index] == tokenId) && (userInfo.tokens[index] == token)) {\n                break;\n            }\n            index++;\n        }\n        require(index <= lastIndex, \"unstake nonexist token\");\n\n        IERC721(token).safeTransferFrom(address(this), _msgSender(), tokenId);\n\n        _updateData(block.number);\n\n        user.tokens[index] = userInfo.tokens[lastIndex];\n        user.tokens.pop();\n        user.tokenIds[index] = userInfo.tokenIds[lastIndex];\n        user.tokenIds.pop();\n\n        uint256 newPrice = _sharePrice;\n        uint256 newReward = userInfo.stakeAmount * (newPrice - userInfo.sharePrice);\n        uint256 newRewardAmount = userInfo.rewardAmount + newReward;\n        uint256 newStakeAmount = userInfo.stakeAmount - 1;\n\n        user.sharePrice = newPrice;\n        user.stakeAmount = newStakeAmount;\n        user.rewardAmount = newRewardAmount;\n\n        emit Unstake(_msgSender(), token, tokenId, newStakeAmount);\n    }\n\n    // ==================== Private functions ====================\n\n    function _onlyAdmin() private view {\n        require(hasRole(ADMIN_ROLE, _msgSender()), \"not admin\");\n    }\n}\n",
  "sourcePath": "/home/liudan/matrix/kpixcontract/contracts/Erc721Bank.sol",
  "compiler": {
    "name": "solc",
    "version": "0.8.9+commit.e5eed63a.Emscripten.clang"
  },
  "schemaVersion": "3.4.5",
  "updatedAt": "2022-03-07T02:14:05.494Z",
  "networkType": "ethereum",
  "devdoc": {
    "author": "Matrix",
    "kind": "dev",
    "methods": {
      "getRoleAdmin(bytes32)": {
        "details": "Returns the admin role that controls `role`. See {grantRole} and {revokeRole}. To change a role's admin, use {_setRoleAdmin}."
      },
      "grantRole(bytes32,address)": {
        "details": "Grants `role` to `account`. If `account` had not been already granted `role`, emits a {RoleGranted} event. Requirements: - the caller must have ``role``'s admin role."
      },
      "hasRole(bytes32,address)": {
        "details": "Returns `true` if `account` has been granted `role`."
      },
      "paused()": {
        "details": "Returns true if the contract is paused, and false otherwise."
      },
      "renounceRole(bytes32,address)": {
        "details": "Revokes `role` from the calling account. Roles are often managed via {grantRole} and {revokeRole}: this function's purpose is to provide a mechanism for accounts to lose their privileges if they are compromised (such as when a trusted device is misplaced). If the calling account had been granted `role`, emits a {RoleRevoked} event. Requirements: - the caller must be `account`."
      },
      "revokeRole(bytes32,address)": {
        "details": "Revokes `role` from `account`. If `account` had been granted `role`, emits a {RoleRevoked} event. Requirements: - the caller must have ``role``'s admin role."
      },
      "supportsInterface(bytes4)": {
        "details": "See {IERC165-supportsInterface}."
      }
    },
    "title": "Erc721Bank",
    "version": 1
  },
  "userdoc": {
    "kind": "user",
    "methods": {
      "stakeSomeTokens(address[],uint256[])": {
        "notice": "safeTransferFrom will ensure input has no duplicate token"
      }
    },
    "version": 1
  }
}