{
  "contractName": "NftOwnerReward",
  "abi": [
    {
      "inputs": [
        {
          "internalType": "address",
          "name": "pixNft",
          "type": "address"
        },
        {
          "internalType": "address",
          "name": "pixelCoin",
          "type": "address"
        }
      ],
      "stateMutability": "nonpayable",
      "type": "constructor"
    },
    {
      "anonymous": false,
      "inputs": [
        {
          "indexed": false,
          "internalType": "address",
          "name": "pixNft",
          "type": "address"
        },
        {
          "indexed": false,
          "internalType": "address",
          "name": "pixelCoin",
          "type": "address"
        }
      ],
      "name": "NewNftOwnerReward",
      "type": "event"
    },
    {
      "anonymous": false,
      "inputs": [
        {
          "indexed": true,
          "internalType": "uint256",
          "name": "nftId",
          "type": "uint256"
        },
        {
          "indexed": true,
          "internalType": "address",
          "name": "contributor",
          "type": "address"
        },
        {
          "indexed": false,
          "internalType": "uint256",
          "name": "amount",
          "type": "uint256"
        }
      ],
      "name": "NftOwnerClaim",
      "type": "event"
    },
    {
      "anonymous": false,
      "inputs": [
        {
          "indexed": true,
          "internalType": "bytes32",
          "name": "role",
          "type": "bytes32"
        },
        {
          "indexed": true,
          "internalType": "bytes32",
          "name": "previousAdminRole",
          "type": "bytes32"
        },
        {
          "indexed": true,
          "internalType": "bytes32",
          "name": "newAdminRole",
          "type": "bytes32"
        }
      ],
      "name": "RoleAdminChanged",
      "type": "event"
    },
    {
      "anonymous": false,
      "inputs": [
        {
          "indexed": true,
          "internalType": "bytes32",
          "name": "role",
          "type": "bytes32"
        },
        {
          "indexed": true,
          "internalType": "address",
          "name": "account",
          "type": "address"
        },
        {
          "indexed": true,
          "internalType": "address",
          "name": "sender",
          "type": "address"
        }
      ],
      "name": "RoleGranted",
      "type": "event"
    },
    {
      "anonymous": false,
      "inputs": [
        {
          "indexed": true,
          "internalType": "bytes32",
          "name": "role",
          "type": "bytes32"
        },
        {
          "indexed": true,
          "internalType": "address",
          "name": "account",
          "type": "address"
        },
        {
          "indexed": true,
          "internalType": "address",
          "name": "sender",
          "type": "address"
        }
      ],
      "name": "RoleRevoked",
      "type": "event"
    },
    {
      "anonymous": false,
      "inputs": [
        {
          "indexed": false,
          "internalType": "uint256",
          "name": "oldRewardPerNft",
          "type": "uint256"
        },
        {
          "indexed": false,
          "internalType": "uint256",
          "name": "newRewardPerNft",
          "type": "uint256"
        }
      ],
      "name": "SetRewardPerNft",
      "type": "event"
    },
    {
      "inputs": [],
      "name": "ADMIN_ROLE",
      "outputs": [
        {
          "internalType": "bytes32",
          "name": "",
          "type": "bytes32"
        }
      ],
      "stateMutability": "view",
      "type": "function",
      "constant": true
    },
    {
      "inputs": [],
      "name": "DEFAULT_ADMIN_ROLE",
      "outputs": [
        {
          "internalType": "bytes32",
          "name": "",
          "type": "bytes32"
        }
      ],
      "stateMutability": "view",
      "type": "function",
      "constant": true
    },
    {
      "inputs": [
        {
          "internalType": "bytes32",
          "name": "role",
          "type": "bytes32"
        }
      ],
      "name": "getRoleAdmin",
      "outputs": [
        {
          "internalType": "bytes32",
          "name": "",
          "type": "bytes32"
        }
      ],
      "stateMutability": "view",
      "type": "function",
      "constant": true
    },
    {
      "inputs": [
        {
          "internalType": "bytes32",
          "name": "role",
          "type": "bytes32"
        },
        {
          "internalType": "address",
          "name": "account",
          "type": "address"
        }
      ],
      "name": "grantRole",
      "outputs": [],
      "stateMutability": "nonpayable",
      "type": "function"
    },
    {
      "inputs": [
        {
          "internalType": "bytes32",
          "name": "role",
          "type": "bytes32"
        },
        {
          "internalType": "address",
          "name": "account",
          "type": "address"
        }
      ],
      "name": "hasRole",
      "outputs": [
        {
          "internalType": "bool",
          "name": "",
          "type": "bool"
        }
      ],
      "stateMutability": "view",
      "type": "function",
      "constant": true
    },
    {
      "inputs": [
        {
          "internalType": "bytes32",
          "name": "role",
          "type": "bytes32"
        },
        {
          "internalType": "address",
          "name": "account",
          "type": "address"
        }
      ],
      "name": "renounceRole",
      "outputs": [],
      "stateMutability": "nonpayable",
      "type": "function"
    },
    {
      "inputs": [
        {
          "internalType": "bytes32",
          "name": "role",
          "type": "bytes32"
        },
        {
          "internalType": "address",
          "name": "account",
          "type": "address"
        }
      ],
      "name": "revokeRole",
      "outputs": [],
      "stateMutability": "nonpayable",
      "type": "function"
    },
    {
      "inputs": [
        {
          "internalType": "bytes4",
          "name": "interfaceId",
          "type": "bytes4"
        }
      ],
      "name": "supportsInterface",
      "outputs": [
        {
          "internalType": "bool",
          "name": "",
          "type": "bool"
        }
      ],
      "stateMutability": "view",
      "type": "function",
      "constant": true
    },
    {
      "inputs": [],
      "name": "getPixNft",
      "outputs": [
        {
          "internalType": "address",
          "name": "",
          "type": "address"
        }
      ],
      "stateMutability": "view",
      "type": "function",
      "constant": true
    },
    {
      "inputs": [],
      "name": "getPixelCoin",
      "outputs": [
        {
          "internalType": "address",
          "name": "",
          "type": "address"
        }
      ],
      "stateMutability": "view",
      "type": "function",
      "constant": true
    },
    {
      "inputs": [],
      "name": "getRewardPerNft",
      "outputs": [
        {
          "internalType": "uint256",
          "name": "",
          "type": "uint256"
        }
      ],
      "stateMutability": "view",
      "type": "function",
      "constant": true
    },
    {
      "inputs": [
        {
          "internalType": "uint256",
          "name": "newRewardPerNft",
          "type": "uint256"
        }
      ],
      "name": "setRewardPerNft",
      "outputs": [],
      "stateMutability": "nonpayable",
      "type": "function"
    },
    {
      "inputs": [
        {
          "internalType": "uint256",
          "name": "nftId",
          "type": "uint256"
        },
        {
          "internalType": "address",
          "name": "contributor",
          "type": "address"
        }
      ],
      "name": "getClaimeInfo",
      "outputs": [
        {
          "internalType": "bool",
          "name": "isClaimed",
          "type": "bool"
        },
        {
          "internalType": "uint256",
          "name": "amount",
          "type": "uint256"
        }
      ],
      "stateMutability": "view",
      "type": "function",
      "constant": true
    },
    {
      "inputs": [
        {
          "internalType": "uint256",
          "name": "nftId",
          "type": "uint256"
        },
        {
          "internalType": "address",
          "name": "contributor",
          "type": "address"
        }
      ],
      "name": "claim",
      "outputs": [],
      "stateMutability": "nonpayable",
      "type": "function"
    }
  ],
  "bytecode": "0x60c0604052690b6f588aa7bcf5c000006001553480156200001f57600080fd5b5060405162000f1338038062000f13833981016040819052620000429162000235565b6001600160a01b0382166200008c5760405162461bcd60e51b815260206004820152600b60248201526a1e995c9bc81c1a5e13999d60aa1b60448201526064015b60405180910390fd5b6001600160a01b038116620000d55760405162461bcd60e51b815260206004820152600e60248201526d3d32b937903834bc32b621b7b4b760911b604482015260640162000083565b620000e260003362000168565b6200010e7fa49807205ce4d355092ef5a8a18f56e8913cf4a201fbe287825b095693c217753362000168565b6001600160a01b03828116608081905290821660a08190526040805192835260208301919091527f04f43314ab058a964976536547a642d06626a9602bb8e406abcdd30bfe0d46a9910160405180910390a150506200026d565b62000174828262000178565b5050565b6000828152602081815260408083206001600160a01b038516845290915290205460ff1662000174576000828152602081815260408083206001600160a01b03851684529091529020805460ff19166001179055620001d43390565b6001600160a01b0316816001600160a01b0316837f2f8788117e7eff1d82e926ec794901d17c78024a50270940304540a733656f0d60405160405180910390a45050565b80516001600160a01b03811681146200023057600080fd5b919050565b600080604083850312156200024957600080fd5b620002548362000218565b9150620002646020840162000218565b90509250929050565b60805160a051610c6b620002a86000396000818161016c0152610625015260008181610132015281816103b5015261049d0152610c6b6000f3fe608060405234801561001057600080fd5b50600436106100ba5760003560e01c806301ffc9a7146100bf578063248a9ca3146100e75780632f2ff15d1461010857806336568abe1461011d5780634ddcdff2146101305780635af71c3c1461016a57806375b238fc1461019057806391d14854146101a557806398cc9bf6146101b8578063a217fddf146101c0578063a2eabbad146101c8578063be739fbb146101db578063d547741f14610205578063ddd5e1b214610218575b600080fd5b6100d26100cd366004610a0b565b61022b565b60405190151581526020015b60405180910390f35b6100fa6100f5366004610a35565b610262565b6040519081526020016100de565b61011b610116366004610a66565b610277565b005b61011b61012b366004610a66565b610299565b7f00000000000000000000000000000000000000000000000000000000000000005b6040516001600160a01b0390911681526020016100de565b7f0000000000000000000000000000000000000000000000000000000000000000610152565b6100fa600080516020610c1683398151915281565b6100d26101b3366004610a66565b61031c565b6001546100fa565b6100fa600081565b61011b6101d6366004610a35565b610345565b6101ee6101e9366004610a66565b610392565b6040805192151583526020830191909152016100de565b61011b610213366004610a66565b61046a565b61011b610226366004610a66565b610487565b60006001600160e01b03198216637965db0b60e01b148061025c57506301ffc9a760e01b6001600160e01b03198316145b92915050565b60009081526020819052604090206001015490565b61028082610262565b61028a81336106ca565b610294838361072e565b505050565b6001600160a01b038116331461030e5760405162461bcd60e51b815260206004820152602f60248201527f416363657373436f6e74726f6c3a2063616e206f6e6c792072656e6f756e636560448201526e103937b632b9903337b91039b2b63360891b60648201526084015b60405180910390fd5b61031882826107b2565b5050565b6000918252602082815260408084206001600160a01b0393909316845291905290205460ff1690565b61034d610817565b600180549082905560408051828152602081018490527f1a08c87458db8e608ce02bfe2dd68c3a8d75bf8b9be422b28cae8d331eb41e77910160405180910390a15050565b6040516331a9108f60e11b81526004810183905260009081906001600160a01b037f00000000000000000000000000000000000000000000000000000000000000001690636352211e9060240160206040518083038186803b1580156103f757600080fd5b505afa15801561040b573d6000803e3d6000fd5b505050506040513d601f19601f8201168201806040525081019061042f9190610a96565b6001600160a01b0316836001600160a01b0316141561046357505060008281526003602052604090205460015460ff909116905b9250929050565b61047382610262565b61047d81336106ca565b61029483836107b2565b6040516331a9108f60e11b8152600481018390527f00000000000000000000000000000000000000000000000000000000000000006001600160a01b031690636352211e9060240160206040518083038186803b1580156104e757600080fd5b505afa1580156104fb573d6000803e3d6000fd5b505050506040513d601f19601f8201168201806040525081019061051f9190610a96565b6001600160a01b0316816001600160a01b03161461056f5760405162461bcd60e51b815260206004820152600d60248201526c3737ba1037333a1037bbb732b960991b6044820152606401610305565b60008281526003602052604090205460ff16156105c05760405162461bcd60e51b815260206004820152600f60248201526e185b1c9958591e4818db185a5b5959608a1b6044820152606401610305565b60008281526003602090815260408083208054600160ff19909116811790915560029092529182902080546001600160a01b0319166001600160a01b03858116918217909255915492516340c10f1960e01b81526004810192909252602482018390527f000000000000000000000000000000000000000000000000000000000000000016906340c10f1990604401600060405180830381600087803b15801561066957600080fd5b505af115801561067d573d6000803e3d6000fd5b50505050816001600160a01b0316837f3bdfd19117e345f10d5969f9c9aa5df5dcfb3b65861111e71e5a3c7e60b912a9836040516106bd91815260200190565b60405180910390a3505050565b6106d4828261031c565b610318576106ec816001600160a01b03166014610869565b6106f7836020610869565b604051602001610708929190610ae3565b60408051601f198184030181529082905262461bcd60e51b825261030591600401610b52565b610738828261031c565b610318576000828152602081815260408083206001600160a01b03851684529091529020805460ff1916600117905561076e3390565b6001600160a01b0316816001600160a01b0316837f2f8788117e7eff1d82e926ec794901d17c78024a50270940304540a733656f0d60405160405180910390a45050565b6107bc828261031c565b15610318576000828152602081815260408083206001600160a01b0385168085529252808320805460ff1916905551339285917ff6391f5c32d9c69d2a47ea670b442974b53935d1edc7fd64eb21e047a839171b9190a45050565b61082f600080516020610c168339815191523361031c565b6108675760405162461bcd60e51b81526020600482015260096024820152683737ba1030b236b4b760b91b6044820152606401610305565b565b60606000610878836002610b9b565b610883906002610bba565b6001600160401b0381111561089a5761089a610bd2565b6040519080825280601f01601f1916602001820160405280156108c4576020820181803683370190505b509050600360fc1b816000815181106108df576108df610be8565b60200101906001600160f81b031916908160001a905350600f60fb1b8160018151811061090e5761090e610be8565b60200101906001600160f81b031916908160001a9053506000610932846002610b9b565b61093d906001610bba565b90505b60018111156109b5576f181899199a1a9b1b9c1cb0b131b232b360811b85600f166010811061097157610971610be8565b1a60f81b82828151811061098757610987610be8565b60200101906001600160f81b031916908160001a90535060049490941c936109ae81610bfe565b9050610940565b508315610a045760405162461bcd60e51b815260206004820181905260248201527f537472696e67733a20686578206c656e67746820696e73756666696369656e746044820152606401610305565b9392505050565b600060208284031215610a1d57600080fd5b81356001600160e01b031981168114610a0457600080fd5b600060208284031215610a4757600080fd5b5035919050565b6001600160a01b0381168114610a6357600080fd5b50565b60008060408385031215610a7957600080fd5b823591506020830135610a8b81610a4e565b809150509250929050565b600060208284031215610aa857600080fd5b8151610a0481610a4e565b60005b83811015610ace578181015183820152602001610ab6565b83811115610add576000848401525b50505050565b76020b1b1b2b9b9a1b7b73a3937b61d1030b1b1b7bab73a1604d1b815260008351610b15816017850160208801610ab3565b7001034b99036b4b9b9b4b733903937b6329607d1b6017918401918201528351610b46816028840160208801610ab3565b01602801949350505050565b6020815260008251806020840152610b71816040850160208701610ab3565b601f01601f19169190910160400192915050565b634e487b7160e01b600052601160045260246000fd5b6000816000190483118215151615610bb557610bb5610b85565b500290565b60008219821115610bcd57610bcd610b85565b500190565b634e487b7160e01b600052604160045260246000fd5b634e487b7160e01b600052603260045260246000fd5b600081610c0d57610c0d610b85565b50600019019056fea49807205ce4d355092ef5a8a18f56e8913cf4a201fbe287825b095693c21775a2646970667358221220b9ec14b7c3fe535f484b969bf1b331de921017085e8539e095370a5b51acb08364736f6c63430008090033",
  "immutableReferences": {
    "3231": [
      {
        "length": 32,
        "start": 306
      },
      {
        "length": 32,
        "start": 949
      },
      {
        "length": 32,
        "start": 1181
      }
    ],
    "3234": [
      {
        "length": 32,
        "start": 364
      },
      {
        "length": 32,
        "start": 1573
      }
    ]
  },
  "source": "// SPDX-License-Identifier: MIT\n\npragma solidity ^0.8.0;\n\n// ==================== External Imports ====================\n\nimport {AccessControl} from \"@openzeppelin/contracts/access/AccessControl.sol\";\n\n// ==================== Internal Imports ====================\n\nimport {IPixelCoin} from \"./interfaces/IPixelCoin.sol\";\n\nimport {PixNft} from \"./PixNft.sol\";\n\n/**\n * @title NftOwnerReward\n * @author Matrix\n */\ncontract NftOwnerReward is AccessControl {\n    // ==================== Constants ====================\n\n    bytes32 public constant ADMIN_ROLE = keccak256(\"ADMIN_ROLE\");\n\n    // ==================== Variables ====================\n\n    PixNft internal immutable _pixNft;\n    IPixelCoin internal immutable _pixelCoin;\n\n    uint256 internal _rewardPerNft = 54000 * 1e18; // default reward per NFT\n    mapping(uint256 => address) internal _recipients; // tokenId => account address\n    mapping(uint256 => bool) internal _isClaimed; // tokenId => account => whether claimed\n\n    // ==================== Events ====================\n\n    event NewNftOwnerReward(address pixNft, address pixelCoin);\n    event SetRewardPerNft(uint256 oldRewardPerNft, uint256 newRewardPerNft);\n    event NftOwnerClaim(uint256 indexed nftId, address indexed contributor, uint256 amount);\n\n    // ==================== Constructor function ====================\n\n    constructor(address pixNft, address pixelCoin) {\n        require(pixNft != address(0), \"zero pixNft\");\n        require(pixelCoin != address(0), \"zero pixelCoin\");\n\n        _setupRole(DEFAULT_ADMIN_ROLE, _msgSender());\n        _setupRole(ADMIN_ROLE, _msgSender());\n\n        _pixNft = PixNft(pixNft);\n        _pixelCoin = IPixelCoin(pixelCoin);\n\n        emit NewNftOwnerReward(pixNft, pixelCoin);\n    }\n\n    // ==================== Modifier functions ====================\n\n    modifier onlyAdmin() {\n        _onlyAdmin();\n        _;\n    }\n\n    // ==================== External functions ====================\n\n    function getPixNft() external view returns (address) {\n        return address(_pixNft);\n    }\n\n    function getPixelCoin() external view returns (address) {\n        return address(_pixelCoin);\n    }\n\n    function getRewardPerNft() external view returns (uint256) {\n        return _rewardPerNft;\n    }\n\n    function setRewardPerNft(uint256 newRewardPerNft) external onlyAdmin {\n        uint256 oldRewardPerNft = _rewardPerNft;\n        _rewardPerNft = newRewardPerNft;\n\n        emit SetRewardPerNft(oldRewardPerNft, newRewardPerNft);\n    }\n\n    function getClaimeInfo(uint256 nftId, address contributor) external view returns (bool isClaimed, uint256 amount) {\n        if (contributor == _pixNft.ownerOf(nftId)) {\n            isClaimed = _isClaimed[nftId];\n            amount = _rewardPerNft;\n        }\n    }\n\n    function claim(uint256 nftId, address contributor) external {\n        require(contributor == _pixNft.ownerOf(nftId), \"not nft owner\");\n        require(!_isClaimed[nftId], \"already claimed\");\n\n        _isClaimed[nftId] = true;\n        _recipients[nftId] = contributor;\n\n        uint256 reward = _rewardPerNft;\n        _pixelCoin.mint(contributor, reward);\n\n        emit NftOwnerClaim(nftId, contributor, reward);\n    }\n\n    // ==================== Private functions ====================\n\n    function _onlyAdmin() private view {\n        require(hasRole(ADMIN_ROLE, _msgSender()), \"not admin\");\n    }\n}\n",
  "sourcePath": "/home/liudan/matrix/kpixcontract/contracts/NftOwnerReward.sol",
  "compiler": {
    "name": "solc",
    "version": "0.8.9+commit.e5eed63a.Emscripten.clang"
  },
  "schemaVersion": "3.4.5",
  "updatedAt": "2022-03-07T02:14:05.518Z",
  "networkType": "ethereum",
  "devdoc": {
    "author": "Matrix",
    "kind": "dev",
    "methods": {
      "getRoleAdmin(bytes32)": {
        "details": "Returns the admin role that controls `role`. See {grantRole} and {revokeRole}. To change a role's admin, use {_setRoleAdmin}."
      },
      "grantRole(bytes32,address)": {
        "details": "Grants `role` to `account`. If `account` had not been already granted `role`, emits a {RoleGranted} event. Requirements: - the caller must have ``role``'s admin role."
      },
      "hasRole(bytes32,address)": {
        "details": "Returns `true` if `account` has been granted `role`."
      },
      "renounceRole(bytes32,address)": {
        "details": "Revokes `role` from the calling account. Roles are often managed via {grantRole} and {revokeRole}: this function's purpose is to provide a mechanism for accounts to lose their privileges if they are compromised (such as when a trusted device is misplaced). If the calling account had been granted `role`, emits a {RoleRevoked} event. Requirements: - the caller must be `account`."
      },
      "revokeRole(bytes32,address)": {
        "details": "Revokes `role` from `account`. If `account` had been granted `role`, emits a {RoleRevoked} event. Requirements: - the caller must have ``role``'s admin role."
      },
      "supportsInterface(bytes4)": {
        "details": "See {IERC165-supportsInterface}."
      }
    },
    "title": "NftOwnerReward",
    "version": 1
  },
  "userdoc": {
    "kind": "user",
    "methods": {},
    "version": 1
  }
}