{
  "contractName": "NftReward",
  "abi": [
    {
      "inputs": [
        {
          "internalType": "address",
          "name": "canvas",
          "type": "address"
        },
        {
          "internalType": "address",
          "name": "pixNft",
          "type": "address"
        },
        {
          "internalType": "address",
          "name": "pixelCoin",
          "type": "address"
        }
      ],
      "stateMutability": "nonpayable",
      "type": "constructor"
    },
    {
      "anonymous": false,
      "inputs": [
        {
          "indexed": true,
          "internalType": "uint256",
          "name": "nftId",
          "type": "uint256"
        },
        {
          "indexed": true,
          "internalType": "address",
          "name": "contributor",
          "type": "address"
        },
        {
          "indexed": false,
          "internalType": "uint256",
          "name": "amount",
          "type": "uint256"
        }
      ],
      "name": "Claim",
      "type": "event"
    },
    {
      "anonymous": false,
      "inputs": [
        {
          "indexed": true,
          "internalType": "address",
          "name": "canvas",
          "type": "address"
        },
        {
          "indexed": true,
          "internalType": "address",
          "name": "pixNft",
          "type": "address"
        },
        {
          "indexed": true,
          "internalType": "address",
          "name": "pixelCoin",
          "type": "address"
        }
      ],
      "name": "NewNftReward",
      "type": "event"
    },
    {
      "anonymous": false,
      "inputs": [
        {
          "indexed": true,
          "internalType": "bytes32",
          "name": "role",
          "type": "bytes32"
        },
        {
          "indexed": true,
          "internalType": "bytes32",
          "name": "previousAdminRole",
          "type": "bytes32"
        },
        {
          "indexed": true,
          "internalType": "bytes32",
          "name": "newAdminRole",
          "type": "bytes32"
        }
      ],
      "name": "RoleAdminChanged",
      "type": "event"
    },
    {
      "anonymous": false,
      "inputs": [
        {
          "indexed": true,
          "internalType": "bytes32",
          "name": "role",
          "type": "bytes32"
        },
        {
          "indexed": true,
          "internalType": "address",
          "name": "account",
          "type": "address"
        },
        {
          "indexed": true,
          "internalType": "address",
          "name": "sender",
          "type": "address"
        }
      ],
      "name": "RoleGranted",
      "type": "event"
    },
    {
      "anonymous": false,
      "inputs": [
        {
          "indexed": true,
          "internalType": "bytes32",
          "name": "role",
          "type": "bytes32"
        },
        {
          "indexed": true,
          "internalType": "address",
          "name": "account",
          "type": "address"
        },
        {
          "indexed": true,
          "internalType": "address",
          "name": "sender",
          "type": "address"
        }
      ],
      "name": "RoleRevoked",
      "type": "event"
    },
    {
      "anonymous": false,
      "inputs": [
        {
          "indexed": false,
          "internalType": "uint256",
          "name": "oldDefaultReward",
          "type": "uint256"
        },
        {
          "indexed": false,
          "internalType": "uint256",
          "name": "newDefaultReward",
          "type": "uint256"
        }
      ],
      "name": "SetDefaultRewardPerNft",
      "type": "event"
    },
    {
      "anonymous": false,
      "inputs": [
        {
          "indexed": true,
          "internalType": "uint256",
          "name": "nftId",
          "type": "uint256"
        },
        {
          "indexed": false,
          "internalType": "uint256",
          "name": "reward",
          "type": "uint256"
        }
      ],
      "name": "SetReward",
      "type": "event"
    },
    {
      "inputs": [],
      "name": "ADMIN_ROLE",
      "outputs": [
        {
          "internalType": "bytes32",
          "name": "",
          "type": "bytes32"
        }
      ],
      "stateMutability": "view",
      "type": "function",
      "constant": true
    },
    {
      "inputs": [],
      "name": "DEFAULT_ADMIN_ROLE",
      "outputs": [
        {
          "internalType": "bytes32",
          "name": "",
          "type": "bytes32"
        }
      ],
      "stateMutability": "view",
      "type": "function",
      "constant": true
    },
    {
      "inputs": [
        {
          "internalType": "bytes32",
          "name": "role",
          "type": "bytes32"
        }
      ],
      "name": "getRoleAdmin",
      "outputs": [
        {
          "internalType": "bytes32",
          "name": "",
          "type": "bytes32"
        }
      ],
      "stateMutability": "view",
      "type": "function",
      "constant": true
    },
    {
      "inputs": [
        {
          "internalType": "bytes32",
          "name": "role",
          "type": "bytes32"
        },
        {
          "internalType": "address",
          "name": "account",
          "type": "address"
        }
      ],
      "name": "grantRole",
      "outputs": [],
      "stateMutability": "nonpayable",
      "type": "function"
    },
    {
      "inputs": [
        {
          "internalType": "bytes32",
          "name": "role",
          "type": "bytes32"
        },
        {
          "internalType": "address",
          "name": "account",
          "type": "address"
        }
      ],
      "name": "hasRole",
      "outputs": [
        {
          "internalType": "bool",
          "name": "",
          "type": "bool"
        }
      ],
      "stateMutability": "view",
      "type": "function",
      "constant": true
    },
    {
      "inputs": [
        {
          "internalType": "bytes32",
          "name": "role",
          "type": "bytes32"
        },
        {
          "internalType": "address",
          "name": "account",
          "type": "address"
        }
      ],
      "name": "renounceRole",
      "outputs": [],
      "stateMutability": "nonpayable",
      "type": "function"
    },
    {
      "inputs": [
        {
          "internalType": "bytes32",
          "name": "role",
          "type": "bytes32"
        },
        {
          "internalType": "address",
          "name": "account",
          "type": "address"
        }
      ],
      "name": "revokeRole",
      "outputs": [],
      "stateMutability": "nonpayable",
      "type": "function"
    },
    {
      "inputs": [
        {
          "internalType": "bytes4",
          "name": "interfaceId",
          "type": "bytes4"
        }
      ],
      "name": "supportsInterface",
      "outputs": [
        {
          "internalType": "bool",
          "name": "",
          "type": "bool"
        }
      ],
      "stateMutability": "view",
      "type": "function",
      "constant": true
    },
    {
      "inputs": [],
      "name": "getCanvas",
      "outputs": [
        {
          "internalType": "address",
          "name": "",
          "type": "address"
        }
      ],
      "stateMutability": "view",
      "type": "function",
      "constant": true
    },
    {
      "inputs": [],
      "name": "getPixNft",
      "outputs": [
        {
          "internalType": "address",
          "name": "",
          "type": "address"
        }
      ],
      "stateMutability": "view",
      "type": "function",
      "constant": true
    },
    {
      "inputs": [],
      "name": "getPixelCoin",
      "outputs": [
        {
          "internalType": "address",
          "name": "",
          "type": "address"
        }
      ],
      "stateMutability": "view",
      "type": "function",
      "constant": true
    },
    {
      "inputs": [],
      "name": "getDefaultRewardPerNft",
      "outputs": [
        {
          "internalType": "uint256",
          "name": "",
          "type": "uint256"
        }
      ],
      "stateMutability": "view",
      "type": "function",
      "constant": true
    },
    {
      "inputs": [
        {
          "internalType": "uint256",
          "name": "newDefaultRewardPerNft",
          "type": "uint256"
        }
      ],
      "name": "setDefaultRewardPerNft",
      "outputs": [],
      "stateMutability": "nonpayable",
      "type": "function"
    },
    {
      "inputs": [
        {
          "internalType": "uint256",
          "name": "nftId",
          "type": "uint256"
        },
        {
          "internalType": "address",
          "name": "contributor",
          "type": "address"
        }
      ],
      "name": "getClaimeInfo",
      "outputs": [
        {
          "internalType": "bool",
          "name": "isClaimed",
          "type": "bool"
        },
        {
          "internalType": "uint256",
          "name": "amount",
          "type": "uint256"
        }
      ],
      "stateMutability": "view",
      "type": "function",
      "constant": true
    },
    {
      "inputs": [
        {
          "internalType": "uint256",
          "name": "nftId",
          "type": "uint256"
        },
        {
          "internalType": "address",
          "name": "contributor",
          "type": "address"
        }
      ],
      "name": "claim",
      "outputs": [],
      "stateMutability": "nonpayable",
      "type": "function"
    }
  ],
  "bytecode": "0x60e06040523480156200001157600080fd5b50604051620011ab380380620011ab833981016040819052620000349162000269565b6001600160a01b0383166200007e5760405162461bcd60e51b815260206004820152600b60248201526a7a65726f2063616e76617360a81b60448201526064015b60405180910390fd5b6001600160a01b038216620000c45760405162461bcd60e51b815260206004820152600b60248201526a1e995c9bc81c1a5e13999d60aa1b604482015260640162000075565b6001600160a01b0381166200010d5760405162461bcd60e51b815260206004820152600e60248201526d3d32b937903834bc32b621b7b4b760911b604482015260640162000075565b6200011a6000336200019c565b620001467fa49807205ce4d355092ef5a8a18f56e8913cf4a201fbe287825b095693c21775336200019c565b6001600160a01b03808416608081905283821660a081905291831660c0819052604051909291907f1fe8862242710eeadde3b786cb8403f31a19d59707bcd0eb121fcb4a8bbbd18390600090a4505050620002b3565b620001a88282620001ac565b5050565b6000828152602081815260408083206001600160a01b038516845290915290205460ff16620001a8576000828152602081815260408083206001600160a01b03851684529091529020805460ff19166001179055620002083390565b6001600160a01b0316816001600160a01b0316837f2f8788117e7eff1d82e926ec794901d17c78024a50270940304540a733656f0d60405160405180910390a45050565b80516001600160a01b03811681146200026457600080fd5b919050565b6000806000606084860312156200027f57600080fd5b6200028a846200024c565b92506200029a602085016200024c565b9150620002aa604085016200024c565b90509250925092565b60805160a05160c051610ead620002fe6000396000818161019d01526107f4015260008181610177015261051701526000818160f4015281816103cb015261063c0152610ead6000f3fe608060405234801561001057600080fd5b50600436106100c55760003560e01c806301ffc9a7146100ca57806306a00d43146100f2578063248a9ca31461012c5780632f2ff15d1461014d57806336568abe146101625780634ddcdff2146101755780635af71c3c1461019b57806375b238fc146101c157806391d14854146101d6578063a217fddf146101e9578063bd0f81a4146101f1578063be739fbb14610204578063d547741f1461022e578063ddd5e1b214610241578063f2d8628414610254575b600080fd5b6100dd6100d8366004610bf0565b61025c565b60405190151581526020015b60405180910390f35b7f00000000000000000000000000000000000000000000000000000000000000005b6040516001600160a01b0390911681526020016100e9565b61013f61013a366004610c1a565b610293565b6040519081526020016100e9565b61016061015b366004610c4b565b6102a8565b005b610160610170366004610c4b565b6102ca565b7f0000000000000000000000000000000000000000000000000000000000000000610114565b7f0000000000000000000000000000000000000000000000000000000000000000610114565b61013f600080516020610e5883398151915281565b6100dd6101e4366004610c4b565b61034d565b61013f600081565b6101606101ff366004610c1a565b610376565b610217610212366004610c4b565b6103c3565b6040805192151583526020830191909152016100e9565b61016061023c366004610c4b565b6104e4565b61016061024f366004610c4b565b610501565b61013f61089e565b60006001600160e01b03198216637965db0b60e01b148061028d57506301ffc9a760e01b6001600160e01b03198316145b92915050565b60009081526020819052604090206001015490565b6102b182610293565b6102bb81336108af565b6102c58383610913565b505050565b6001600160a01b038116331461033f5760405162461bcd60e51b815260206004820152602f60248201527f416363657373436f6e74726f6c3a2063616e206f6e6c792072656e6f756e636560448201526e103937b632b9903337b91039b2b63360891b60648201526084015b60405180910390fd5b6103498282610997565b5050565b6000918252602082815260408084206001600160a01b0393909316845291905290205460ff1690565b61037e6109fc565b600180549082905560408051828152602081018490527f7f31d0e2d0701638e84cec9aed604abc7935d857a5f57615cf57d7b059573a5e910160405180910390a15050565b6000806000807f00000000000000000000000000000000000000000000000000000000000000006001600160a01b03166375c0b9fe87876040518363ffffffff1660e01b8152600401610417929190610c7b565b604080518083038186803b15801561042e57600080fd5b505afa158015610442573d6000803e3d6000fd5b505050506040513d601f19601f820116820180604052508101906104669190610c92565b600088815260026020526040812054929450909250901561049557600087815260026020526040902054610499565b6001545b60008881526003602090815260408083206001600160a01b038b16845290915290205460ff1695509050816104ce8483610ccc565b6104d89190610ceb565b93505050509250929050565b6104ed82610293565b6104f781336108af565b6102c58383610997565b6040516331a9108f60e11b8152600481018390527f00000000000000000000000000000000000000000000000000000000000000006001600160a01b031690636352211e9060240160206040518083038186803b15801561056157600080fd5b505afa158015610575573d6000803e3d6000fd5b505050506040513d601f19601f820116820180604052508101906105999190610d0d565b5060008281526003602090815260408083206001600160a01b038516845290915290205460ff16156105ff5760405162461bcd60e51b815260206004820152600f60248201526e185b1c9958591e4818db185a5b5959608a1b6044820152606401610336565b60008281526003602090815260408083206001600160a01b0380861685529252808320805460ff1916600117905551633ae05cff60e11b815282917f000000000000000000000000000000000000000000000000000000000000000016906375c0b9fe906106739087908790600401610c7b565b604080518083038186803b15801561068a57600080fd5b505afa15801561069e573d6000803e3d6000fd5b505050506040513d601f19601f820116820180604052508101906106c29190610c92565b91509150600082116107085760405162461bcd60e51b815260206004820152600f60248201526e37379031b7b73a3934b13aba34b7b760891b6044820152606401610336565b600084815260026020526040902054806107b457600154806107605760405162461bcd60e51b81526020600482015260116024820152706e6f204e465420726577617264206e6f7760781b6044820152606401610336565b6000868152600260205260409081902082905551909150819086907ff0ce7aa5ba2b3ac54f08032f04953c5d57c298b78460dd948bf0211bb0a85871906107aa9084815260200190565b60405180910390a2505b6000826107c18584610ccc565b6107cb9190610ceb565b6040516340c10f1960e01b81526001600160a01b038781166004830152602482018390529192507f0000000000000000000000000000000000000000000000000000000000000000909116906340c10f1990604401600060405180830381600087803b15801561083a57600080fd5b505af115801561084e573d6000803e3d6000fd5b50505050846001600160a01b0316867f3ed1528b0fdc7c5207c1bf935e34a667e13656b9ed165260c522be0bc544f3038360405161088e91815260200190565b60405180910390a3505050505050565b60006108a86109fc565b5060015490565b6108b9828261034d565b610349576108d1816001600160a01b03166014610a4e565b6108dc836020610a4e565b6040516020016108ed929190610d5a565b60408051601f198184030181529082905262461bcd60e51b825261033691600401610dc9565b61091d828261034d565b610349576000828152602081815260408083206001600160a01b03851684529091529020805460ff191660011790556109533390565b6001600160a01b0316816001600160a01b0316837f2f8788117e7eff1d82e926ec794901d17c78024a50270940304540a733656f0d60405160405180910390a45050565b6109a1828261034d565b15610349576000828152602081815260408083206001600160a01b0385168085529252808320805460ff1916905551339285917ff6391f5c32d9c69d2a47ea670b442974b53935d1edc7fd64eb21e047a839171b9190a45050565b610a14600080516020610e588339815191523361034d565b610a4c5760405162461bcd60e51b81526020600482015260096024820152683737ba1030b236b4b760b91b6044820152606401610336565b565b60606000610a5d836002610ccc565b610a68906002610dfc565b6001600160401b03811115610a7f57610a7f610e14565b6040519080825280601f01601f191660200182016040528015610aa9576020820181803683370190505b509050600360fc1b81600081518110610ac457610ac4610e2a565b60200101906001600160f81b031916908160001a905350600f60fb1b81600181518110610af357610af3610e2a565b60200101906001600160f81b031916908160001a9053506000610b17846002610ccc565b610b22906001610dfc565b90505b6001811115610b9a576f181899199a1a9b1b9c1cb0b131b232b360811b85600f1660108110610b5657610b56610e2a565b1a60f81b828281518110610b6c57610b6c610e2a565b60200101906001600160f81b031916908160001a90535060049490941c93610b9381610e40565b9050610b25565b508315610be95760405162461bcd60e51b815260206004820181905260248201527f537472696e67733a20686578206c656e67746820696e73756666696369656e746044820152606401610336565b9392505050565b600060208284031215610c0257600080fd5b81356001600160e01b031981168114610be957600080fd5b600060208284031215610c2c57600080fd5b5035919050565b6001600160a01b0381168114610c4857600080fd5b50565b60008060408385031215610c5e57600080fd5b823591506020830135610c7081610c33565b809150509250929050565b9182526001600160a01b0316602082015260400190565b60008060408385031215610ca557600080fd5b505080516020909101519092909150565b634e487b7160e01b600052601160045260246000fd5b6000816000190483118215151615610ce657610ce6610cb6565b500290565b600082610d0857634e487b7160e01b600052601260045260246000fd5b500490565b600060208284031215610d1f57600080fd5b8151610be981610c33565b60005b83811015610d45578181015183820152602001610d2d565b83811115610d54576000848401525b50505050565b76020b1b1b2b9b9a1b7b73a3937b61d1030b1b1b7bab73a1604d1b815260008351610d8c816017850160208801610d2a565b7001034b99036b4b9b9b4b733903937b6329607d1b6017918401918201528351610dbd816028840160208801610d2a565b01602801949350505050565b6020815260008251806020840152610de8816040850160208701610d2a565b601f01601f19169190910160400192915050565b60008219821115610e0f57610e0f610cb6565b500190565b634e487b7160e01b600052604160045260246000fd5b634e487b7160e01b600052603260045260246000fd5b600081610e4f57610e4f610cb6565b50600019019056fea49807205ce4d355092ef5a8a18f56e8913cf4a201fbe287825b095693c21775a26469706673582212209bb6c8229a3337342f0e4bfd59d35600c0011edd49415b29f6f129cf99ea32fe64736f6c63430008090033",
  "immutableReferences": {
    "3501": [
      {
        "length": 32,
        "start": 244
      },
      {
        "length": 32,
        "start": 971
      },
      {
        "length": 32,
        "start": 1596
      }
    ],
    "3504": [
      {
        "length": 32,
        "start": 375
      },
      {
        "length": 32,
        "start": 1303
      }
    ],
    "3507": [
      {
        "length": 32,
        "start": 413
      },
      {
        "length": 32,
        "start": 2036
      }
    ]
  },
  "source": "// SPDX-License-Identifier: MIT\n\npragma solidity ^0.8.0;\n\n// ==================== External Imports ====================\n\nimport {AccessControl} from \"@openzeppelin/contracts/access/AccessControl.sol\";\n\n// ==================== Internal Imports ====================\n\nimport {IPixelCoin} from \"./interfaces/IPixelCoin.sol\";\nimport {ICanvasManagerV2} from \"./interfaces/ICanvasManagerV2.sol\";\n\nimport {PixNft} from \"./PixNft.sol\";\n\n/**\n * @title NftReward\n * @author Matrix\n */\ncontract NftReward is AccessControl {\n    // ==================== Constants ====================\n\n    bytes32 public constant ADMIN_ROLE = keccak256(\"ADMIN_ROLE\");\n\n    // ==================== Variables ====================\n\n    ICanvasManagerV2 internal immutable _canvas;\n    PixNft internal immutable _pixNft;\n    IPixelCoin internal immutable _pixelCoin;\n\n    uint256 internal _defaultRewardPerNft; // default reward per NFT\n    mapping(uint256 => uint256) internal _rewardOfNft; // tokenId => reward per NFT\n    mapping(uint256 => mapping(address => bool)) internal _isClaimed; // tokenId => account => whether claimed\n\n    // ==================== Events ====================\n\n    event NewNftReward(address indexed canvas, address indexed pixNft, address indexed pixelCoin);\n    event SetDefaultRewardPerNft(uint256 oldDefaultReward, uint256 newDefaultReward);\n    event SetReward(uint256 indexed nftId, uint256 reward);\n    event Claim(uint256 indexed nftId, address indexed contributor, uint256 amount);\n\n    // ==================== Constructor function ====================\n\n    constructor(\n        address canvas,\n        address pixNft,\n        address pixelCoin\n    ) {\n        require(canvas != address(0), \"zero canvas\");\n        require(pixNft != address(0), \"zero pixNft\");\n        require(pixelCoin != address(0), \"zero pixelCoin\");\n\n        _setupRole(DEFAULT_ADMIN_ROLE, _msgSender());\n        _setupRole(ADMIN_ROLE, _msgSender());\n\n        _canvas = ICanvasManagerV2(canvas);\n        _pixNft = PixNft(pixNft);\n        _pixelCoin = IPixelCoin(pixelCoin);\n\n        emit NewNftReward(canvas, pixNft, pixelCoin);\n    }\n\n    // ==================== Modifier functions ====================\n\n    modifier onlyAdmin() {\n        _onlyAdmin();\n        _;\n    }\n\n    // ==================== External functions ====================\n\n    function getCanvas() external view returns (address) {\n        return address(_canvas);\n    }\n\n    function getPixNft() external view returns (address) {\n        return address(_pixNft);\n    }\n\n    function getPixelCoin() external view returns (address) {\n        return address(_pixelCoin);\n    }\n\n    function getDefaultRewardPerNft() external view onlyAdmin returns (uint256) {\n        return _defaultRewardPerNft;\n    }\n\n    function setDefaultRewardPerNft(uint256 newDefaultRewardPerNft) external onlyAdmin {\n        uint256 oldDefaultRewardPerNft = _defaultRewardPerNft;\n        _defaultRewardPerNft = newDefaultRewardPerNft;\n\n        emit SetDefaultRewardPerNft(oldDefaultRewardPerNft, newDefaultRewardPerNft);\n    }\n\n    function getClaimeInfo(uint256 nftId, address contributor) external view returns (bool isClaimed, uint256 amount) {\n        (uint256 individualShares, uint256 totalShares) = _canvas.getShares(nftId, contributor);\n        uint256 rewardOfNft = (_rewardOfNft[nftId] == 0) ? _defaultRewardPerNft : _rewardOfNft[nftId];\n\n        isClaimed = _isClaimed[nftId][contributor];\n        amount = (rewardOfNft * individualShares) / totalShares;\n    }\n\n    function claim(uint256 nftId, address contributor) external {\n        _pixNft.ownerOf(nftId); // this function checks nonexistent token\n\n        require(!_isClaimed[nftId][contributor], \"already claimed\");\n        _isClaimed[nftId][contributor] = true;\n\n        (uint256 individualShares, uint256 totalShares) = _canvas.getShares(nftId, contributor);\n        require(individualShares > 0, \"no contribution\");\n\n        uint256 rewardOfNft = _rewardOfNft[nftId];\n        if (rewardOfNft == 0) {\n            uint256 defaultReward = _defaultRewardPerNft;\n            require(defaultReward > 0, \"no NFT reward now\");\n\n            rewardOfNft = defaultReward;\n            _rewardOfNft[nftId] = defaultReward;\n\n            emit SetReward(nftId, rewardOfNft);\n        }\n\n        uint256 amount = (rewardOfNft * individualShares) / totalShares;\n        _pixelCoin.mint(contributor, amount);\n\n        emit Claim(nftId, contributor, amount);\n    }\n\n    // ==================== Private functions ====================\n\n    function _onlyAdmin() private view {\n        require(hasRole(ADMIN_ROLE, _msgSender()), \"not admin\");\n    }\n}\n",
  "sourcePath": "/home/liudan/matrix/kpixcontract/contracts/NftReward.sol",
  "compiler": {
    "name": "solc",
    "version": "0.8.9+commit.e5eed63a.Emscripten.clang"
  },
  "schemaVersion": "3.4.5",
  "updatedAt": "2022-03-07T02:14:05.509Z",
  "networkType": "ethereum",
  "devdoc": {
    "author": "Matrix",
    "kind": "dev",
    "methods": {
      "getRoleAdmin(bytes32)": {
        "details": "Returns the admin role that controls `role`. See {grantRole} and {revokeRole}. To change a role's admin, use {_setRoleAdmin}."
      },
      "grantRole(bytes32,address)": {
        "details": "Grants `role` to `account`. If `account` had not been already granted `role`, emits a {RoleGranted} event. Requirements: - the caller must have ``role``'s admin role."
      },
      "hasRole(bytes32,address)": {
        "details": "Returns `true` if `account` has been granted `role`."
      },
      "renounceRole(bytes32,address)": {
        "details": "Revokes `role` from the calling account. Roles are often managed via {grantRole} and {revokeRole}: this function's purpose is to provide a mechanism for accounts to lose their privileges if they are compromised (such as when a trusted device is misplaced). If the calling account had been granted `role`, emits a {RoleRevoked} event. Requirements: - the caller must be `account`."
      },
      "revokeRole(bytes32,address)": {
        "details": "Revokes `role` from `account`. If `account` had been granted `role`, emits a {RoleRevoked} event. Requirements: - the caller must have ``role``'s admin role."
      },
      "supportsInterface(bytes4)": {
        "details": "See {IERC165-supportsInterface}."
      }
    },
    "title": "NftReward",
    "version": 1
  },
  "userdoc": {
    "kind": "user",
    "methods": {},
    "version": 1
  }
}