{
  "contractName": "PixelCoinBank",
  "abi": [
    {
      "inputs": [
        {
          "internalType": "address",
          "name": "stakeToken",
          "type": "address"
        },
        {
          "internalType": "address",
          "name": "rewardToken",
          "type": "address"
        },
        {
          "internalType": "uint256",
          "name": "maxReward",
          "type": "uint256"
        },
        {
          "internalType": "uint256",
          "name": "rewardPerBlock",
          "type": "uint256"
        },
        {
          "internalType": "uint256",
          "name": "startBlock",
          "type": "uint256"
        }
      ],
      "stateMutability": "nonpayable",
      "type": "constructor"
    },
    {
      "anonymous": false,
      "inputs": [
        {
          "indexed": true,
          "internalType": "address",
          "name": "caller",
          "type": "address"
        },
        {
          "indexed": true,
          "internalType": "address",
          "name": "to",
          "type": "address"
        },
        {
          "indexed": false,
          "internalType": "uint256",
          "name": "claimAmount",
          "type": "uint256"
        }
      ],
      "name": "Claim",
      "type": "event"
    },
    {
      "anonymous": false,
      "inputs": [
        {
          "indexed": false,
          "internalType": "address",
          "name": "account",
          "type": "address"
        }
      ],
      "name": "Paused",
      "type": "event"
    },
    {
      "anonymous": false,
      "inputs": [
        {
          "indexed": true,
          "internalType": "bytes32",
          "name": "role",
          "type": "bytes32"
        },
        {
          "indexed": true,
          "internalType": "bytes32",
          "name": "previousAdminRole",
          "type": "bytes32"
        },
        {
          "indexed": true,
          "internalType": "bytes32",
          "name": "newAdminRole",
          "type": "bytes32"
        }
      ],
      "name": "RoleAdminChanged",
      "type": "event"
    },
    {
      "anonymous": false,
      "inputs": [
        {
          "indexed": true,
          "internalType": "bytes32",
          "name": "role",
          "type": "bytes32"
        },
        {
          "indexed": true,
          "internalType": "address",
          "name": "account",
          "type": "address"
        },
        {
          "indexed": true,
          "internalType": "address",
          "name": "sender",
          "type": "address"
        }
      ],
      "name": "RoleGranted",
      "type": "event"
    },
    {
      "anonymous": false,
      "inputs": [
        {
          "indexed": true,
          "internalType": "bytes32",
          "name": "role",
          "type": "bytes32"
        },
        {
          "indexed": true,
          "internalType": "address",
          "name": "account",
          "type": "address"
        },
        {
          "indexed": true,
          "internalType": "address",
          "name": "sender",
          "type": "address"
        }
      ],
      "name": "RoleRevoked",
      "type": "event"
    },
    {
      "anonymous": false,
      "inputs": [
        {
          "indexed": true,
          "internalType": "address",
          "name": "caller",
          "type": "address"
        },
        {
          "indexed": false,
          "internalType": "uint256",
          "name": "currentBlock",
          "type": "uint256"
        },
        {
          "indexed": false,
          "internalType": "uint256",
          "name": "oldMaxReward",
          "type": "uint256"
        },
        {
          "indexed": false,
          "internalType": "uint256",
          "name": "newMaxReward",
          "type": "uint256"
        }
      ],
      "name": "SetMaxReward",
      "type": "event"
    },
    {
      "anonymous": false,
      "inputs": [
        {
          "indexed": true,
          "internalType": "address",
          "name": "caller",
          "type": "address"
        },
        {
          "indexed": false,
          "internalType": "uint256",
          "name": "currentBlock",
          "type": "uint256"
        },
        {
          "indexed": false,
          "internalType": "uint256",
          "name": "oldPerBlock",
          "type": "uint256"
        },
        {
          "indexed": false,
          "internalType": "uint256",
          "name": "newPerBlock",
          "type": "uint256"
        }
      ],
      "name": "SetRewardPerBlock",
      "type": "event"
    },
    {
      "anonymous": false,
      "inputs": [
        {
          "indexed": true,
          "internalType": "address",
          "name": "caller",
          "type": "address"
        },
        {
          "indexed": true,
          "internalType": "address",
          "name": "from",
          "type": "address"
        },
        {
          "indexed": false,
          "internalType": "uint256",
          "name": "stakeAmount",
          "type": "uint256"
        },
        {
          "indexed": false,
          "internalType": "uint256",
          "name": "currentStakeAmount",
          "type": "uint256"
        }
      ],
      "name": "Stake",
      "type": "event"
    },
    {
      "anonymous": false,
      "inputs": [
        {
          "indexed": false,
          "internalType": "address",
          "name": "account",
          "type": "address"
        }
      ],
      "name": "Unpaused",
      "type": "event"
    },
    {
      "anonymous": false,
      "inputs": [
        {
          "indexed": true,
          "internalType": "address",
          "name": "caller",
          "type": "address"
        },
        {
          "indexed": true,
          "internalType": "address",
          "name": "to",
          "type": "address"
        },
        {
          "indexed": false,
          "internalType": "uint256",
          "name": "unstakeAmount",
          "type": "uint256"
        },
        {
          "indexed": false,
          "internalType": "uint256",
          "name": "currentStakeAmount",
          "type": "uint256"
        }
      ],
      "name": "Unstake",
      "type": "event"
    },
    {
      "anonymous": false,
      "inputs": [
        {
          "indexed": true,
          "internalType": "address",
          "name": "caller",
          "type": "address"
        },
        {
          "indexed": true,
          "internalType": "uint256",
          "name": "currentBlock",
          "type": "uint256"
        },
        {
          "indexed": false,
          "internalType": "uint256",
          "name": "newReward",
          "type": "uint256"
        },
        {
          "indexed": false,
          "internalType": "uint256",
          "name": "currentReward",
          "type": "uint256"
        },
        {
          "indexed": false,
          "internalType": "uint256",
          "name": "currentSharePrice",
          "type": "uint256"
        }
      ],
      "name": "UpdateData",
      "type": "event"
    },
    {
      "inputs": [],
      "name": "ADMIN_ROLE",
      "outputs": [
        {
          "internalType": "bytes32",
          "name": "",
          "type": "bytes32"
        }
      ],
      "stateMutability": "view",
      "type": "function",
      "constant": true
    },
    {
      "inputs": [],
      "name": "DEFAULT_ADMIN_ROLE",
      "outputs": [
        {
          "internalType": "bytes32",
          "name": "",
          "type": "bytes32"
        }
      ],
      "stateMutability": "view",
      "type": "function",
      "constant": true
    },
    {
      "inputs": [
        {
          "internalType": "address",
          "name": "to",
          "type": "address"
        }
      ],
      "name": "claim",
      "outputs": [],
      "stateMutability": "nonpayable",
      "type": "function"
    },
    {
      "inputs": [],
      "name": "getInfo",
      "outputs": [
        {
          "internalType": "address",
          "name": "stakeToken",
          "type": "address"
        },
        {
          "internalType": "address",
          "name": "rewardToken",
          "type": "address"
        },
        {
          "internalType": "uint256",
          "name": "startBlock",
          "type": "uint256"
        },
        {
          "internalType": "uint256",
          "name": "maxReward",
          "type": "uint256"
        },
        {
          "internalType": "uint256",
          "name": "rewardPerBlock",
          "type": "uint256"
        }
      ],
      "stateMutability": "view",
      "type": "function",
      "constant": true
    },
    {
      "inputs": [
        {
          "internalType": "address",
          "name": "account",
          "type": "address"
        },
        {
          "internalType": "uint256",
          "name": "currentBlock",
          "type": "uint256"
        }
      ],
      "name": "getReward",
      "outputs": [
        {
          "internalType": "uint256",
          "name": "",
          "type": "uint256"
        }
      ],
      "stateMutability": "view",
      "type": "function",
      "constant": true
    },
    {
      "inputs": [
        {
          "internalType": "bytes32",
          "name": "role",
          "type": "bytes32"
        }
      ],
      "name": "getRoleAdmin",
      "outputs": [
        {
          "internalType": "bytes32",
          "name": "",
          "type": "bytes32"
        }
      ],
      "stateMutability": "view",
      "type": "function",
      "constant": true
    },
    {
      "inputs": [],
      "name": "getStatus",
      "outputs": [
        {
          "internalType": "uint256",
          "name": "userCount",
          "type": "uint256"
        },
        {
          "internalType": "uint256",
          "name": "stakeCount",
          "type": "uint256"
        },
        {
          "internalType": "uint256",
          "name": "unstakeCount",
          "type": "uint256"
        },
        {
          "internalType": "uint256",
          "name": "claimCount",
          "type": "uint256"
        },
        {
          "internalType": "uint256",
          "name": "stakeAmount",
          "type": "uint256"
        },
        {
          "internalType": "uint256",
          "name": "unstakeSum",
          "type": "uint256"
        },
        {
          "internalType": "uint256",
          "name": "rewardAmount",
          "type": "uint256"
        },
        {
          "internalType": "uint256",
          "name": "claimSum",
          "type": "uint256"
        },
        {
          "internalType": "uint256",
          "name": "sharePrice",
          "type": "uint256"
        },
        {
          "internalType": "uint256",
          "name": "lastUpdateBlock",
          "type": "uint256"
        }
      ],
      "stateMutability": "view",
      "type": "function",
      "constant": true
    },
    {
      "inputs": [
        {
          "internalType": "address",
          "name": "account",
          "type": "address"
        }
      ],
      "name": "getUserInfo",
      "outputs": [
        {
          "internalType": "uint256",
          "name": "stakeAmount",
          "type": "uint256"
        },
        {
          "internalType": "uint256",
          "name": "sharePrice",
          "type": "uint256"
        },
        {
          "internalType": "uint256",
          "name": "rewardAmount",
          "type": "uint256"
        }
      ],
      "stateMutability": "view",
      "type": "function",
      "constant": true
    },
    {
      "inputs": [
        {
          "internalType": "bytes32",
          "name": "role",
          "type": "bytes32"
        },
        {
          "internalType": "address",
          "name": "account",
          "type": "address"
        }
      ],
      "name": "grantRole",
      "outputs": [],
      "stateMutability": "nonpayable",
      "type": "function"
    },
    {
      "inputs": [
        {
          "internalType": "bytes32",
          "name": "role",
          "type": "bytes32"
        },
        {
          "internalType": "address",
          "name": "account",
          "type": "address"
        }
      ],
      "name": "hasRole",
      "outputs": [
        {
          "internalType": "bool",
          "name": "",
          "type": "bool"
        }
      ],
      "stateMutability": "view",
      "type": "function",
      "constant": true
    },
    {
      "inputs": [],
      "name": "pause",
      "outputs": [],
      "stateMutability": "nonpayable",
      "type": "function"
    },
    {
      "inputs": [],
      "name": "paused",
      "outputs": [
        {
          "internalType": "bool",
          "name": "",
          "type": "bool"
        }
      ],
      "stateMutability": "view",
      "type": "function",
      "constant": true
    },
    {
      "inputs": [
        {
          "internalType": "bytes32",
          "name": "role",
          "type": "bytes32"
        },
        {
          "internalType": "address",
          "name": "account",
          "type": "address"
        }
      ],
      "name": "renounceRole",
      "outputs": [],
      "stateMutability": "nonpayable",
      "type": "function"
    },
    {
      "inputs": [
        {
          "internalType": "bytes32",
          "name": "role",
          "type": "bytes32"
        },
        {
          "internalType": "address",
          "name": "account",
          "type": "address"
        }
      ],
      "name": "revokeRole",
      "outputs": [],
      "stateMutability": "nonpayable",
      "type": "function"
    },
    {
      "inputs": [
        {
          "internalType": "uint256",
          "name": "newMaxReward",
          "type": "uint256"
        }
      ],
      "name": "setMaxReward",
      "outputs": [],
      "stateMutability": "nonpayable",
      "type": "function"
    },
    {
      "inputs": [
        {
          "internalType": "uint256",
          "name": "newRewardPerBlock",
          "type": "uint256"
        }
      ],
      "name": "setRewardPerBlock",
      "outputs": [],
      "stateMutability": "nonpayable",
      "type": "function"
    },
    {
      "inputs": [
        {
          "internalType": "address",
          "name": "from",
          "type": "address"
        },
        {
          "internalType": "uint256",
          "name": "amount",
          "type": "uint256"
        }
      ],
      "name": "stake",
      "outputs": [],
      "stateMutability": "nonpayable",
      "type": "function"
    },
    {
      "inputs": [
        {
          "internalType": "bytes4",
          "name": "interfaceId",
          "type": "bytes4"
        }
      ],
      "name": "supportsInterface",
      "outputs": [
        {
          "internalType": "bool",
          "name": "",
          "type": "bool"
        }
      ],
      "stateMutability": "view",
      "type": "function",
      "constant": true
    },
    {
      "inputs": [],
      "name": "unpause",
      "outputs": [],
      "stateMutability": "nonpayable",
      "type": "function"
    },
    {
      "inputs": [
        {
          "internalType": "address",
          "name": "to",
          "type": "address"
        },
        {
          "internalType": "uint256",
          "name": "amount",
          "type": "uint256"
        }
      ],
      "name": "unstake",
      "outputs": [],
      "stateMutability": "nonpayable",
      "type": "function"
    },
    {
      "inputs": [],
      "name": "updateData",
      "outputs": [],
      "stateMutability": "nonpayable",
      "type": "function"
    },
    {
      "stateMutability": "payable",
      "type": "receive",
      "payable": true
    }
  ],
  "bytecode": "0x60e06040523480156200001157600080fd5b5060405162001d8a38038062001d8a8339810160408190526200003491620001ae565b6001805460ff19169055848484848462000050600033620000e1565b6200007c7fa49807205ce4d355092ef5a8a18f56e8913cf4a201fbe287825b095693c2177533620000e1565b80620000855750435b6001600160a01b03808616608052841660a05260c08190526002819055620000b6670de0b6b3a76400008462000201565b600355620000cd670de0b6b3a76400008362000201565b600455506200022f98505050505050505050565b620000ed8282620000f1565b5050565b6000828152602081815260408083206001600160a01b038516845290915290205460ff16620000ed576000828152602081815260408083206001600160a01b03851684529091529020805460ff191660011790556200014d3390565b6001600160a01b0316816001600160a01b0316837f2f8788117e7eff1d82e926ec794901d17c78024a50270940304540a733656f0d60405160405180910390a45050565b80516001600160a01b0381168114620001a957600080fd5b919050565b600080600080600060a08688031215620001c757600080fd5b620001d28662000191565b9450620001e26020870162000191565b6040870151606088015160809098015196999198509695945092505050565b60008160001904831182151516156200022a57634e487b7160e01b600052601160045260246000fd5b500290565b60805160a05160c051611b166200027460003960006108ce0152600081816105ac01526108ad01526000818161088c01528181610ad60152610e330152611b166000f3fe6080604052600436106100fe5760003560e01c806301ffc9a71461010a5780631e83409a1461013f578063248a9ca31461016157806325c33e131461018f5780632f2ff15d146101af57806336568abe146101cf5780633f4ba83a146101ef5780634e69d560146102045780635a9b0b89146102635780635c975abb146102ab5780636386c1c7146102c357806375b238fc146102f25780638456cb59146103145780638e00a2bb1461032957806391d148541461033e578063a217fddf1461035e578063adc9772e14610373578063bb872b4a14610393578063c2a672e0146103b3578063d547741f146103d3578063f474c8ce146103f357600080fd5b3661010557005b600080fd5b34801561011657600080fd5b5061012a6101253660046117a7565b610413565b60405190151581526020015b60405180910390f35b34801561014b57600080fd5b5061015f61015a3660046117ed565b61044a565b005b34801561016d57600080fd5b5061018161017c366004611808565b610673565b604051908152602001610136565b34801561019b57600080fd5b5061015f6101aa366004611808565b610688565b3480156101bb57600080fd5b5061015f6101ca366004611821565b61075c565b3480156101db57600080fd5b5061015f6101ea366004611821565b61077e565b3480156101fb57600080fd5b5061015f6107fc565b34801561021057600080fd5b5061021961080e565b604080519a8b5260208b0199909952978901969096526060880194909452608087019290925260a086015260c085015260e084015261010083015261012082015261014001610136565b34801561026f57600080fd5b50610278610882565b604080516001600160a01b039687168152959094166020860152928401919091526060830152608082015260a001610136565b3480156102b757600080fd5b5060015460ff1661012a565b3480156102cf57600080fd5b506102e36102de3660046117ed565b61092a565b6040516101369392919061184d565b3480156102fe57600080fd5b50610181600080516020611ac183398151915281565b34801561032057600080fd5b5061015f610a52565b34801561033557600080fd5b5061015f610a62565b34801561034a57600080fd5b5061012a610359366004611821565b610a6b565b34801561036a57600080fd5b50610181600081565b34801561037f57600080fd5b5061015f61038e366004611863565b610a94565b34801561039f57600080fd5b5061015f6103ae366004611808565b610c41565b3480156103bf57600080fd5b5061015f6103ce366004611863565b610cbe565b3480156103df57600080fd5b5061015f6103ee366004611821565b610e9d565b3480156103ff57600080fd5b5061018161040e366004611863565b610eba565b60006001600160e01b03198216637965db0b60e01b148061044457506301ffc9a760e01b6001600160e01b03198316145b92915050565b60015460ff16156104765760405162461bcd60e51b815260040161046d9061188d565b60405180910390fd5b6001600160a01b0381166104875750335b61049043610fbf565b6001600160a01b03811660009081526006602090815260408083208151606081018352815481526001820154938101849052600282015492810192909252600554909391929091906104e290836118cd565b83516104ee91906118e4565b905060008184604001516105029190611903565b90506000610518670de0b6b3a76400008361191b565b600187018590559050801561066a57600a80549060006105378361193d565b9091555060009050610551670de0b6b3a7640000836118e4565b905061055d81846118cd565b876002018190555080600e60008282546105779190611903565b9250508190555080600d600082825461059091906118cd565b90915550506040516340c10f1960e01b81526001600160a01b037f000000000000000000000000000000000000000000000000000000000000000016906340c10f19906105e3908b908690600401611958565b600060405180830381600087803b1580156105fd57600080fd5b505af1158015610611573d6000803e3d6000fd5b50505050876001600160a01b03166106263390565b6001600160a01b03167f70eb43c4a8ae8c40502dcf22436c509c28d6ff421cf07c491be56984bd9870688460405161066091815260200190565b60405180910390a3505b50505050505050565b60009081526020819052604090206001015490565b6106906110b5565b61069943610fbf565b600d548110156106e45760405162461bcd60e51b81526020600482015260166024820152751b995dd3585e14995dd85c99081d1bdbc81cdb585b1b60521b604482015260640161046d565b6000670de0b6b3a76400006003546106fc919061191b565b9050610710670de0b6b3a7640000836118e4565b600355336001600160a01b03167f2ef44f5b40949cc1fdacb3734e9deec52372868867f3e11fa2735c13e49c7a754383856040516107509392919061184d565b60405180910390a25050565b61076582610673565b61076f8133611105565b6107798383611169565b505050565b6001600160a01b03811633146107ee5760405162461bcd60e51b815260206004820152602f60248201527f416363657373436f6e74726f6c3a2063616e206f6e6c792072656e6f756e636560448201526e103937b632b9903337b91039b2b63360891b606482015260840161046d565b6107f882826111ed565b5050565b6108046110b5565b61080c611252565b565b600754600854600954600a54600b54600c54600d5460009081908190819061083f90670de0b6b3a76400009061191b565b9350670de0b6b3a7640000600e54610857919061191b565b9250670de0b6b3a764000060055461086f919061191b565b9150600254905090919293949596979899565b60008060008060007f00000000000000000000000000000000000000000000000000000000000000007f00000000000000000000000000000000000000000000000000000000000000007f0000000000000000000000000000000000000000000000000000000000000000670de0b6b3a7640000600354610903919061191b565b670de0b6b3a7640000600454610919919061191b565b945094509450945094509091929394565b6001600160a01b038116600090815260066020908152604080832081516060810183528154815260018201549381019390935260029081015491830191909152600b5460055491548493849390924392909190808411801561098b57508215155b156109ef57600354600d5460006109a284886118cd565b6004546109af91906118e4565b905060006109bd8284611903565b9050838111156109d4576109d183856118cd565b91505b6109de878361191b565b6109e89087611903565b9550505050505b84519750610a05670de0b6b3a76400008361191b565b9650670de0b6b3a76400008560400151866020015184610a2591906118cd565b8751610a3191906118e4565b610a3b9190611903565b610a45919061191b565b9799969850505050505050565b610a5a6110b5565b61080c6112e5565b61080c43610fbf565b6000918252602082815260408084206001600160a01b0393909316845291905290205460ff1690565b60015460ff1615610ab75760405162461bcd60e51b815260040161046d9061188d565b6001600160a01b038216610ac9573391505b610afe6001600160a01b037f00000000000000000000000000000000000000000000000000000000000000001683308461133b565b610b0743610fbf565b6001600160a01b0382166000908152600660209081526040808320815160608101835281548152600182015493810184905260028201549281019290925260055490939192909190610b5990836118cd565b8351610b6591906118e4565b90506000818460400151610b799190611903565b60018601849055600286018190559050851561066a5760088054906000610b9f8361193d565b919050555085600b6000828254610bb69190611903565b9091555050602084015115610bcc576000610bcf565b60015b60ff1660076000828254610be39190611903565b90915550508351600090610bf8908890611903565b80875560408051898152602081018390529192506001600160a01b038a169133917f63602d0ecc7b3a0ef7ff1a116e23056662d64280355ba8031b6d0d767c4b44589101610660565b610c496110b5565b610c5243610fbf565b6000670de0b6b3a7640000600454610c6a919061191b565b9050610c7e670de0b6b3a7640000836118e4565b600455336001600160a01b03167f185d041f09f1e2fd455b76dab8cd39a44bb6dd776b055bd28c64b335296d7ab34383856040516107509392919061184d565b60015460ff1615610ce15760405162461bcd60e51b815260040161046d9061188d565b6001600160a01b038216610cf3573391505b6001600160a01b038216600090815260066020908152604091829020825160608101845281548082526001830154938201939093526002820154938101939093529190831115610d785760405162461bcd60e51b815260206004820152601060248201526f756e7374616b6520746f6f206d616e7960801b604482015260640161046d565b610d8143610fbf565b6005546020820151600090610d9690836118cd565b8351610da291906118e4565b90506000818460400151610db69190611903565b60018601849055600286018190559050851561066a5760098054906000610ddc8361193d565b919050555085600b6000828254610df391906118cd565b9250508190555085600c6000828254610e0c9190611903565b90915550508351600090610e219088906118cd565b8087559050610e5a6001600160a01b037f00000000000000000000000000000000000000000000000000000000000000001689896113ac565b60408051888152602081018390526001600160a01b038a169133917f18edd09e80386cd99df397e2e0d87d2bb259423eae08645e776321a36fe680ef9101610660565b610ea682610673565b610eb08133611105565b61077983836111ed565b600081610ec5574391505b600b546005546002548085118015610edc57508215155b15610f4057600354600d546000610ef384896118cd565b600454610f0091906118e4565b90506000610f0e8284611903565b905083811115610f2557610f2283856118cd565b91505b610f2f878361191b565b610f399087611903565b9550505050505b6001600160a01b038616600090815260066020908152604091829020825160608101845281548152600182015492810183905260029091015492810183905291670de0b6b3a764000091610f9490866118cd565b8351610fa091906118e4565b610faa9190611903565b610fb4919061191b565b979650505050505050565b600254808211610fcd575050565b600b5480610fdc575050600255565b600354600d546000610fee85876118cd565b600454610ffb91906118e4565b905060006110098284611903565b9050838111156110235761101d83856118cd565b91508390505b600061102f868461191b565b60055461103c9190611903565b6005819055600d8390556002899055905087337f6ac5f7d4f6041a51f8f957bdc94b6e096789b65498ac24f4dc111c5ad9335f87611082670de0b6b3a76400008761191b565b611094670de0b6b3a76400008761191b565b6110a6670de0b6b3a76400008761191b565b6040516106609392919061184d565b6110cd600080516020611ac183398151915233610a6b565b61080c5760405162461bcd60e51b81526020600482015260096024820152683737ba1030b236b4b760b91b604482015260640161046d565b61110f8282610a6b565b6107f857611127816001600160a01b031660146113cb565b6111328360206113cb565b60405160200161114392919061199d565b60408051601f198184030181529082905262461bcd60e51b825261046d91600401611a0c565b6111738282610a6b565b6107f8576000828152602081815260408083206001600160a01b03851684529091529020805460ff191660011790556111a93390565b6001600160a01b0316816001600160a01b0316837f2f8788117e7eff1d82e926ec794901d17c78024a50270940304540a733656f0d60405160405180910390a45050565b6111f78282610a6b565b156107f8576000828152602081815260408083206001600160a01b0385168085529252808320805460ff1916905551339285917ff6391f5c32d9c69d2a47ea670b442974b53935d1edc7fd64eb21e047a839171b9190a45050565b60015460ff1661129b5760405162461bcd60e51b815260206004820152601460248201527314185d5cd8589b194e881b9bdd081c185d5cd95960621b604482015260640161046d565b6001805460ff191690557f5db9ee0a495bf2e6ff9c91a7834c1ba4fdd244a5e8aa4e537bd38aeae4b073aa335b6040516001600160a01b03909116815260200160405180910390a1565b60015460ff16156113085760405162461bcd60e51b815260040161046d9061188d565b6001805460ff1916811790557f62e78cea01bee320cd4e420270b5ea74000d11b0c9f74754ebdbfc544b05a258336112c8565b6040516001600160a01b03808516602483015283166044820152606481018290526113a69085906323b872dd60e01b906084015b60408051601f198184030181529190526020810180516001600160e01b03166001600160e01b03199093169290921790915261156d565b50505050565b6107798363a9059cbb60e01b848460405160240161136f929190611958565b606060006113da8360026118e4565b6113e5906002611903565b6001600160401b038111156113fc576113fc611a3f565b6040519080825280601f01601f191660200182016040528015611426576020820181803683370190505b509050600360fc1b8160008151811061144157611441611a55565b60200101906001600160f81b031916908160001a905350600f60fb1b8160018151811061147057611470611a55565b60200101906001600160f81b031916908160001a90535060006114948460026118e4565b61149f906001611903565b90505b6001811115611517576f181899199a1a9b1b9c1cb0b131b232b360811b85600f16601081106114d3576114d3611a55565b1a60f81b8282815181106114e9576114e9611a55565b60200101906001600160f81b031916908160001a90535060049490941c9361151081611a6b565b90506114a2565b5083156115665760405162461bcd60e51b815260206004820181905260248201527f537472696e67733a20686578206c656e67746820696e73756666696369656e74604482015260640161046d565b9392505050565b60006115c2826040518060400160405280602081526020017f5361666545524332303a206c6f772d6c6576656c2063616c6c206661696c6564815250856001600160a01b031661163f9092919063ffffffff16565b80519091501561077957808060200190518101906115e09190611a82565b6107795760405162461bcd60e51b815260206004820152602a60248201527f5361666545524332303a204552433230206f7065726174696f6e20646964206e6044820152691bdd081cdd58d8d9595960b21b606482015260840161046d565b606061164e8484600085611656565b949350505050565b6060824710156116b75760405162461bcd60e51b815260206004820152602660248201527f416464726573733a20696e73756666696369656e742062616c616e636520666f6044820152651c8818d85b1b60d21b606482015260840161046d565b843b6117055760405162461bcd60e51b815260206004820152601d60248201527f416464726573733a2063616c6c20746f206e6f6e2d636f6e7472616374000000604482015260640161046d565b600080866001600160a01b031685876040516117219190611aa4565b60006040518083038185875af1925050503d806000811461175e576040519150601f19603f3d011682016040523d82523d6000602084013e611763565b606091505b5091509150610fb48282866060831561177d575081611566565b82511561178d5782518084602001fd5b8160405162461bcd60e51b815260040161046d9190611a0c565b6000602082840312156117b957600080fd5b81356001600160e01b03198116811461156657600080fd5b80356001600160a01b03811681146117e857600080fd5b919050565b6000602082840312156117ff57600080fd5b611566826117d1565b60006020828403121561181a57600080fd5b5035919050565b6000806040838503121561183457600080fd5b82359150611844602084016117d1565b90509250929050565b9283526020830191909152604082015260600190565b6000806040838503121561187657600080fd5b61187f836117d1565b946020939093013593505050565b60208082526010908201526f14185d5cd8589b194e881c185d5cd95960821b604082015260600190565b634e487b7160e01b600052601160045260246000fd5b6000828210156118df576118df6118b7565b500390565b60008160001904831182151516156118fe576118fe6118b7565b500290565b60008219821115611916576119166118b7565b500190565b60008261193857634e487b7160e01b600052601260045260246000fd5b500490565b6000600019821415611951576119516118b7565b5060010190565b6001600160a01b03929092168252602082015260400190565b60005b8381101561198c578181015183820152602001611974565b838111156113a65750506000910152565b76020b1b1b2b9b9a1b7b73a3937b61d1030b1b1b7bab73a1604d1b8152600083516119cf816017850160208801611971565b7001034b99036b4b9b9b4b733903937b6329607d1b6017918401918201528351611a00816028840160208801611971565b01602801949350505050565b6020815260008251806020840152611a2b816040850160208701611971565b601f01601f19169190910160400192915050565b634e487b7160e01b600052604160045260246000fd5b634e487b7160e01b600052603260045260246000fd5b600081611a7a57611a7a6118b7565b506000190190565b600060208284031215611a9457600080fd5b8151801515811461156657600080fd5b60008251611ab6818460208701611971565b919091019291505056fea49807205ce4d355092ef5a8a18f56e8913cf4a201fbe287825b095693c21775a2646970667358221220017fd4bc6c9c70202b45861f6b2174224494a09843ea5a589349b883f21a3c3364736f6c63430008090033",
  "immutableReferences": {
    "7964": [
      {
        "length": 32,
        "start": 2188
      },
      {
        "length": 32,
        "start": 2774
      },
      {
        "length": 32,
        "start": 3635
      }
    ],
    "7967": [
      {
        "length": 32,
        "start": 1452
      },
      {
        "length": 32,
        "start": 2221
      }
    ],
    "7969": [
      {
        "length": 32,
        "start": 2254
      }
    ]
  },
  "source": "// SPDX-License-Identifier: MIT\n\npragma solidity ^0.8.0;\n\n// ==================== Internal Imports ====================\n\nimport {Erc20Bank} from \"./Erc20Bank.sol\";\n\n/**\n * @title PixelCoinBank\n * @author Matrix\n */\ncontract PixelCoinBank is Erc20Bank {\n    // ==================== Constructor function ====================\n\n    constructor(\n        address stakeToken,\n        address rewardToken,\n        uint256 maxReward,\n        uint256 rewardPerBlock,\n        uint256 startBlock\n    ) Erc20Bank(stakeToken, rewardToken, maxReward, rewardPerBlock, startBlock) {}\n}\n",
  "sourcePath": "/home/liudan/matrix/kpixcontract/contracts/PixelCoinBank.sol",
  "compiler": {
    "name": "solc",
    "version": "0.8.9+commit.e5eed63a.Emscripten.clang"
  },
  "schemaVersion": "3.4.5",
  "updatedAt": "2022-03-07T02:14:05.480Z",
  "networkType": "ethereum",
  "devdoc": {
    "author": "Matrix",
    "kind": "dev",
    "methods": {
      "getRoleAdmin(bytes32)": {
        "details": "Returns the admin role that controls `role`. See {grantRole} and {revokeRole}. To change a role's admin, use {_setRoleAdmin}."
      },
      "grantRole(bytes32,address)": {
        "details": "Grants `role` to `account`. If `account` had not been already granted `role`, emits a {RoleGranted} event. Requirements: - the caller must have ``role``'s admin role."
      },
      "hasRole(bytes32,address)": {
        "details": "Returns `true` if `account` has been granted `role`."
      },
      "paused()": {
        "details": "Returns true if the contract is paused, and false otherwise."
      },
      "renounceRole(bytes32,address)": {
        "details": "Revokes `role` from the calling account. Roles are often managed via {grantRole} and {revokeRole}: this function's purpose is to provide a mechanism for accounts to lose their privileges if they are compromised (such as when a trusted device is misplaced). If the calling account had been granted `role`, emits a {RoleRevoked} event. Requirements: - the caller must be `account`."
      },
      "revokeRole(bytes32,address)": {
        "details": "Revokes `role` from `account`. If `account` had been granted `role`, emits a {RoleRevoked} event. Requirements: - the caller must have ``role``'s admin role."
      },
      "supportsInterface(bytes4)": {
        "details": "See {IERC165-supportsInterface}."
      }
    },
    "title": "PixelCoinBank",
    "version": 1
  },
  "userdoc": {
    "kind": "user",
    "methods": {},
    "version": 1
  }
}